{"abi":[{"type":"constructor","inputs":[{"name":"_feeManager","type":"address","internalType":"address"},{"name":"_factory","type":"address","internalType":"address"},{"name":"_referralManager","type":"address","internalType":"address"},{"name":"_liquidityManager","type":"address","internalType":"address"},{"name":"_wbera","type":"address","internalType":"address"}],"stateMutability":"nonpayable"},{"type":"receive","stateMutability":"payable"},{"type":"function","name":"FACTORY","inputs":[],"outputs":[{"name":"","type":"address","internalType":"address"}],"stateMutability":"view"},{"type":"function","name":"FEE_MANAGER","inputs":[],"outputs":[{"name":"","type":"address","internalType":"contract IFeeManager"}],"stateMutability":"view"},{"type":"function","name":"LIQUIDITY_MANAGER","inputs":[],"outputs":[{"name":"","type":"address","internalType":"contract IBexLiquidityManager"}],"stateMutability":"view"},{"type":"function","name":"REFERRAL_MANAGER","inputs":[],"outputs":[{"name":"","type":"address","internalType":"contract IReferralManager"}],"stateMutability":"view"},{"type":"function","name":"WBERA","inputs":[],"outputs":[{"name":"","type":"address","internalType":"contract IWBera"}],"stateMutability":"view"},{"type":"function","name":"buy","inputs":[{"name":"token","type":"address","internalType":"address"},{"name":"baseAmount","type":"uint256","internalType":"uint256"},{"name":"minTokensOut","type":"uint256","internalType":"uint256"},{"name":"affiliate","type":"address","internalType":"address"},{"name":"recipient","type":"address","internalType":"address"}],"outputs":[],"stateMutability":"nonpayable"},{"type":"function","name":"buyNative","inputs":[{"name":"token","type":"address","internalType":"address"},{"name":"minTokensOut","type":"uint256","internalType":"uint256"},{"name":"affiliate","type":"address","internalType":"address"},{"name":"recipient","type":"address","internalType":"address"}],"outputs":[],"stateMutability":"payable"},{"type":"function","name":"owner","inputs":[],"outputs":[{"name":"","type":"address","internalType":"address"}],"stateMutability":"view"},{"type":"function","name":"pause","inputs":[],"outputs":[],"stateMutability":"nonpayable"},{"type":"function","name":"paused","inputs":[],"outputs":[{"name":"","type":"bool","internalType":"bool"}],"stateMutability":"view"},{"type":"function","name":"quote","inputs":[{"name":"token","type":"address","internalType":"address"},{"name":"amount","type":"uint256","internalType":"uint256"},{"name":"isBuyOrder","type":"bool","internalType":"bool"}],"outputs":[{"name":"amountOut","type":"uint256","internalType":"uint256"}],"stateMutability":"view"},{"type":"function","name":"registerToken","inputs":[{"name":"token","type":"address","internalType":"address"},{"name":"baseToken","type":"address","internalType":"address"},{"name":"initialTokenBalance","type":"uint256","internalType":"uint256"},{"name":"initialReserves","type":"uint256","internalType":"uint256"},{"name":"finalReserves","type":"uint256","internalType":"uint256"}],"outputs":[],"stateMutability":"nonpayable"},{"type":"function","name":"renounceOwnership","inputs":[],"outputs":[],"stateMutability":"nonpayable"},{"type":"function","name":"sell","inputs":[{"name":"token","type":"address","internalType":"address"},{"name":"tokenAmount","type":"uint256","internalType":"uint256"},{"name":"minAmountOut","type":"uint256","internalType":"uint256"},{"name":"affiliate","type":"address","internalType":"address"},{"name":"recipient","type":"address","internalType":"address"},{"name":"unwrap","type":"bool","internalType":"bool"}],"outputs":[],"stateMutability":"nonpayable"},{"type":"function","name":"tokenInfo","inputs":[{"name":"","type":"address","internalType":"address"}],"outputs":[{"name":"baseToken","type":"address","internalType":"address"},{"name":"bexListed","type":"bool","internalType":"bool"},{"name":"tokenBalance","type":"uint256","internalType":"uint256"},{"name":"baseBalance","type":"uint256","internalType":"uint256"},{"name":"initialBase","type":"uint256","internalType":"uint256"},{"name":"baseThreshold","type":"uint256","internalType":"uint256"},{"name":"quoteThreshold","type":"uint256","internalType":"uint256"},{"name":"k","type":"uint256","internalType":"uint256"}],"stateMutability":"view"},{"type":"function","name":"transferOwnership","inputs":[{"name":"newOwner","type":"address","internalType":"address"}],"outputs":[],"stateMutability":"nonpayable"},{"type":"function","name":"unpause","inputs":[],"outputs":[],"stateMutability":"nonpayable"},{"type":"event","name":"OwnershipTransferred","inputs":[{"name":"previousOwner","type":"address","indexed":true,"internalType":"address"},{"name":"newOwner","type":"address","indexed":true,"internalType":"address"}],"anonymous":false},{"type":"event","name":"Paused","inputs":[{"name":"account","type":"address","indexed":false,"internalType":"address"}],"anonymous":false},{"type":"event","name":"TokenRegistered","inputs":[{"name":"token","type":"address","indexed":true,"internalType":"address"},{"name":"baseToken","type":"address","indexed":true,"internalType":"address"},{"name":"tokenBalance","type":"uint256","indexed":false,"internalType":"uint256"},{"name":"initialReserves","type":"uint256","indexed":false,"internalType":"uint256"},{"name":"finalReserves","type":"uint256","indexed":false,"internalType":"uint256"}],"anonymous":false},{"type":"event","name":"Trade","inputs":[{"name":"user","type":"address","indexed":true,"internalType":"address"},{"name":"token","type":"address","indexed":true,"internalType":"address"},{"name":"baseToken","type":"address","indexed":true,"internalType":"address"},{"name":"tokenAmount","type":"uint256","indexed":false,"internalType":"uint256"},{"name":"baseAmount","type":"uint256","indexed":false,"internalType":"uint256"},{"name":"tokenBalance","type":"uint256","indexed":false,"internalType":"uint256"},{"name":"baseBalance","type":"uint256","indexed":false,"internalType":"uint256"},{"name":"isBuyOrder","type":"bool","indexed":false,"internalType":"bool"}],"anonymous":false},{"type":"event","name":"Unpaused","inputs":[{"name":"account","type":"address","indexed":false,"internalType":"address"}],"anonymous":false},{"type":"error","name":"BuzzVault_AddressZeroRecipient","inputs":[]},{"type":"error","name":"BuzzVault_AddressZeroToken","inputs":[]},{"type":"error","name":"BuzzVault_BexListed","inputs":[]},{"type":"error","name":"BuzzVault_FeeTransferFailed","inputs":[]},{"type":"error","name":"BuzzVault_InvalidReserves","inputs":[]},{"type":"error","name":"BuzzVault_InvalidUserBalance","inputs":[]},{"type":"error","name":"BuzzVault_NativeTradeUnsupported","inputs":[]},{"type":"error","name":"BuzzVault_QuoteAmountZero","inputs":[]},{"type":"error","name":"BuzzVault_SlippageExceeded","inputs":[]},{"type":"error","name":"BuzzVault_TokenExists","inputs":[]},{"type":"error","name":"BuzzVault_Unauthorized","inputs":[]},{"type":"error","name":"BuzzVault_UnknownToken","inputs":[]},{"type":"error","name":"BuzzVault_WBeraConversionFailed","inputs":[]}],"bytecode":{"object":"0x6101206040523480156200001257600080fd5b50604051620043d5380380620043d58339818101604052810190620000389190620002c2565b84848484846200005d620000516200018c60201b60201c565b6200019460201b60201c565b60008060146101000a81548160ff0219169083151502179055508373ffffffffffffffffffffffffffffffffffffffff166101008173ffffffffffffffffffffffffffffffffffffffff16815250508473ffffffffffffffffffffffffffffffffffffffff1660808173ffffffffffffffffffffffffffffffffffffffff16815250508273ffffffffffffffffffffffffffffffffffffffff1660a08173ffffffffffffffffffffffffffffffffffffffff16815250508173ffffffffffffffffffffffffffffffffffffffff1660c08173ffffffffffffffffffffffffffffffffffffffff16815250508073ffffffffffffffffffffffffffffffffffffffff1660e08173ffffffffffffffffffffffffffffffffffffffff1681525050505050505050505050506200034a565b600033905090565b60008060009054906101000a900473ffffffffffffffffffffffffffffffffffffffff169050816000806101000a81548173ffffffffffffffffffffffffffffffffffffffff021916908373ffffffffffffffffffffffffffffffffffffffff1602179055508173ffffffffffffffffffffffffffffffffffffffff168173ffffffffffffffffffffffffffffffffffffffff167f8be0079c531659141344cd1fd0a4f28419497f9722a3daafe3b4186f6b6457e060405160405180910390a35050565b600080fd5b600073ffffffffffffffffffffffffffffffffffffffff82169050919050565b60006200028a826200025d565b9050919050565b6200029c816200027d565b8114620002a857600080fd5b50565b600081519050620002bc8162000291565b92915050565b600080600080600060a08688031215620002e157620002e062000258565b5b6000620002f188828901620002ab565b95505060206200030488828901620002ab565b94505060406200031788828901620002ab565b93505060606200032a88828901620002ab565b92505060806200033d88828901620002ab565b9150509295509295909350565b60805160a05160c05160e05161010051613f896200044c600039600081816103c3015261070301526000818161120f015281816114d60152818161158d01528181611629015281816116ab01528181611e000152818161241301528181612435015261247b01526000818161072701528181612aad01528181612af80152612b4001526000818161077301528181611b6c0152818161226f01528181612d5601528181612e190152612e610152600081816110630152818161115c015281816117d901528181611d14015281816121ca0152818161232001528181612368015281816125ea01528181612926015281816129c50152612a0d0152613f896000f3fe6080604052600436106101025760003560e01c806381becd1611610095578063a0417bad11610064578063a0417bad146102e2578063dd512a751461030d578063ea26266c14610329578063f2fde38b14610354578063f5dab7111461037d57610109565b806381becd161461023a5780638456cb59146102635780638da5cb5b1461027a57806392f87d7b146102a557610109565b80635c975abb116100d15780635c975abb146101a45780636e6f7acc146101cf578063715018a6146101fa5780638082f5291461021157610109565b806310dab2471461010e5780632dd3100014610137578063328ad467146101625780633f4ba83a1461018d57610109565b3661010957005b600080fd5b34801561011a57600080fd5b50610135600480360381019061013091906131ed565b6103c1565b005b34801561014357600080fd5b5061014c610701565b6040516101599190613277565b60405180910390f35b34801561016e57600080fd5b50610177610725565b60405161018491906132f1565b60405180910390f35b34801561019957600080fd5b506101a2610749565b005b3480156101b057600080fd5b506101b961075b565b6040516101c69190613327565b60405180910390f35b3480156101db57600080fd5b506101e4610771565b6040516101f19190613363565b60405180910390f35b34801561020657600080fd5b5061020f610795565b005b34801561021d57600080fd5b50610238600480360381019061023391906133aa565b6107a9565b005b34801561024657600080fd5b50610261600480360381019061025c9190613437565b610b51565b005b34801561026f57600080fd5b50610278610e98565b005b34801561028657600080fd5b5061028f610eaa565b60405161029c9190613277565b60405180910390f35b3480156102b157600080fd5b506102cc60048036038101906102c791906134b2565b610ed3565b6040516102d99190613514565b60405180910390f35b3480156102ee57600080fd5b506102f761120d565b6040516103049190613550565b60405180910390f35b6103276004803603810190610322919061356b565b611231565b005b34801561033557600080fd5b5061033e6117d7565b60405161034b91906135f3565b60405180910390f35b34801561036057600080fd5b5061037b6004803603810190610376919061360e565b6117fb565b005b34801561038957600080fd5b506103a4600480360381019061039f919061360e565b61187e565b6040516103b898979695949392919061363b565b60405180910390f35b7f000000000000000000000000000000000000000000000000000000000000000073ffffffffffffffffffffffffffffffffffffffff163373ffffffffffffffffffffffffffffffffffffffff1614610446576040517f712a5d2f00000000000000000000000000000000000000000000000000000000815260040160405180910390fd5b6000600160008773ffffffffffffffffffffffffffffffffffffffff1673ffffffffffffffffffffffffffffffffffffffff1681526020019081526020016000206001015411806104d957506000600160008773ffffffffffffffffffffffffffffffffffffffff1673ffffffffffffffffffffffffffffffffffffffff16815260200190815260200160002060020154115b15610510576040517fcda6f41d00000000000000000000000000000000000000000000000000000000815260040160405180910390fd5b6000838361051e91906136e8565b90506040518061010001604052808673ffffffffffffffffffffffffffffffffffffffff16815260200160001515815260200185815260200184815260200184815260200183815260200183836105759190613759565b815260200182815250600160008873ffffffffffffffffffffffffffffffffffffffff1673ffffffffffffffffffffffffffffffffffffffff16815260200190815260200160002060008201518160000160006101000a81548173ffffffffffffffffffffffffffffffffffffffff021916908373ffffffffffffffffffffffffffffffffffffffff16021790555060208201518160000160146101000a81548160ff02191690831515021790555060408201518160010155606082015181600201556080820151816003015560a0820151816004015560c0820151816005015560e082015181600601559050506106903330868973ffffffffffffffffffffffffffffffffffffffff166118f3909392919063ffffffff16565b8473ffffffffffffffffffffffffffffffffffffffff168673ffffffffffffffffffffffffffffffffffffffff167fef7c6569756fc4b1c7163a3bc37317f9bc19650bd8395b3e44c08e646e403c4e8686866040516106f19392919061378a565b60405180910390a3505050505050565b7f000000000000000000000000000000000000000000000000000000000000000081565b7f000000000000000000000000000000000000000000000000000000000000000081565b61075161197c565b6107596119fa565b565b60008060149054906101000a900460ff16905090565b7f000000000000000000000000000000000000000000000000000000000000000081565b61079d61197c565b6107a76000611a5c565b565b6107b1611b20565b600085036107eb576040517fd4b4181a00000000000000000000000000000000000000000000000000000000815260040160405180910390fd5b600073ffffffffffffffffffffffffffffffffffffffff168273ffffffffffffffffffffffffffffffffffffffff1603610851576040517f0e10f72c00000000000000000000000000000000000000000000000000000000815260040160405180910390fd5b600073ffffffffffffffffffffffffffffffffffffffff168673ffffffffffffffffffffffffffffffffffffffff16036108b7576040517f9e95c2c900000000000000000000000000000000000000000000000000000000815260040160405180910390fd5b6000600160008873ffffffffffffffffffffffffffffffffffffffff1673ffffffffffffffffffffffffffffffffffffffff16815260200190815260200160002090508060000160149054906101000a900460ff1615610943576040517fe30187c600000000000000000000000000000000000000000000000000000000815260040160405180910390fd5b6000816001015414801561095b575060008160020154145b15610992576040517f8855e68800000000000000000000000000000000000000000000000000000000815260040160405180910390fd5b858773ffffffffffffffffffffffffffffffffffffffff166370a08231336040518263ffffffff1660e01b81526004016109cc9190613277565b602060405180830381865afa1580156109e9573d6000803e3d6000fd5b505050506040513d601f19601f82011682018060405250810190610a0d91906137d6565b1015610a45576040517fea4612f500000000000000000000000000000000000000000000000000000000815260040160405180910390fd5b600073ffffffffffffffffffffffffffffffffffffffff168473ffffffffffffffffffffffffffffffffffffffff1614610a8457610a838433611b6a565b5b6000610a94888888878688611bfb565b90508160000160009054906101000a900473ffffffffffffffffffffffffffffffffffffffff1673ffffffffffffffffffffffffffffffffffffffff168873ffffffffffffffffffffffffffffffffffffffff168573ffffffffffffffffffffffffffffffffffffffff167f3e07386be1093650503a0c73800e456e2691bac9734db3b880b25906f575be768a85876001015488600201546000604051610b3f959493929190613803565b60405180910390a45050505050505050565b610b59611b20565b60008403610b93576040517fd4b4181a00000000000000000000000000000000000000000000000000000000815260040160405180910390fd5b600073ffffffffffffffffffffffffffffffffffffffff168173ffffffffffffffffffffffffffffffffffffffff1603610bf9576040517f0e10f72c00000000000000000000000000000000000000000000000000000000815260040160405180910390fd5b600073ffffffffffffffffffffffffffffffffffffffff168573ffffffffffffffffffffffffffffffffffffffff1603610c5f576040517f9e95c2c900000000000000000000000000000000000000000000000000000000815260040160405180910390fd5b6000600160008773ffffffffffffffffffffffffffffffffffffffff1673ffffffffffffffffffffffffffffffffffffffff16815260200190815260200160002090508060000160149054906101000a900460ff1615610ceb576040517fe30187c600000000000000000000000000000000000000000000000000000000815260040160405180910390fd5b60008160010154148015610d03575060008160020154145b15610d3a576040517f8855e68800000000000000000000000000000000000000000000000000000000815260040160405180910390fd5b60008673ffffffffffffffffffffffffffffffffffffffff166370a08231306040518263ffffffff1660e01b8152600401610d759190613277565b602060405180830381865afa158015610d92573d6000803e3d6000fd5b505050506040513d601f19601f82011682018060405250810190610db691906137d6565b905084811015610df2576040517fc1b052f100000000000000000000000000000000000000000000000000000000815260040160405180910390fd5b610e81333088600160008c73ffffffffffffffffffffffffffffffffffffffff1673ffffffffffffffffffffffffffffffffffffffff16815260200190815260200160002060000160009054906101000a900473ffffffffffffffffffffffffffffffffffffffff1673ffffffffffffffffffffffffffffffffffffffff166118f3909392919063ffffffff16565b610e8f878787878787611e9d565b50505050505050565b610ea061197c565b610ea8611fbc565b565b60008060009054906101000a900473ffffffffffffffffffffffffffffffffffffffff16905090565b6000808303610f0e576040517fd4b4181a00000000000000000000000000000000000000000000000000000000815260040160405180910390fd5b600073ffffffffffffffffffffffffffffffffffffffff168473ffffffffffffffffffffffffffffffffffffffff1603610f74576040517f9e95c2c900000000000000000000000000000000000000000000000000000000815260040160405180910390fd5b6000600160008673ffffffffffffffffffffffffffffffffffffffff1673ffffffffffffffffffffffffffffffffffffffff16815260200190815260200160002090508060000160149054906101000a900460ff1615611000576040517fe30187c600000000000000000000000000000000000000000000000000000000815260040160405180910390fd5b6000816001015490506000826002015490506000821480156110225750600081145b15611059576040517f8855e68800000000000000000000000000000000000000000000000000000000815260040160405180910390fd5b84156111285760007f000000000000000000000000000000000000000000000000000000000000000073ffffffffffffffffffffffffffffffffffffffff166350059ebe886040518263ffffffff1660e01b81526004016110ba9190613514565b602060405180830381865afa1580156110d7573d6000803e3d6000fd5b505050506040513d601f19601f820116820180604052508101906110fb91906137d6565b876111069190613856565b905061111d8183858760050154886006015461201f565b508095505050611203565b611138868383866006015461207e565b9350600083600301548261114c9190613856565b90508085111561115a578094505b7f000000000000000000000000000000000000000000000000000000000000000073ffffffffffffffffffffffffffffffffffffffff166350059ebe866040518263ffffffff1660e01b81526004016111b39190613514565b602060405180830381865afa1580156111d0573d6000803e3d6000fd5b505050506040513d601f19601f820116820180604052508101906111f491906137d6565b856111ff9190613856565b9450505b5050509392505050565b7f000000000000000000000000000000000000000000000000000000000000000081565b611239611b20565b60003403611273576040517fd4b4181a00000000000000000000000000000000000000000000000000000000815260040160405180910390fd5b600073ffffffffffffffffffffffffffffffffffffffff168173ffffffffffffffffffffffffffffffffffffffff16036112d9576040517f0e10f72c00000000000000000000000000000000000000000000000000000000815260040160405180910390fd5b600073ffffffffffffffffffffffffffffffffffffffff168473ffffffffffffffffffffffffffffffffffffffff160361133f576040517f9e95c2c900000000000000000000000000000000000000000000000000000000815260040160405180910390fd5b6000600160008673ffffffffffffffffffffffffffffffffffffffff1673ffffffffffffffffffffffffffffffffffffffff16815260200190815260200160002090508060000160149054906101000a900460ff16156113cb576040517fe30187c600000000000000000000000000000000000000000000000000000000815260040160405180910390fd5b600081600101541480156113e3575060008160020154145b1561141a576040517f8855e68800000000000000000000000000000000000000000000000000000000815260040160405180910390fd5b60008573ffffffffffffffffffffffffffffffffffffffff166370a08231306040518263ffffffff1660e01b81526004016114559190613277565b602060405180830381865afa158015611472573d6000803e3d6000fd5b505050506040513d601f19601f8201168201806040525081019061149691906137d6565b9050848110156114d2576040517fc1b052f100000000000000000000000000000000000000000000000000000000815260040160405180910390fd5b60007f000000000000000000000000000000000000000000000000000000000000000073ffffffffffffffffffffffffffffffffffffffff16600160008973ffffffffffffffffffffffffffffffffffffffff1673ffffffffffffffffffffffffffffffffffffffff16815260200190815260200160002060000160009054906101000a900473ffffffffffffffffffffffffffffffffffffffff1673ffffffffffffffffffffffffffffffffffffffff160361178e5760007f000000000000000000000000000000000000000000000000000000000000000073ffffffffffffffffffffffffffffffffffffffff166370a08231306040518263ffffffff1660e01b81526004016115e49190613277565b602060405180830381865afa158015611601573d6000803e3d6000fd5b505050506040513d601f19601f8201168201806040525081019061162591906137d6565b90507f000000000000000000000000000000000000000000000000000000000000000073ffffffffffffffffffffffffffffffffffffffff1663d0e30db0346040518263ffffffff1660e01b81526004016000604051808303818588803b15801561168f57600080fd5b505af11580156116a3573d6000803e3d6000fd5b5050505050807f000000000000000000000000000000000000000000000000000000000000000073ffffffffffffffffffffffffffffffffffffffff166370a08231306040518263ffffffff1660e01b81526004016117029190613277565b602060405180830381865afa15801561171f573d6000803e3d6000fd5b505050506040513d601f19601f8201168201806040525081019061174391906137d6565b61174d9190613856565b9150348214611788576040517feef536f400000000000000000000000000000000000000000000000000000000815260040160405180910390fd5b506117c0565b6040517ff7d8316700000000000000000000000000000000000000000000000000000000815260040160405180910390fd5b6117ce878288888888611e9d565b50505050505050565b7f000000000000000000000000000000000000000000000000000000000000000081565b61180361197c565b600073ffffffffffffffffffffffffffffffffffffffff168173ffffffffffffffffffffffffffffffffffffffff1603611872576040517f08c379a00000000000000000000000000000000000000000000000000000000081526004016118699061390d565b60405180910390fd5b61187b81611a5c565b50565b60016020528060005260406000206000915090508060000160009054906101000a900473ffffffffffffffffffffffffffffffffffffffff16908060000160149054906101000a900460ff16908060010154908060020154908060030154908060040154908060050154908060060154905088565b611976846323b872dd60e01b8585856040516024016119149392919061392d565b604051602081830303815290604052907bffffffffffffffffffffffffffffffffffffffffffffffffffffffff19166020820180517bffffffffffffffffffffffffffffffffffffffffffffffffffffffff83818316178352505050506120ac565b50505050565b611984612174565b73ffffffffffffffffffffffffffffffffffffffff166119a2610eaa565b73ffffffffffffffffffffffffffffffffffffffff16146119f8576040517f08c379a00000000000000000000000000000000000000000000000000000000081526004016119ef906139b0565b60405180910390fd5b565b611a0261217c565b60008060146101000a81548160ff0219169083151502179055507f5db9ee0a495bf2e6ff9c91a7834c1ba4fdd244a5e8aa4e537bd38aeae4b073aa611a45612174565b604051611a529190613277565b60405180910390a1565b60008060009054906101000a900473ffffffffffffffffffffffffffffffffffffffff169050816000806101000a81548173ffffffffffffffffffffffffffffffffffffffff021916908373ffffffffffffffffffffffffffffffffffffffff1602179055508173ffffffffffffffffffffffffffffffffffffffff168173ffffffffffffffffffffffffffffffffffffffff167f8be0079c531659141344cd1fd0a4f28419497f9722a3daafe3b4186f6b6457e060405160405180910390a35050565b611b2861075b565b15611b68576040517f08c379a0000000000000000000000000000000000000000000000000000000008152600401611b5f90613a1c565b60405180910390fd5b565b7f000000000000000000000000000000000000000000000000000000000000000073ffffffffffffffffffffffffffffffffffffffff16637543e3f083836040518363ffffffff1660e01b8152600401611bc5929190613a3c565b600060405180830381600087803b158015611bdf57600080fd5b505af1158015611bf3573d6000803e3d6000fd5b505050505050565b6000808360000160009054906101000a900473ffffffffffffffffffffffffffffffffffffffff1690506000846002015490506000611c4489876001015484896006015461207e565b90506000866003015483611c589190613856565b905060008203611c94576040517fd4b4181a00000000000000000000000000000000000000000000000000000000815260040160405180910390fd5b80821115611ca0578091505b88821015611cda576040517fd07c3ce600000000000000000000000000000000000000000000000000000000815260040160405180910390fd5b81876002016000828254611cee9190613856565b9250508190555089876001016000828254611d099190613a65565b9250508190555060007f000000000000000000000000000000000000000000000000000000000000000073ffffffffffffffffffffffffffffffffffffffff166350059ebe846040518263ffffffff1660e01b8152600401611d6b9190613514565b602060405180830381865afa158015611d88573d6000803e3d6000fd5b505050506040513d601f19601f82011682018060405250810190611dac91906137d6565b90508083611dba9190613856565b9550611dc78533856121c5565b5050611df633308d8f73ffffffffffffffffffffffffffffffffffffffff166118f3909392919063ffffffff16565b868015611e4e57507f000000000000000000000000000000000000000000000000000000000000000073ffffffffffffffffffffffffffffffffffffffff168573ffffffffffffffffffffffffffffffffffffffff16145b15611e6257611e5d8987612409565b611e8e565b611e8d89878773ffffffffffffffffffffffffffffffffffffffff1661255d9092919063ffffffff16565b5b50505050509695505050505050565b600073ffffffffffffffffffffffffffffffffffffffff168373ffffffffffffffffffffffffffffffffffffffff1614611edc57611edb8333611b6a565b5b600080611eec88888887876125e3565b915091508260000160009054906101000a900473ffffffffffffffffffffffffffffffffffffffff1673ffffffffffffffffffffffffffffffffffffffff168873ffffffffffffffffffffffffffffffffffffffff168573ffffffffffffffffffffffffffffffffffffffff167f3e07386be1093650503a0c73800e456e2691bac9734db3b880b25906f575be76858b886001015489600201546001604051611f99959493929190613803565b60405180910390a48015611fb257611fb1888461287f565b5b5050505050505050565b611fc4611b20565b6001600060146101000a81548160ff0219169083151502179055507f62e78cea01bee320cd4e420270b5ea74000d11b0c9f74754ebdbfc544b05a258612008612174565b6040516120159190613277565b60405180910390a1565b600080600087876120309190613a65565b8461203b9190613759565b866120469190613856565b905084866120549190613856565b8110159150816120645780612071565b84866120709190613856565b5b9250509550959350505050565b6000848461208c9190613a65565b826120979190613759565b836120a29190613856565b9050949350505050565b600061210e826040518060400160405280602081526020017f5361666545524332303a206c6f772d6c6576656c2063616c6c206661696c65648152508573ffffffffffffffffffffffffffffffffffffffff16612bea9092919063ffffffff16565b905060008151148061213057508080602001905181019061212f9190613aae565b5b61216f576040517f08c379a000000000000000000000000000000000000000000000000000000000815260040161216690613b4d565b60405180910390fd5b505050565b600033905090565b61218461075b565b6121c3576040517f08c379a00000000000000000000000000000000000000000000000000000000081526004016121ba90613bb9565b60405180910390fd5b565b6000807f000000000000000000000000000000000000000000000000000000000000000073ffffffffffffffffffffffffffffffffffffffff166350059ebe846040518263ffffffff1660e01b81526004016122219190613514565b602060405180830381865afa15801561223e573d6000803e3d6000fd5b505050506040513d601f19601f8201168201806040525081019061226291906137d6565b91506000821115612401577f000000000000000000000000000000000000000000000000000000000000000073ffffffffffffffffffffffffffffffffffffffff16639af6e50585846040518363ffffffff1660e01b81526004016122c8929190613bd9565b602060405180830381865afa1580156122e5573d6000803e3d6000fd5b505050506040513d601f19601f8201168201806040525081019061230991906137d6565b9050600081836123199190613856565b90506123667f0000000000000000000000000000000000000000000000000000000000000000828873ffffffffffffffffffffffffffffffffffffffff16612c029092919063ffffffff16565b7f000000000000000000000000000000000000000000000000000000000000000073ffffffffffffffffffffffffffffffffffffffff16635a4a2d6b87836040518363ffffffff1660e01b81526004016123c1929190613bd9565b600060405180830381600087803b1580156123db57600080fd5b505af11580156123ef573d6000803e3d6000fd5b505050506123fe858785612d51565b50505b935093915050565b60004790506124797f0000000000000000000000000000000000000000000000000000000000000000837f000000000000000000000000000000000000000000000000000000000000000073ffffffffffffffffffffffffffffffffffffffff16612c029092919063ffffffff16565b7f000000000000000000000000000000000000000000000000000000000000000073ffffffffffffffffffffffffffffffffffffffff16632e1a7d4d836040518263ffffffff1660e01b81526004016124d29190613514565b600060405180830381600087803b1580156124ec57600080fd5b505af1158015612500573d6000803e3d6000fd5b50505050600081476125129190613856565b905082811461254d576040517feef536f400000000000000000000000000000000000000000000000000000000815260040160405180910390fd5b6125578484612ef7565b50505050565b6125de8363a9059cbb60e01b848460405160240161257c929190613bd9565b604051602081830303815290604052907bffffffffffffffffffffffffffffffffffffffffffffffffffffffff19166020820180517bffffffffffffffffffffffffffffffffffffffffffffffffffffffff83818316178352505050506120ac565b505050565b60008060007f000000000000000000000000000000000000000000000000000000000000000073ffffffffffffffffffffffffffffffffffffffff166350059ebe886040518263ffffffff1660e01b81526004016126419190613514565b602060405180830381865afa15801561265e573d6000803e3d6000fd5b505050506040513d601f19601f8201168201806040525081019061268291906137d6565b9050600081886126929190613856565b90506000856002015490506000806126b984848a600101548b600501548c6006015461201f565b91509150600082036126f7576040517fd4b4181a00000000000000000000000000000000000000000000000000000000815260040160405180910390fd5b89821015612731576040517fd07c3ce600000000000000000000000000000000000000000000000000000000815260040160405180910390fd5b6000811561277a57600085856127479190613a65565b905060008a600401549050808211156127775780826127669190613856565b925082876127749190613856565b96505b50505b8489600201600082825461278e9190613a65565b92505081905550828960010160008282546127a99190613856565b925050819055506127df8960000160009054906101000a900473ffffffffffffffffffffffffffffffffffffffff16338e6121c5565b505061280c8a848f73ffffffffffffffffffffffffffffffffffffffff1661255d9092919063ffffffff16565b6000811115612865576128648a828b60000160009054906101000a900473ffffffffffffffffffffffffffffffffffffffff1673ffffffffffffffffffffffffffffffffffffffff1661255d9092919063ffffffff16565b5b828280985081995050505050505050509550959350505050565b60008160010154905060008260030154836002015461289e9190613856565b905060008360000160009054906101000a900473ffffffffffffffffffffffffffffffffffffffff16905060018460000160146101000a81548160ff02191690831515021790555060008460020181905550600084600101819055506000846003018190555060008460040181905550600084600501819055506000846006018190555060007f000000000000000000000000000000000000000000000000000000000000000073ffffffffffffffffffffffffffffffffffffffff16630e95ea37846040518263ffffffff1660e01b815260040161297d9190613514565b602060405180830381865afa15801561299a573d6000803e3d6000fd5b505050506040513d601f19601f820116820180604052508101906129be91906137d6565b9050612a0b7f0000000000000000000000000000000000000000000000000000000000000000828473ffffffffffffffffffffffffffffffffffffffff16612c029092919063ffffffff16565b7f000000000000000000000000000000000000000000000000000000000000000073ffffffffffffffffffffffffffffffffffffffff16638987166d83856040518363ffffffff1660e01b8152600401612a66929190613bd9565b600060405180830381600087803b158015612a8057600080fd5b505af1158015612a94573d6000803e3d6000fd5b5050505060008184612aa69190613856565b9050612af37f0000000000000000000000000000000000000000000000000000000000000000868973ffffffffffffffffffffffffffffffffffffffff16612c029092919063ffffffff16565b612b3e7f0000000000000000000000000000000000000000000000000000000000000000828573ffffffffffffffffffffffffffffffffffffffff16612c029092919063ffffffff16565b7f000000000000000000000000000000000000000000000000000000000000000073ffffffffffffffffffffffffffffffffffffffff1663e2e41430888584896040518563ffffffff1660e01b8152600401612b9d9493929190613c02565b6020604051808303816000875af1158015612bbc573d6000803e3d6000fd5b505050506040513d601f19601f82011682018060405250810190612be09190613c5c565b5050505050505050565b6060612bf98484600085612f9f565b90509392505050565b6000811480612c8c575060008373ffffffffffffffffffffffffffffffffffffffff1663dd62ed3e30856040518363ffffffff1660e01b8152600401612c49929190613a3c565b602060405180830381865afa158015612c66573d6000803e3d6000fd5b505050506040513d601f19601f82011682018060405250810190612c8a91906137d6565b145b612ccb576040517f08c379a0000000000000000000000000000000000000000000000000000000008152600401612cc290613cfb565b60405180910390fd5b612d4c8363095ea7b360e01b8484604051602401612cea929190613bd9565b604051602081830303815290604052907bffffffffffffffffffffffffffffffffffffffffffffffffffffffff19166020820180517bffffffffffffffffffffffffffffffffffffffffffffffffffffffff83818316178352505050506120ac565b505050565b6000807f000000000000000000000000000000000000000000000000000000000000000073ffffffffffffffffffffffffffffffffffffffff16633738c568866040518263ffffffff1660e01b8152600401612dad9190613277565b602060405180830381865afa158015612dca573d6000803e3d6000fd5b505050506040513d601f19601f82011682018060405250810190612dee91906137d6565b90506000811115612eef576127108184612e0891906136e8565b612e129190613759565b9150612e5f7f0000000000000000000000000000000000000000000000000000000000000000838673ffffffffffffffffffffffffffffffffffffffff16612c029092919063ffffffff16565b7f000000000000000000000000000000000000000000000000000000000000000073ffffffffffffffffffffffffffffffffffffffff1663cfc06a8b8686856040518463ffffffff1660e01b8152600401612ebc9392919061392d565b600060405180830381600087803b158015612ed657600080fd5b505af1158015612eea573d6000803e3d6000fd5b505050505b509392505050565b60008273ffffffffffffffffffffffffffffffffffffffff1682604051612f1d90613d4c565b60006040518083038185875af1925050503d8060008114612f5a576040519150601f19603f3d011682016040523d82523d6000602084013e612f5f565b606091505b5050905080612f9a576040517fa9ea563000000000000000000000000000000000000000000000000000000000815260040160405180910390fd5b505050565b606082471015612fe4576040517f08c379a0000000000000000000000000000000000000000000000000000000008152600401612fdb90613dd3565b60405180910390fd5b6000808673ffffffffffffffffffffffffffffffffffffffff16858760405161300d9190613e59565b60006040518083038185875af1925050503d806000811461304a576040519150601f19603f3d011682016040523d82523d6000602084013e61304f565b606091505b50915091506130608783838761306c565b92505050949350505050565b606083156130ce5760008351036130c657613086856130e1565b6130c5576040517f08c379a00000000000000000000000000000000000000000000000000000000081526004016130bc90613ebc565b60405180910390fd5b5b8290506130d9565b6130d88383613104565b5b949350505050565b6000808273ffffffffffffffffffffffffffffffffffffffff163b119050919050565b6000825111156131175781518083602001fd5b806040517f08c379a000000000000000000000000000000000000000000000000000000000815260040161314b9190613f31565b60405180910390fd5b600080fd5b600073ffffffffffffffffffffffffffffffffffffffff82169050919050565b600061318482613159565b9050919050565b61319481613179565b811461319f57600080fd5b50565b6000813590506131b18161318b565b92915050565b6000819050919050565b6131ca816131b7565b81146131d557600080fd5b50565b6000813590506131e7816131c1565b92915050565b600080600080600060a0868803121561320957613208613154565b5b6000613217888289016131a2565b9550506020613228888289016131a2565b9450506040613239888289016131d8565b935050606061324a888289016131d8565b925050608061325b888289016131d8565b9150509295509295909350565b61327181613179565b82525050565b600060208201905061328c6000830184613268565b92915050565b6000819050919050565b60006132b76132b26132ad84613159565b613292565b613159565b9050919050565b60006132c98261329c565b9050919050565b60006132db826132be565b9050919050565b6132eb816132d0565b82525050565b600060208201905061330660008301846132e2565b92915050565b60008115159050919050565b6133218161330c565b82525050565b600060208201905061333c6000830184613318565b92915050565b600061334d826132be565b9050919050565b61335d81613342565b82525050565b60006020820190506133786000830184613354565b92915050565b6133878161330c565b811461339257600080fd5b50565b6000813590506133a48161337e565b92915050565b60008060008060008060c087890312156133c7576133c6613154565b5b60006133d589828a016131a2565b96505060206133e689828a016131d8565b95505060406133f789828a016131d8565b945050606061340889828a016131a2565b935050608061341989828a016131a2565b92505060a061342a89828a01613395565b9150509295509295509295565b600080600080600060a0868803121561345357613452613154565b5b6000613461888289016131a2565b9550506020613472888289016131d8565b9450506040613483888289016131d8565b9350506060613494888289016131a2565b92505060806134a5888289016131a2565b9150509295509295909350565b6000806000606084860312156134cb576134ca613154565b5b60006134d9868287016131a2565b93505060206134ea868287016131d8565b92505060406134fb86828701613395565b9150509250925092565b61350e816131b7565b82525050565b60006020820190506135296000830184613505565b92915050565b600061353a826132be565b9050919050565b61354a8161352f565b82525050565b60006020820190506135656000830184613541565b92915050565b6000806000806080858703121561358557613584613154565b5b6000613593878288016131a2565b94505060206135a4878288016131d8565b93505060406135b5878288016131a2565b92505060606135c6878288016131a2565b91505092959194509250565b60006135dd826132be565b9050919050565b6135ed816135d2565b82525050565b600060208201905061360860008301846135e4565b92915050565b60006020828403121561362457613623613154565b5b6000613632848285016131a2565b91505092915050565b600061010082019050613651600083018b613268565b61365e602083018a613318565b61366b6040830189613505565b6136786060830188613505565b6136856080830187613505565b61369260a0830186613505565b61369f60c0830185613505565b6136ac60e0830184613505565b9998505050505050505050565b7f4e487b7100000000000000000000000000000000000000000000000000000000600052601160045260246000fd5b60006136f3826131b7565b91506136fe836131b7565b925082820261370c816131b7565b91508282048414831517613723576137226136b9565b5b5092915050565b7f4e487b7100000000000000000000000000000000000000000000000000000000600052601260045260246000fd5b6000613764826131b7565b915061376f836131b7565b92508261377f5761377e61372a565b5b828204905092915050565b600060608201905061379f6000830186613505565b6137ac6020830185613505565b6137b96040830184613505565b949350505050565b6000815190506137d0816131c1565b92915050565b6000602082840312156137ec576137eb613154565b5b60006137fa848285016137c1565b91505092915050565b600060a0820190506138186000830188613505565b6138256020830187613505565b6138326040830186613505565b61383f6060830185613505565b61384c6080830184613318565b9695505050505050565b6000613861826131b7565b915061386c836131b7565b9250828203905081811115613884576138836136b9565b5b92915050565b600082825260208201905092915050565b7f4f776e61626c653a206e6577206f776e657220697320746865207a65726f206160008201527f6464726573730000000000000000000000000000000000000000000000000000602082015250565b60006138f760268361388a565b91506139028261389b565b604082019050919050565b60006020820190508181036000830152613926816138ea565b9050919050565b60006060820190506139426000830186613268565b61394f6020830185613268565b61395c6040830184613505565b949350505050565b7f4f776e61626c653a2063616c6c6572206973206e6f7420746865206f776e6572600082015250565b600061399a60208361388a565b91506139a582613964565b602082019050919050565b600060208201905081810360008301526139c98161398d565b9050919050565b7f5061757361626c653a2070617573656400000000000000000000000000000000600082015250565b6000613a0660108361388a565b9150613a11826139d0565b602082019050919050565b60006020820190508181036000830152613a35816139f9565b9050919050565b6000604082019050613a516000830185613268565b613a5e6020830184613268565b9392505050565b6000613a70826131b7565b9150613a7b836131b7565b9250828201905080821115613a9357613a926136b9565b5b92915050565b600081519050613aa88161337e565b92915050565b600060208284031215613ac457613ac3613154565b5b6000613ad284828501613a99565b91505092915050565b7f5361666545524332303a204552433230206f7065726174696f6e20646964206e60008201527f6f74207375636365656400000000000000000000000000000000000000000000602082015250565b6000613b37602a8361388a565b9150613b4282613adb565b604082019050919050565b60006020820190508181036000830152613b6681613b2a565b9050919050565b7f5061757361626c653a206e6f7420706175736564000000000000000000000000600082015250565b6000613ba360148361388a565b9150613bae82613b6d565b602082019050919050565b60006020820190508181036000830152613bd281613b96565b9050919050565b6000604082019050613bee6000830185613268565b613bfb6020830184613505565b9392505050565b6000608082019050613c176000830187613268565b613c246020830186613268565b613c316040830185613505565b613c3e6060830184613505565b95945050505050565b600081519050613c568161318b565b92915050565b600060208284031215613c7257613c71613154565b5b6000613c8084828501613c47565b91505092915050565b7f5361666545524332303a20617070726f76652066726f6d206e6f6e2d7a65726f60008201527f20746f206e6f6e2d7a65726f20616c6c6f77616e636500000000000000000000602082015250565b6000613ce560368361388a565b9150613cf082613c89565b604082019050919050565b60006020820190508181036000830152613d1481613cd8565b9050919050565b600081905092915050565b50565b6000613d36600083613d1b565b9150613d4182613d26565b600082019050919050565b6000613d5782613d29565b9150819050919050565b7f416464726573733a20696e73756666696369656e742062616c616e636520666f60008201527f722063616c6c0000000000000000000000000000000000000000000000000000602082015250565b6000613dbd60268361388a565b9150613dc882613d61565b604082019050919050565b60006020820190508181036000830152613dec81613db0565b9050919050565b600081519050919050565b60005b83811015613e1c578082015181840152602081019050613e01565b60008484015250505050565b6000613e3382613df3565b613e3d8185613d1b565b9350613e4d818560208601613dfe565b80840191505092915050565b6000613e658284613e28565b915081905092915050565b7f416464726573733a2063616c6c20746f206e6f6e2d636f6e7472616374000000600082015250565b6000613ea6601d8361388a565b9150613eb182613e70565b602082019050919050565b60006020820190508181036000830152613ed581613e99565b9050919050565b600081519050919050565b6000601f19601f8301169050919050565b6000613f0382613edc565b613f0d818561388a565b9350613f1d818560208601613dfe565b613f2681613ee7565b840191505092915050565b60006020820190508181036000830152613f4b8184613ef8565b90509291505056fea2646970667358221220187d22aed22b0d9344dc4d0760628316a633a01c8e792c945cd493cf05130ee664736f6c63430008130033","linkReferences":{}},"methodIdentifiers":{"FACTORY()":"2dd31000","FEE_MANAGER()":"ea26266c","LIQUIDITY_MANAGER()":"328ad467","REFERRAL_MANAGER()":"6e6f7acc","WBERA()":"a0417bad","buy(address,uint256,uint256,address,address)":"81becd16","buyNative(address,uint256,address,address)":"dd512a75","owner()":"8da5cb5b","pause()":"8456cb59","paused()":"5c975abb","quote(address,uint256,bool)":"92f87d7b","registerToken(address,address,uint256,uint256,uint256)":"10dab247","renounceOwnership()":"715018a6","sell(address,uint256,uint256,address,address,bool)":"8082f529","tokenInfo(address)":"f5dab711","transferOwnership(address)":"f2fde38b","unpause()":"3f4ba83a"},"id":4}