{"abi":[{"type":"constructor","inputs":[{"name":"_directRefFeeBps","type":"uint256","internalType":"uint256"},{"name":"_indirectRefFeeBps","type":"uint256","internalType":"uint256"},{"name":"_validUntil","type":"uint256","internalType":"uint256"},{"name":"tokens","type":"address[]","internalType":"address[]"},{"name":"_payoutThresholds","type":"uint256[]","internalType":"uint256[]"}],"stateMutability":"nonpayable"},{"type":"function","name":"MAX_FEE_BPS","inputs":[],"outputs":[{"name":"","type":"uint256","internalType":"uint256"}],"stateMutability":"view"},{"type":"function","name":"claimReferralReward","inputs":[{"name":"token","type":"address","internalType":"address"}],"outputs":[],"stateMutability":"nonpayable"},{"type":"function","name":"directRefFeeBps","inputs":[],"outputs":[{"name":"","type":"uint256","internalType":"uint256"}],"stateMutability":"view"},{"type":"function","name":"getReferralBpsFor","inputs":[{"name":"user","type":"address","internalType":"address"}],"outputs":[{"name":"totalReferralBps","type":"uint256","internalType":"uint256"}],"stateMutability":"view"},{"type":"function","name":"getReferralRewardFor","inputs":[{"name":"user","type":"address","internalType":"address"},{"name":"token","type":"address","internalType":"address"}],"outputs":[{"name":"reward","type":"uint256","internalType":"uint256"}],"stateMutability":"view"},{"type":"function","name":"indirectRefFeeBps","inputs":[],"outputs":[{"name":"","type":"uint256","internalType":"uint256"}],"stateMutability":"view"},{"type":"function","name":"indirectReferral","inputs":[{"name":"","type":"address","internalType":"address"}],"outputs":[{"name":"","type":"address","internalType":"address"}],"stateMutability":"view"},{"type":"function","name":"owner","inputs":[],"outputs":[{"name":"","type":"address","internalType":"address"}],"stateMutability":"view"},{"type":"function","name":"payoutThreshold","inputs":[{"name":"","type":"address","internalType":"address"}],"outputs":[{"name":"","type":"uint256","internalType":"uint256"}],"stateMutability":"view"},{"type":"function","name":"quoteReferralFee","inputs":[{"name":"user","type":"address","internalType":"address"},{"name":"amount","type":"uint256","internalType":"uint256"}],"outputs":[{"name":"referralFee","type":"uint256","internalType":"uint256"}],"stateMutability":"view"},{"type":"function","name":"receiveReferral","inputs":[{"name":"user","type":"address","internalType":"address"},{"name":"token","type":"address","internalType":"address"},{"name":"amount","type":"uint256","internalType":"uint256"}],"outputs":[],"stateMutability":"nonpayable"},{"type":"function","name":"referredBy","inputs":[{"name":"","type":"address","internalType":"address"}],"outputs":[{"name":"","type":"address","internalType":"address"}],"stateMutability":"view"},{"type":"function","name":"renounceOwnership","inputs":[],"outputs":[],"stateMutability":"nonpayable"},{"type":"function","name":"setDirectRefFeeBps","inputs":[{"name":"directRefFeeBps_","type":"uint256","internalType":"uint256"}],"outputs":[],"stateMutability":"nonpayable"},{"type":"function","name":"setIndirectRefFeeBps","inputs":[{"name":"indirectRefFeeBps_","type":"uint256","internalType":"uint256"}],"outputs":[],"stateMutability":"nonpayable"},{"type":"function","name":"setPayoutThreshold","inputs":[{"name":"tokens","type":"address[]","internalType":"address[]"},{"name":"thresholds","type":"uint256[]","internalType":"uint256[]"}],"outputs":[],"stateMutability":"nonpayable"},{"type":"function","name":"setReferral","inputs":[{"name":"referrer","type":"address","internalType":"address"},{"name":"user","type":"address","internalType":"address"}],"outputs":[],"stateMutability":"nonpayable"},{"type":"function","name":"setValidUntil","inputs":[{"name":"validUntil_","type":"uint256","internalType":"uint256"}],"outputs":[],"stateMutability":"nonpayable"},{"type":"function","name":"setWhitelistedVault","inputs":[{"name":"vault","type":"address","internalType":"address"},{"name":"enable","type":"bool","internalType":"bool"}],"outputs":[],"stateMutability":"nonpayable"},{"type":"function","name":"transferOwnership","inputs":[{"name":"newOwner","type":"address","internalType":"address"}],"outputs":[],"stateMutability":"nonpayable"},{"type":"function","name":"validUntil","inputs":[],"outputs":[{"name":"","type":"uint256","internalType":"uint256"}],"stateMutability":"view"},{"type":"function","name":"whitelistedVault","inputs":[{"name":"","type":"address","internalType":"address"}],"outputs":[{"name":"","type":"bool","internalType":"bool"}],"stateMutability":"view"},{"type":"event","name":"DirectRefFeeBpsSet","inputs":[{"name":"directRefFeeBps","type":"uint256","indexed":false,"internalType":"uint256"}],"anonymous":false},{"type":"event","name":"IndirectRefFeeBpsSet","inputs":[{"name":"indirectRefFeeBps","type":"uint256","indexed":false,"internalType":"uint256"}],"anonymous":false},{"type":"event","name":"IndirectReferralSet","inputs":[{"name":"indirectReferrer","type":"address","indexed":true,"internalType":"address"},{"name":"referredUser","type":"address","indexed":true,"internalType":"address"},{"name":"directReferrer","type":"address","indexed":true,"internalType":"address"}],"anonymous":false},{"type":"event","name":"OwnershipTransferred","inputs":[{"name":"previousOwner","type":"address","indexed":true,"internalType":"address"},{"name":"newOwner","type":"address","indexed":true,"internalType":"address"}],"anonymous":false},{"type":"event","name":"PayoutThresholdSet","inputs":[{"name":"token","type":"address","indexed":false,"internalType":"address"},{"name":"payoutThreshold","type":"uint256","indexed":false,"internalType":"uint256"}],"anonymous":false},{"type":"event","name":"ReferralDeadlineSet","inputs":[{"name":"validUntil","type":"uint256","indexed":false,"internalType":"uint256"}],"anonymous":false},{"type":"event","name":"ReferralPaidOut","inputs":[{"name":"referrer","type":"address","indexed":true,"internalType":"address"},{"name":"token","type":"address","indexed":true,"internalType":"address"},{"name":"reward","type":"uint256","indexed":false,"internalType":"uint256"}],"anonymous":false},{"type":"event","name":"ReferralRewardReceived","inputs":[{"name":"referrer","type":"address","indexed":true,"internalType":"address"},{"name":"referredUser","type":"address","indexed":true,"internalType":"address"},{"name":"token","type":"address","indexed":true,"internalType":"address"},{"name":"reward","type":"uint256","indexed":false,"internalType":"uint256"},{"name":"isDirect","type":"bool","indexed":false,"internalType":"bool"}],"anonymous":false},{"type":"event","name":"ReferralSet","inputs":[{"name":"referrer","type":"address","indexed":true,"internalType":"address"},{"name":"referredUser","type":"address","indexed":true,"internalType":"address"}],"anonymous":false},{"type":"event","name":"WhitelistedVaultSet","inputs":[{"name":"vault","type":"address","indexed":true,"internalType":"address"},{"name":"status","type":"bool","indexed":false,"internalType":"bool"}],"anonymous":false},{"type":"error","name":"ReferralManager_AddressZero","inputs":[]},{"type":"error","name":"ReferralManager_ArrayLengthMismatch","inputs":[]},{"type":"error","name":"ReferralManager_PayoutBelowThreshold","inputs":[]},{"type":"error","name":"ReferralManager_ReferralExpired","inputs":[]},{"type":"error","name":"ReferralManager_RewardTransferFailed","inputs":[]},{"type":"error","name":"ReferralManager_Unauthorised","inputs":[]},{"type":"error","name":"ReferralManager_ZeroPayout","inputs":[]}],"bytecode":{"object":"0x60806040523480156200001157600080fd5b5060405162002fa738038062002fa7833981810160405281019062000037919062000646565b620000576200004b6200027b60201b60201c565b6200028360201b60201c565b8460018190555083600281905550826003819055506000825190506000811115620001c45781518114620000b7576040517f857e551e00000000000000000000000000000000000000000000000000000000815260040160405180910390fd5b60005b81811015620001c257828181518110620000d957620000d86200070c565b5b602002602001015160076000868481518110620000fb57620000fa6200070c565b5b602002602001015173ffffffffffffffffffffffffffffffffffffffff1673ffffffffffffffffffffffffffffffffffffffff168152602001908152602001600020819055507f547b0659e7066436f168688a6dd53fe9b0cb09b76669ee2db1476843f0396c468482815181106200017857620001776200070c565b5b60200260200101518483815181106200019657620001956200070c565b5b6020026020010151604051620001ae9291906200075d565b60405180910390a1806001019050620000ba565b505b7fed31881d9e2b9592f80248887b74b649a50dddddf07281e6894e563c623927b286604051620001f591906200078a565b60405180910390a17f33fec5ede33e3dbeaa134dabccf9b4843529f06f3460160e8910637e7a13c1b6856040516200022e91906200078a565b60405180910390a17fc4960e28b441d32786166ce7e1ed2a4527a0e4b27a65f5cdc539a7b2a2683d2a846040516200026791906200078a565b60405180910390a1505050505050620007a7565b600033905090565b60008060009054906101000a900473ffffffffffffffffffffffffffffffffffffffff169050816000806101000a81548173ffffffffffffffffffffffffffffffffffffffff021916908373ffffffffffffffffffffffffffffffffffffffff1602179055508173ffffffffffffffffffffffffffffffffffffffff168173ffffffffffffffffffffffffffffffffffffffff167f8be0079c531659141344cd1fd0a4f28419497f9722a3daafe3b4186f6b6457e060405160405180910390a35050565b6000604051905090565b600080fd5b600080fd5b6000819050919050565b62000370816200035b565b81146200037c57600080fd5b50565b600081519050620003908162000365565b92915050565b600080fd5b6000601f19601f8301169050919050565b7f4e487b7100000000000000000000000000000000000000000000000000000000600052604160045260246000fd5b620003e6826200039b565b810181811067ffffffffffffffff82111715620004085762000407620003ac565b5b80604052505050565b60006200041d62000347565b90506200042b8282620003db565b919050565b600067ffffffffffffffff8211156200044e576200044d620003ac565b5b602082029050602081019050919050565b600080fd5b600073ffffffffffffffffffffffffffffffffffffffff82169050919050565b6000620004918262000464565b9050919050565b620004a38162000484565b8114620004af57600080fd5b50565b600081519050620004c38162000498565b92915050565b6000620004e0620004da8462000430565b62000411565b905080838252602082019050602084028301858111156200050657620005056200045f565b5b835b818110156200053357806200051e8882620004b2565b84526020840193505060208101905062000508565b5050509392505050565b600082601f83011262000555576200055462000396565b5b815162000567848260208601620004c9565b91505092915050565b600067ffffffffffffffff8211156200058e576200058d620003ac565b5b602082029050602081019050919050565b6000620005b6620005b08462000570565b62000411565b90508083825260208201905060208402830185811115620005dc57620005db6200045f565b5b835b81811015620006095780620005f488826200037f565b845260208401935050602081019050620005de565b5050509392505050565b600082601f8301126200062b576200062a62000396565b5b81516200063d8482602086016200059f565b91505092915050565b600080600080600060a0868803121562000665576200066462000351565b5b600062000675888289016200037f565b955050602062000688888289016200037f565b94505060406200069b888289016200037f565b935050606086015167ffffffffffffffff811115620006bf57620006be62000356565b5b620006cd888289016200053d565b925050608086015167ffffffffffffffff811115620006f157620006f062000356565b5b620006ff8882890162000613565b9150509295509295909350565b7f4e487b7100000000000000000000000000000000000000000000000000000000600052603260045260246000fd5b620007468162000484565b82525050565b62000757816200035b565b82525050565b60006040820190506200077460008301856200073b565b6200078360208301846200074c565b9392505050565b6000602082019050620007a160008301846200074c565b92915050565b6127f080620007b76000396000f3fe608060405234801561001057600080fd5b50600436106101425760003560e01c80639e65d826116100b8578063d55be8c61161007c578063d55be8c614610371578063dd7f2f221461038f578063ddac6654146103bf578063e0d30403146103dd578063f1bfe9a5146103fb578063f2fde38b1461041757610142565b80639e65d826146102bb578063a90f8e9a146102d9578063c599a31714610309578063cdc98fcf14610325578063cfc06a8b1461035557610142565b8063634099cc1161010a578063634099cc1461020f578063674cc5f61461022b578063715018a6146102475780637543e3f0146102515780638da5cb5b1461026d5780639af6e5051461028b57610142565b80632a74e29a146101475780633738c568146101775780634fa5c3df146101a7578063508e578c146101d757806361929d8a146101f3575b600080fd5b610161600480360381019061015c9190611e54565b610433565b60405161016e9190611e90565b60405180910390f35b610191600480360381019061018c9190611e54565b610466565b60405161019e9190611ec4565b60405180910390f35b6101c160048036038101906101bc9190611e54565b6105c0565b6040516101ce9190611ec4565b60405180910390f35b6101f160048036038101906101ec9190611f0b565b6105d8565b005b61020d60048036038101906102089190611e54565b610623565b005b61022960048036038101906102249190611f0b565b6108d3565b005b61024560048036038101906102409190611ff3565b61091e565b005b61024f610b12565b005b61026b60048036038101906102669190612074565b610b26565b005b610275610f10565b6040516102829190611e90565b60405180910390f35b6102a560048036038101906102a091906120b4565b610f39565b6040516102b29190611ec4565b60405180910390f35b6102c3610f73565b6040516102d09190611ec4565b60405180910390f35b6102f360048036038101906102ee9190611e54565b610f79565b6040516103009190611e90565b60405180910390f35b610323600480360381019061031e919061212c565b610fac565b005b61033f600480360381019061033a9190611e54565b6110c3565b60405161034c919061217b565b60405180910390f35b61036f600480360381019061036a9190612196565b6110e3565b005b610379611797565b6040516103869190611ec4565b60405180910390f35b6103a960048036038101906103a49190612074565b61179d565b6040516103b69190611ec4565b60405180910390f35b6103c7611824565b6040516103d49190611ec4565b60405180910390f35b6103e561182a565b6040516103f29190611ec4565b60405180910390f35b61041560048036038101906104109190611f0b565b611830565b005b610431600480360381019061042c9190611e54565b61187b565b005b60056020528060005260406000206000915054906101000a900473ffffffffffffffffffffffffffffffffffffffff1681565b60004260035410806105035750600073ffffffffffffffffffffffffffffffffffffffff16600460008473ffffffffffffffffffffffffffffffffffffffff1673ffffffffffffffffffffffffffffffffffffffff16815260200190815260200160002060009054906101000a900473ffffffffffffffffffffffffffffffffffffffff1673ffffffffffffffffffffffffffffffffffffffff16145b1561051157600090506105bb565b6001549050600073ffffffffffffffffffffffffffffffffffffffff16600560008473ffffffffffffffffffffffffffffffffffffffff1673ffffffffffffffffffffffffffffffffffffffff16815260200190815260200160002060009054906101000a900473ffffffffffffffffffffffffffffffffffffffff1673ffffffffffffffffffffffffffffffffffffffff16146105ba57600254816105b79190612218565b90505b5b919050565b60076020528060005260406000206000915090505481565b6105e06118fe565b806002819055507f33fec5ede33e3dbeaa134dabccf9b4843529f06f3460160e8910637e7a13c1b66002546040516106189190611ec4565b60405180910390a150565b600073ffffffffffffffffffffffffffffffffffffffff168173ffffffffffffffffffffffffffffffffffffffff1603610689576040517fef6d8bf000000000000000000000000000000000000000000000000000000000815260040160405180910390fd5b6000600860003373ffffffffffffffffffffffffffffffffffffffff1673ffffffffffffffffffffffffffffffffffffffff16815260200190815260200160002060008373ffffffffffffffffffffffffffffffffffffffff1673ffffffffffffffffffffffffffffffffffffffff168152602001908152602001600020549050600760008373ffffffffffffffffffffffffffffffffffffffff1673ffffffffffffffffffffffffffffffffffffffff16815260200190815260200160002054811015610783576040517fb6d0b70800000000000000000000000000000000000000000000000000000000815260040160405180910390fd5b600081036107bd576040517fa0a0d85900000000000000000000000000000000000000000000000000000000815260040160405180910390fd5b6000600860003373ffffffffffffffffffffffffffffffffffffffff1673ffffffffffffffffffffffffffffffffffffffff16815260200190815260200160002060008473ffffffffffffffffffffffffffffffffffffffff1673ffffffffffffffffffffffffffffffffffffffff1681526020019081526020016000208190555061086a33828473ffffffffffffffffffffffffffffffffffffffff1661197c9092919063ffffffff16565b8173ffffffffffffffffffffffffffffffffffffffff163373ffffffffffffffffffffffffffffffffffffffff167f08a68e986c1ea84103dc08878826cb429bcffd15f2affed33169d5ee884b5629836040516108c79190611ec4565b60405180910390a35050565b6108db6118fe565b806003819055507fc4960e28b441d32786166ce7e1ed2a4527a0e4b27a65f5cdc539a7b2a2683d2a6003546040516109139190611ec4565b60405180910390a150565b6109266118fe565b600084849050905082829050811461096a576040517f857e551e00000000000000000000000000000000000000000000000000000000815260040160405180910390fd5b60005b81811015610b0a57600073ffffffffffffffffffffffffffffffffffffffff168686838181106109a05761099f61224c565b5b90506020020160208101906109b59190611e54565b73ffffffffffffffffffffffffffffffffffffffff1603610a02576040517fef6d8bf000000000000000000000000000000000000000000000000000000000815260040160405180910390fd5b838382818110610a1557610a1461224c565b5b9050602002013560076000888885818110610a3357610a3261224c565b5b9050602002016020810190610a489190611e54565b73ffffffffffffffffffffffffffffffffffffffff1673ffffffffffffffffffffffffffffffffffffffff168152602001908152602001600020819055507f547b0659e7066436f168688a6dd53fe9b0cb09b76669ee2db1476843f0396c46868683818110610aba57610ab961224c565b5b9050602002016020810190610acf9190611e54565b858584818110610ae257610ae161224c565b5b90506020020135604051610af792919061227b565b60405180910390a180600101905061096d565b505050505050565b610b1a6118fe565b610b246000611a02565b565b600660003373ffffffffffffffffffffffffffffffffffffffff1673ffffffffffffffffffffffffffffffffffffffff16815260200190815260200160002060009054906101000a900460ff16610ba9576040517f4b53dc5200000000000000000000000000000000000000000000000000000000815260040160405180910390fd5b600073ffffffffffffffffffffffffffffffffffffffff16600460008373ffffffffffffffffffffffffffffffffffffffff1673ffffffffffffffffffffffffffffffffffffffff16815260200190815260200160002060009054906101000a900473ffffffffffffffffffffffffffffffffffffffff1673ffffffffffffffffffffffffffffffffffffffff16141580610c6f57508073ffffffffffffffffffffffffffffffffffffffff168273ffffffffffffffffffffffffffffffffffffffff16145b80610ca65750600073ffffffffffffffffffffffffffffffffffffffff168273ffffffffffffffffffffffffffffffffffffffff16145b610f0c5781600460008373ffffffffffffffffffffffffffffffffffffffff1673ffffffffffffffffffffffffffffffffffffffff16815260200190815260200160002060006101000a81548173ffffffffffffffffffffffffffffffffffffffff021916908373ffffffffffffffffffffffffffffffffffffffff1602179055508073ffffffffffffffffffffffffffffffffffffffff168273ffffffffffffffffffffffffffffffffffffffff167fdf63218877cb126f6c003f2b7f77327674cd6a0b53ad51deac392548ec12b0ed60405160405180910390a36000600460008473ffffffffffffffffffffffffffffffffffffffff1673ffffffffffffffffffffffffffffffffffffffff16815260200190815260200160002060009054906101000a900473ffffffffffffffffffffffffffffffffffffffff169050600073ffffffffffffffffffffffffffffffffffffffff168173ffffffffffffffffffffffffffffffffffffffff1614610f0a5780600560008473ffffffffffffffffffffffffffffffffffffffff1673ffffffffffffffffffffffffffffffffffffffff16815260200190815260200160002060006101000a81548173ffffffffffffffffffffffffffffffffffffffff021916908373ffffffffffffffffffffffffffffffffffffffff1602179055508273ffffffffffffffffffffffffffffffffffffffff168273ffffffffffffffffffffffffffffffffffffffff168273ffffffffffffffffffffffffffffffffffffffff167f6719903549f23f5f63f259d33fe86672214fa719e8121be0af9d31ceb0d4772160405160405180910390a45b505b5050565b60008060009054906101000a900473ffffffffffffffffffffffffffffffffffffffff16905090565b600080610f4584610466565b90506000811115610f6c576127108184610f5f91906122a4565b610f699190612315565b91505b5092915050565b60015481565b60046020528060005260406000206000915054906101000a900473ffffffffffffffffffffffffffffffffffffffff1681565b610fb46118fe565b600073ffffffffffffffffffffffffffffffffffffffff168273ffffffffffffffffffffffffffffffffffffffff160361101a576040517fef6d8bf000000000000000000000000000000000000000000000000000000000815260040160405180910390fd5b80600660008473ffffffffffffffffffffffffffffffffffffffff1673ffffffffffffffffffffffffffffffffffffffff16815260200190815260200160002060006101000a81548160ff0219169083151502179055508173ffffffffffffffffffffffffffffffffffffffff167f1bbbea67b5155b85a9738a091dfb81a728e16362fa65ecb87b289936519a04b1826040516110b7919061217b565b60405180910390a25050565b60066020528060005260406000206000915054906101000a900460ff1681565b600660003373ffffffffffffffffffffffffffffffffffffffff1673ffffffffffffffffffffffffffffffffffffffff16815260200190815260200160002060009054906101000a900460ff16611166576040517f4b53dc5200000000000000000000000000000000000000000000000000000000815260040160405180910390fd5b6000600460008573ffffffffffffffffffffffffffffffffffffffff1673ffffffffffffffffffffffffffffffffffffffff16815260200190815260200160002060009054906101000a900473ffffffffffffffffffffffffffffffffffffffff169050426003541015611206576040517f8e77cdc900000000000000000000000000000000000000000000000000000000815260040160405180910390fd5b600073ffffffffffffffffffffffffffffffffffffffff168173ffffffffffffffffffffffffffffffffffffffff160361126c576040517fef6d8bf000000000000000000000000000000000000000000000000000000000815260040160405180910390fd5b600082036112a6576040517fa0a0d85900000000000000000000000000000000000000000000000000000000815260040160405180910390fd5b600073ffffffffffffffffffffffffffffffffffffffff16600560008673ffffffffffffffffffffffffffffffffffffffff1673ffffffffffffffffffffffffffffffffffffffff16815260200190815260200160002060009054906101000a900473ffffffffffffffffffffffffffffffffffffffff1673ffffffffffffffffffffffffffffffffffffffff16146116515760006127106002548461134c91906122a4565b6113569190612315565b90508060086000600560008973ffffffffffffffffffffffffffffffffffffffff1673ffffffffffffffffffffffffffffffffffffffff16815260200190815260200160002060009054906101000a900473ffffffffffffffffffffffffffffffffffffffff1673ffffffffffffffffffffffffffffffffffffffff1673ffffffffffffffffffffffffffffffffffffffff16815260200190815260200160002060008673ffffffffffffffffffffffffffffffffffffffff1673ffffffffffffffffffffffffffffffffffffffff16815260200190815260200160002060008282546114439190612218565b925050819055508373ffffffffffffffffffffffffffffffffffffffff168573ffffffffffffffffffffffffffffffffffffffff16600560008873ffffffffffffffffffffffffffffffffffffffff1673ffffffffffffffffffffffffffffffffffffffff16815260200190815260200160002060009054906101000a900473ffffffffffffffffffffffffffffffffffffffff1673ffffffffffffffffffffffffffffffffffffffff167f3c898eebf08bc5e6e4737733e0d2934b9d02f21f17b13b97c532cfa74766b56e846000604051611520929190612346565b60405180910390a460008184611536919061236f565b905080600860008573ffffffffffffffffffffffffffffffffffffffff1673ffffffffffffffffffffffffffffffffffffffff16815260200190815260200160002060008773ffffffffffffffffffffffffffffffffffffffff1673ffffffffffffffffffffffffffffffffffffffff16815260200190815260200160002060008282546115c49190612218565b925050819055508473ffffffffffffffffffffffffffffffffffffffff168673ffffffffffffffffffffffffffffffffffffffff168473ffffffffffffffffffffffffffffffffffffffff167f3c898eebf08bc5e6e4737733e0d2934b9d02f21f17b13b97c532cfa74766b56e846001604051611642929190612346565b60405180910390a45050611764565b81600860008373ffffffffffffffffffffffffffffffffffffffff1673ffffffffffffffffffffffffffffffffffffffff16815260200190815260200160002060008573ffffffffffffffffffffffffffffffffffffffff1673ffffffffffffffffffffffffffffffffffffffff16815260200190815260200160002060008282546116dd9190612218565b925050819055508273ffffffffffffffffffffffffffffffffffffffff168473ffffffffffffffffffffffffffffffffffffffff168273ffffffffffffffffffffffffffffffffffffffff167f3c898eebf08bc5e6e4737733e0d2934b9d02f21f17b13b97c532cfa74766b56e85600160405161175b929190612346565b60405180910390a45b6117913330848673ffffffffffffffffffffffffffffffffffffffff16611ac6909392919063ffffffff16565b50505050565b61271081565b6000600860008473ffffffffffffffffffffffffffffffffffffffff1673ffffffffffffffffffffffffffffffffffffffff16815260200190815260200160002060008373ffffffffffffffffffffffffffffffffffffffff1673ffffffffffffffffffffffffffffffffffffffff16815260200190815260200160002054905092915050565b60035481565b60025481565b6118386118fe565b806001819055507fed31881d9e2b9592f80248887b74b649a50dddddf07281e6894e563c623927b26001546040516118709190611ec4565b60405180910390a150565b6118836118fe565b600073ffffffffffffffffffffffffffffffffffffffff168173ffffffffffffffffffffffffffffffffffffffff16036118f2576040517f08c379a00000000000000000000000000000000000000000000000000000000081526004016118e990612426565b60405180910390fd5b6118fb81611a02565b50565b611906611b4f565b73ffffffffffffffffffffffffffffffffffffffff16611924610f10565b73ffffffffffffffffffffffffffffffffffffffff161461197a576040517f08c379a000000000000000000000000000000000000000000000000000000000815260040161197190612492565b60405180910390fd5b565b6119fd8363a9059cbb60e01b848460405160240161199b92919061227b565b604051602081830303815290604052907bffffffffffffffffffffffffffffffffffffffffffffffffffffffff19166020820180517bffffffffffffffffffffffffffffffffffffffffffffffffffffffff8381831617835250505050611b57565b505050565b60008060009054906101000a900473ffffffffffffffffffffffffffffffffffffffff169050816000806101000a81548173ffffffffffffffffffffffffffffffffffffffff021916908373ffffffffffffffffffffffffffffffffffffffff1602179055508173ffffffffffffffffffffffffffffffffffffffff168173ffffffffffffffffffffffffffffffffffffffff167f8be0079c531659141344cd1fd0a4f28419497f9722a3daafe3b4186f6b6457e060405160405180910390a35050565b611b49846323b872dd60e01b858585604051602401611ae7939291906124b2565b604051602081830303815290604052907bffffffffffffffffffffffffffffffffffffffffffffffffffffffff19166020820180517bffffffffffffffffffffffffffffffffffffffffffffffffffffffff8381831617835250505050611b57565b50505050565b600033905090565b6000611bb9826040518060400160405280602081526020017f5361666545524332303a206c6f772d6c6576656c2063616c6c206661696c65648152508573ffffffffffffffffffffffffffffffffffffffff16611c1f9092919063ffffffff16565b9050600081511480611bdb575080806020019051810190611bda91906124fe565b5b611c1a576040517f08c379a0000000000000000000000000000000000000000000000000000000008152600401611c119061259d565b60405180910390fd5b505050565b6060611c2e8484600085611c37565b90509392505050565b606082471015611c7c576040517f08c379a0000000000000000000000000000000000000000000000000000000008152600401611c739061262f565b60405180910390fd5b6000808673ffffffffffffffffffffffffffffffffffffffff168587604051611ca591906126c0565b60006040518083038185875af1925050503d8060008114611ce2576040519150601f19603f3d011682016040523d82523d6000602084013e611ce7565b606091505b5091509150611cf887838387611d04565b92505050949350505050565b60608315611d66576000835103611d5e57611d1e85611d79565b611d5d576040517f08c379a0000000000000000000000000000000000000000000000000000000008152600401611d5490612723565b60405180910390fd5b5b829050611d71565b611d708383611d9c565b5b949350505050565b6000808273ffffffffffffffffffffffffffffffffffffffff163b119050919050565b600082511115611daf5781518083602001fd5b806040517f08c379a0000000000000000000000000000000000000000000000000000000008152600401611de39190612798565b60405180910390fd5b600080fd5b600080fd5b600073ffffffffffffffffffffffffffffffffffffffff82169050919050565b6000611e2182611df6565b9050919050565b611e3181611e16565b8114611e3c57600080fd5b50565b600081359050611e4e81611e28565b92915050565b600060208284031215611e6a57611e69611dec565b5b6000611e7884828501611e3f565b91505092915050565b611e8a81611e16565b82525050565b6000602082019050611ea56000830184611e81565b92915050565b6000819050919050565b611ebe81611eab565b82525050565b6000602082019050611ed96000830184611eb5565b92915050565b611ee881611eab565b8114611ef357600080fd5b50565b600081359050611f0581611edf565b92915050565b600060208284031215611f2157611f20611dec565b5b6000611f2f84828501611ef6565b91505092915050565b600080fd5b600080fd5b600080fd5b60008083601f840112611f5d57611f5c611f38565b5b8235905067ffffffffffffffff811115611f7a57611f79611f3d565b5b602083019150836020820283011115611f9657611f95611f42565b5b9250929050565b60008083601f840112611fb357611fb2611f38565b5b8235905067ffffffffffffffff811115611fd057611fcf611f3d565b5b602083019150836020820283011115611fec57611feb611f42565b5b9250929050565b6000806000806040858703121561200d5761200c611dec565b5b600085013567ffffffffffffffff81111561202b5761202a611df1565b5b61203787828801611f47565b9450945050602085013567ffffffffffffffff81111561205a57612059611df1565b5b61206687828801611f9d565b925092505092959194509250565b6000806040838503121561208b5761208a611dec565b5b600061209985828601611e3f565b92505060206120aa85828601611e3f565b9150509250929050565b600080604083850312156120cb576120ca611dec565b5b60006120d985828601611e3f565b92505060206120ea85828601611ef6565b9150509250929050565b60008115159050919050565b612109816120f4565b811461211457600080fd5b50565b60008135905061212681612100565b92915050565b6000806040838503121561214357612142611dec565b5b600061215185828601611e3f565b925050602061216285828601612117565b9150509250929050565b612175816120f4565b82525050565b6000602082019050612190600083018461216c565b92915050565b6000806000606084860312156121af576121ae611dec565b5b60006121bd86828701611e3f565b93505060206121ce86828701611e3f565b92505060406121df86828701611ef6565b9150509250925092565b7f4e487b7100000000000000000000000000000000000000000000000000000000600052601160045260246000fd5b600061222382611eab565b915061222e83611eab565b9250828201905080821115612246576122456121e9565b5b92915050565b7f4e487b7100000000000000000000000000000000000000000000000000000000600052603260045260246000fd5b60006040820190506122906000830185611e81565b61229d6020830184611eb5565b9392505050565b60006122af82611eab565b91506122ba83611eab565b92508282026122c881611eab565b915082820484148315176122df576122de6121e9565b5b5092915050565b7f4e487b7100000000000000000000000000000000000000000000000000000000600052601260045260246000fd5b600061232082611eab565b915061232b83611eab565b92508261233b5761233a6122e6565b5b828204905092915050565b600060408201905061235b6000830185611eb5565b612368602083018461216c565b9392505050565b600061237a82611eab565b915061238583611eab565b925082820390508181111561239d5761239c6121e9565b5b92915050565b600082825260208201905092915050565b7f4f776e61626c653a206e6577206f776e657220697320746865207a65726f206160008201527f6464726573730000000000000000000000000000000000000000000000000000602082015250565b60006124106026836123a3565b915061241b826123b4565b604082019050919050565b6000602082019050818103600083015261243f81612403565b9050919050565b7f4f776e61626c653a2063616c6c6572206973206e6f7420746865206f776e6572600082015250565b600061247c6020836123a3565b915061248782612446565b602082019050919050565b600060208201905081810360008301526124ab8161246f565b9050919050565b60006060820190506124c76000830186611e81565b6124d46020830185611e81565b6124e16040830184611eb5565b949350505050565b6000815190506124f881612100565b92915050565b60006020828403121561251457612513611dec565b5b6000612522848285016124e9565b91505092915050565b7f5361666545524332303a204552433230206f7065726174696f6e20646964206e60008201527f6f74207375636365656400000000000000000000000000000000000000000000602082015250565b6000612587602a836123a3565b91506125928261252b565b604082019050919050565b600060208201905081810360008301526125b68161257a565b9050919050565b7f416464726573733a20696e73756666696369656e742062616c616e636520666f60008201527f722063616c6c0000000000000000000000000000000000000000000000000000602082015250565b60006126196026836123a3565b9150612624826125bd565b604082019050919050565b600060208201905081810360008301526126488161260c565b9050919050565b600081519050919050565b600081905092915050565b60005b83811015612683578082015181840152602081019050612668565b60008484015250505050565b600061269a8261264f565b6126a4818561265a565b93506126b4818560208601612665565b80840191505092915050565b60006126cc828461268f565b915081905092915050565b7f416464726573733a2063616c6c20746f206e6f6e2d636f6e7472616374000000600082015250565b600061270d601d836123a3565b9150612718826126d7565b602082019050919050565b6000602082019050818103600083015261273c81612700565b9050919050565b600081519050919050565b6000601f19601f8301169050919050565b600061276a82612743565b61277481856123a3565b9350612784818560208601612665565b61278d8161274e565b840191505092915050565b600060208201905081810360008301526127b2818461275f565b90509291505056fea26469706673582212204bf66b00017de07e7ff51ebc1ea7708e672bed6c3012145bf01509302e43921464736f6c63430008130033","linkReferences":{}},"methodIdentifiers":{"MAX_FEE_BPS()":"d55be8c6","claimReferralReward(address)":"61929d8a","directRefFeeBps()":"9e65d826","getReferralBpsFor(address)":"3738c568","getReferralRewardFor(address,address)":"dd7f2f22","indirectRefFeeBps()":"e0d30403","indirectReferral(address)":"2a74e29a","owner()":"8da5cb5b","payoutThreshold(address)":"4fa5c3df","quoteReferralFee(address,uint256)":"9af6e505","receiveReferral(address,address,uint256)":"cfc06a8b","referredBy(address)":"a90f8e9a","renounceOwnership()":"715018a6","setDirectRefFeeBps(uint256)":"f1bfe9a5","setIndirectRefFeeBps(uint256)":"508e578c","setPayoutThreshold(address[],uint256[])":"674cc5f6","setReferral(address,address)":"7543e3f0","setValidUntil(uint256)":"634099cc","setWhitelistedVault(address,bool)":"c599a317","transferOwnership(address)":"f2fde38b","validUntil()":"ddac6654","whitelistedVault(address)":"cdc98fcf"},"id":8}