{"abi":[{"type":"constructor","inputs":[{"name":"_owner","type":"address","internalType":"address"},{"name":"_createDeployer","type":"address","internalType":"address"},{"name":"_feeManager","type":"address","internalType":"address"}],"stateMutability":"nonpayable"},{"type":"function","name":"CREATE_DEPLOYER","inputs":[],"outputs":[{"name":"","type":"address","internalType":"address"}],"stateMutability":"view"},{"type":"function","name":"DEFAULT_ADMIN_ROLE","inputs":[],"outputs":[{"name":"","type":"bytes32","internalType":"bytes32"}],"stateMutability":"view"},{"type":"function","name":"INITIAL_SUPPLY","inputs":[],"outputs":[{"name":"","type":"uint256","internalType":"uint256"}],"stateMutability":"view"},{"type":"function","name":"OWNER_ROLE","inputs":[],"outputs":[{"name":"","type":"bytes32","internalType":"bytes32"}],"stateMutability":"view"},{"type":"function","name":"allowTokenCreation","inputs":[],"outputs":[{"name":"","type":"bool","internalType":"bool"}],"stateMutability":"view"},{"type":"function","name":"createToken","inputs":[{"name":"metadata","type":"string[2]","internalType":"string[2]"},{"name":"addr","type":"address[2]","internalType":"address[2]"},{"name":"raiseData","type":"uint256[2]","internalType":"uint256[2]"},{"name":"baseAmount","type":"uint256","internalType":"uint256"},{"name":"salt","type":"bytes32","internalType":"bytes32"}],"outputs":[{"name":"token","type":"address","internalType":"address"}],"stateMutability":"payable"},{"type":"function","name":"feeManager","inputs":[],"outputs":[{"name":"","type":"address","internalType":"contract IFeeManager"}],"stateMutability":"view"},{"type":"function","name":"getRoleAdmin","inputs":[{"name":"role","type":"bytes32","internalType":"bytes32"}],"outputs":[{"name":"","type":"bytes32","internalType":"bytes32"}],"stateMutability":"view"},{"type":"function","name":"grantRole","inputs":[{"name":"role","type":"bytes32","internalType":"bytes32"},{"name":"account","type":"address","internalType":"address"}],"outputs":[],"stateMutability":"nonpayable"},{"type":"function","name":"hasRole","inputs":[{"name":"role","type":"bytes32","internalType":"bytes32"},{"name":"account","type":"address","internalType":"address"}],"outputs":[{"name":"","type":"bool","internalType":"bool"}],"stateMutability":"view"},{"type":"function","name":"isDeployed","inputs":[{"name":"","type":"address","internalType":"address"}],"outputs":[{"name":"","type":"bool","internalType":"bool"}],"stateMutability":"view"},{"type":"function","name":"raiseAmounts","inputs":[{"name":"","type":"address","internalType":"address"}],"outputs":[{"name":"minReserveAmount","type":"uint256","internalType":"uint256"},{"name":"minRaiseAmount","type":"uint256","internalType":"uint256"}],"stateMutability":"view"},{"type":"function","name":"renounceRole","inputs":[{"name":"role","type":"bytes32","internalType":"bytes32"},{"name":"account","type":"address","internalType":"address"}],"outputs":[],"stateMutability":"nonpayable"},{"type":"function","name":"revokeRole","inputs":[{"name":"role","type":"bytes32","internalType":"bytes32"},{"name":"account","type":"address","internalType":"address"}],"outputs":[],"stateMutability":"nonpayable"},{"type":"function","name":"setAllowTokenCreation","inputs":[{"name":"allowTokenCreation_","type":"bool","internalType":"bool"}],"outputs":[],"stateMutability":"nonpayable"},{"type":"function","name":"setAllowedBaseToken","inputs":[{"name":"baseToken","type":"address","internalType":"address"},{"name":"minReserveAmount","type":"uint256","internalType":"uint256"},{"name":"minRaiseAmount","type":"uint256","internalType":"uint256"},{"name":"enable","type":"bool","internalType":"bool"}],"outputs":[],"stateMutability":"nonpayable"},{"type":"function","name":"setFeeManager","inputs":[{"name":"feeManager_","type":"address","internalType":"address payable"}],"outputs":[],"stateMutability":"nonpayable"},{"type":"function","name":"setVault","inputs":[{"name":"vault","type":"address","internalType":"address"},{"name":"enable","type":"bool","internalType":"bool"}],"outputs":[],"stateMutability":"nonpayable"},{"type":"function","name":"supportsInterface","inputs":[{"name":"interfaceId","type":"bytes4","internalType":"bytes4"}],"outputs":[{"name":"","type":"bool","internalType":"bool"}],"stateMutability":"view"},{"type":"function","name":"vaults","inputs":[{"name":"","type":"address","internalType":"address"}],"outputs":[{"name":"","type":"bool","internalType":"bool"}],"stateMutability":"view"},{"type":"function","name":"whitelistedBaseTokens","inputs":[{"name":"","type":"address","internalType":"address"}],"outputs":[{"name":"","type":"bool","internalType":"bool"}],"stateMutability":"view"},{"type":"event","name":"BaseTokenWhitelisted","inputs":[{"name":"baseToken","type":"address","indexed":true,"internalType":"address"},{"name":"minReserveAmount","type":"uint256","indexed":false,"internalType":"uint256"},{"name":"minRaiseAmount","type":"uint256","indexed":false,"internalType":"uint256"},{"name":"enabled","type":"bool","indexed":false,"internalType":"bool"}],"anonymous":false},{"type":"event","name":"FeeManagerSet","inputs":[{"name":"feeManager","type":"address","indexed":true,"internalType":"address"}],"anonymous":false},{"type":"event","name":"RoleAdminChanged","inputs":[{"name":"role","type":"bytes32","indexed":true,"internalType":"bytes32"},{"name":"previousAdminRole","type":"bytes32","indexed":true,"internalType":"bytes32"},{"name":"newAdminRole","type":"bytes32","indexed":true,"internalType":"bytes32"}],"anonymous":false},{"type":"event","name":"RoleGranted","inputs":[{"name":"role","type":"bytes32","indexed":true,"internalType":"bytes32"},{"name":"account","type":"address","indexed":true,"internalType":"address"},{"name":"sender","type":"address","indexed":true,"internalType":"address"}],"anonymous":false},{"type":"event","name":"RoleRevoked","inputs":[{"name":"role","type":"bytes32","indexed":true,"internalType":"bytes32"},{"name":"account","type":"address","indexed":true,"internalType":"address"},{"name":"sender","type":"address","indexed":true,"internalType":"address"}],"anonymous":false},{"type":"event","name":"TokenCreated","inputs":[{"name":"token","type":"address","indexed":true,"internalType":"address"},{"name":"baseToken","type":"address","indexed":true,"internalType":"address"},{"name":"vault","type":"address","indexed":true,"internalType":"address"},{"name":"deployer","type":"address","indexed":false,"internalType":"address"},{"name":"name","type":"string","indexed":false,"internalType":"string"},{"name":"symbol","type":"string","indexed":false,"internalType":"string"}],"anonymous":false},{"type":"event","name":"TokenCreationSet","inputs":[{"name":"status","type":"bool","indexed":false,"internalType":"bool"}],"anonymous":false},{"type":"event","name":"VaultSet","inputs":[{"name":"vault","type":"address","indexed":true,"internalType":"address"},{"name":"status","type":"bool","indexed":false,"internalType":"bool"}],"anonymous":false},{"type":"error","name":"BuzzToken_AddressZero","inputs":[]},{"type":"error","name":"BuzzToken_BaseAmountNotEnough","inputs":[]},{"type":"error","name":"BuzzToken_BaseTokenNotWhitelisted","inputs":[]},{"type":"error","name":"BuzzToken_EmptyTokenName","inputs":[]},{"type":"error","name":"BuzzToken_EmptyTokenSymbol","inputs":[]},{"type":"error","name":"BuzzToken_FeeTransferFailed","inputs":[]},{"type":"error","name":"BuzzToken_InsufficientFee","inputs":[]},{"type":"error","name":"BuzzToken_InvalidFinalReserves","inputs":[]},{"type":"error","name":"BuzzToken_InvalidInitialReserves","inputs":[]},{"type":"error","name":"BuzzToken_TokenCreationDisabled","inputs":[]},{"type":"error","name":"BuzzToken_TokenNameTooLong","inputs":[]},{"type":"error","name":"BuzzToken_TokenSymbolTooLong","inputs":[]},{"type":"error","name":"BuzzToken_VaultNotRegistered","inputs":[]}],"bytecode":{"object":"0x60c06040523480156200001157600080fd5b50604051620069cf380380620069cf833981810160405281019062000037919062000301565b7fb19546dff01e856fb3f010c267a7b1c60363cf8a4664e21cc89c26224620214e6080818152505062000073608051846200013460201b60201c565b8173ffffffffffffffffffffffffffffffffffffffff1660a08173ffffffffffffffffffffffffffffffffffffffff168152505080600160006101000a81548173ffffffffffffffffffffffffffffffffffffffff021916908373ffffffffffffffffffffffffffffffffffffffff1602179055508073ffffffffffffffffffffffffffffffffffffffff167fbf5f580614969fb819b8af01f7cc62fe0e0146feaf98d7aee42e76bb0bee8e6360405160405180910390a25050506200035d565b6200014682826200022560201b60201c565b6200022157600160008084815260200190815260200160002060000160008373ffffffffffffffffffffffffffffffffffffffff1673ffffffffffffffffffffffffffffffffffffffff16815260200190815260200160002060006101000a81548160ff021916908315150217905550620001c66200028f60201b60201c565b73ffffffffffffffffffffffffffffffffffffffff168173ffffffffffffffffffffffffffffffffffffffff16837f2f8788117e7eff1d82e926ec794901d17c78024a50270940304540a733656f0d60405160405180910390a45b5050565b600080600084815260200190815260200160002060000160008373ffffffffffffffffffffffffffffffffffffffff1673ffffffffffffffffffffffffffffffffffffffff16815260200190815260200160002060009054906101000a900460ff16905092915050565b600033905090565b600080fd5b600073ffffffffffffffffffffffffffffffffffffffff82169050919050565b6000620002c9826200029c565b9050919050565b620002db81620002bc565b8114620002e757600080fd5b50565b600081519050620002fb81620002d0565b92915050565b6000806000606084860312156200031d576200031c62000297565b5b60006200032d86828701620002ea565b93505060206200034086828701620002ea565b92505060406200035386828701620002ea565b9150509250925092565b60805160a051616622620003ad6000396000818161065e01528181611d020152611dfd01526000818161129c0152818161132e015281816114490152818161172901526119aa01526166226000f3fe608060405260043610620001465760003560e01c8063627f66c611620000bb578063a622ee7c1162000079578063a622ee7c146200047a578063bcba927614620004be578063d0fb02031462000502578063d547741f1462000532578063e58378bb1462000560578063f777816514620005905762000146565b8063627f66c6146200034f57806363eb4eec146200037d57806390184b0214620003c257806391d148541462000406578063a217fddf146200044a5762000146565b806336568abe116200010957806336568abe14620002615780633ba96fd6146200028f5780633da0fd3114620002c5578063472d35b914620002f35780635601df4f14620003215762000146565b806301ffc9a7146200014b578063248a9ca3146200018f57806327dc11f014620001d35780632f2ff15d14620002035780632ff2e9dc1462000231575b600080fd5b3480156200015857600080fd5b5062000177600480360381019062000171919062002780565b620005c0565b604051620001869190620027cf565b60405180910390f35b3480156200019c57600080fd5b50620001bb6004803603810190620001b5919062002827565b6200063d565b604051620001ca91906200286a565b60405180910390f35b348015620001e057600080fd5b50620001eb6200065c565b604051620001fa9190620028cc565b60405180910390f35b3480156200021057600080fd5b506200022f60048036038101906200022991906200291a565b62000680565b005b3480156200023e57600080fd5b5062000249620006a7565b6040516200025891906200297c565b60405180910390f35b3480156200026e57600080fd5b506200028d60048036038101906200028791906200291a565b620006b7565b005b620002ad6004803603810190620002a7919062002a3e565b62000741565b604051620002bc9190620028cc565b60405180910390f35b348015620002d257600080fd5b50620002f16004803603810190620002eb919062002b16565b6200129a565b005b3480156200030057600080fd5b506200031f600480360381019062000319919062002b8d565b6200132c565b005b3480156200032e57600080fd5b506200034d600480360381019062000347919062002bbf565b62001447565b005b3480156200035c57600080fd5b506200037b600480360381019062000375919062002c31565b62001727565b005b3480156200038a57600080fd5b50620003a96004803603810190620003a3919062002c78565b62001866565b604051620003b992919062002caa565b60405180910390f35b348015620003cf57600080fd5b50620003ee6004803603810190620003e8919062002c78565b6200188a565b604051620003fd9190620027cf565b60405180910390f35b3480156200041357600080fd5b506200043260048036038101906200042c91906200291a565b620018aa565b604051620004419190620027cf565b60405180910390f35b3480156200045757600080fd5b506200046262001914565b6040516200047191906200286a565b60405180910390f35b3480156200048757600080fd5b50620004a66004803603810190620004a0919062002c78565b6200191b565b604051620004b59190620027cf565b60405180910390f35b348015620004cb57600080fd5b50620004ea6004803603810190620004e4919062002c78565b6200193b565b604051620004f99190620027cf565b60405180910390f35b3480156200050f57600080fd5b506200051a6200195b565b60405162000529919062002d42565b60405180910390f35b3480156200053f57600080fd5b506200055e60048036038101906200055891906200291a565b62001981565b005b3480156200056d57600080fd5b5062000578620019a8565b6040516200058791906200286a565b60405180910390f35b3480156200059d57600080fd5b50620005a8620019cc565b604051620005b79190620027cf565b60405180910390f35b60007f7965db0b000000000000000000000000000000000000000000000000000000007bffffffffffffffffffffffffffffffffffffffffffffffffffffffff1916827bffffffffffffffffffffffffffffffffffffffffffffffffffffffff191614806200063657506200063582620019df565b5b9050919050565b6000806000838152602001908152602001600020600101549050919050565b7f000000000000000000000000000000000000000000000000000000000000000081565b6200068b826200063d565b620006968162001a49565b620006a2838362001a61565b505050565b6b033b2e3c9fd0803ce800000081565b620006c162001b46565b73ffffffffffffffffffffffffffffffffffffffff168173ffffffffffffffffffffffffffffffffffffffff161462000731576040517f08c379a0000000000000000000000000000000000000000000000000000000008152600401620007289062002de6565b60405180910390fd5b6200073d828262001b4e565b5050565b6000600160149054906101000a900460ff166200078a576040517f1d9a0db200000000000000000000000000000000000000000000000000000000815260040160405180910390fd5b600073ffffffffffffffffffffffffffffffffffffffff1685600060028110620007b957620007b862002e08565b5b602002016020810190620007ce919062002c78565b73ffffffffffffffffffffffffffffffffffffffff16036200081c576040517f4006d46f00000000000000000000000000000000000000000000000000000000815260040160405180910390fd5b600260008660016002811062000837576200083662002e08565b5b6020020160208101906200084c919062002c78565b73ffffffffffffffffffffffffffffffffffffffff1673ffffffffffffffffffffffffffffffffffffffff16815260200190815260200160002060009054906101000a900460ff16620008cb576040517f18337fb900000000000000000000000000000000000000000000000000000000815260040160405180910390fd5b600086600060028110620008e457620008e362002e08565b5b602002810190620008f6919062002e46565b90500362000930576040517faef6f1cb00000000000000000000000000000000000000000000000000000000815260040160405180910390fd5b60008660016002811062000949576200094862002e08565b5b6020028101906200095b919062002e46565b90500362000995576040517ff556268b00000000000000000000000000000000000000000000000000000000815260040160405180910390fd5b601086600060028110620009ae57620009ad62002e08565b5b602002810190620009c0919062002e46565b90501115620009fb576040517f929ab0a300000000000000000000000000000000000000000000000000000000815260040160405180910390fd5b600a8660016002811062000a145762000a1362002e08565b5b60200281019062000a26919062002e46565b9050111562000a61576040517fee77712a00000000000000000000000000000000000000000000000000000000815260040160405180910390fd5b600360008660006002811062000a7c5762000a7b62002e08565b5b60200201602081019062000a91919062002c78565b73ffffffffffffffffffffffffffffffffffffffff1673ffffffffffffffffffffffffffffffffffffffff16815260200190815260200160002060009054906101000a900460ff1662000b10576040517fa0d869da00000000000000000000000000000000000000000000000000000000815260040160405180910390fd5b600560008660006002811062000b2b5762000b2a62002e08565b5b60200201602081019062000b40919062002c78565b73ffffffffffffffffffffffffffffffffffffffff1673ffffffffffffffffffffffffffffffffffffffff168152602001908152602001600020600001548460006002811062000b955762000b9462002e08565b5b6020020135101562000bd3576040517f2eb292f100000000000000000000000000000000000000000000000000000000815260040160405180910390fd5b600560008660006002811062000bee5762000bed62002e08565b5b60200201602081019062000c03919062002c78565b73ffffffffffffffffffffffffffffffffffffffff1673ffffffffffffffffffffffffffffffffffffffff168152602001908152602001600020600101548460006002811062000c585762000c5762002e08565b5b602002013562000c69919062002ee1565b8460016002811062000c805762000c7f62002e08565b5b6020020135101562000cbe576040517f8e6a405700000000000000000000000000000000000000000000000000000000815260040160405180910390fd5b6000600160009054906101000a900473ffffffffffffffffffffffffffffffffffffffff1673ffffffffffffffffffffffffffffffffffffffff16636a1b7ecc6040518163ffffffff1660e01b8152600401602060405180830381865afa15801562000d2e573d6000803e3d6000fd5b505050506040513d601f19601f8201168201806040525081019062000d54919062002f33565b9050600081111562000e21578034101562000d9b576040517f8e4427a700000000000000000000000000000000000000000000000000000000815260040160405180910390fd5b600160009054906101000a900473ffffffffffffffffffffffffffffffffffffffff1673ffffffffffffffffffffffffffffffffffffffff1663b2abb330826040518263ffffffff1660e01b81526004016000604051808303818588803b15801562000e0657600080fd5b505af115801562000e1b573d6000803e3d6000fd5b50505050505b62000ed78760006002811062000e3c5762000e3b62002e08565b5b60200281019062000e4e919062002e46565b8960016002811062000e655762000e6462002e08565b5b60200281019062000e77919062002e46565b8a60006002811062000e8e5762000e8d62002e08565b5b60200201602081019062000ea3919062002c78565b8b60016002811062000eba5762000eb962002e08565b5b60200201602081019062000ecf919062002c78565b898c62001c34565b91508560016002811062000ef05762000eef62002e08565b5b60200201602081019062000f05919062002c78565b73ffffffffffffffffffffffffffffffffffffffff168660006002811062000f325762000f3162002e08565b5b60200201602081019062000f47919062002c78565b73ffffffffffffffffffffffffffffffffffffffff168373ffffffffffffffffffffffffffffffffffffffff167ff7bd7cc4cdbb314c25807e5bbde4322c976fc703f299000bc2d0b31e2197171e338b60006002811062000fad5762000fac62002e08565b5b60200281019062000fbf919062002e46565b8d60016002811062000fd65762000fd562002e08565b5b60200281019062000fe8919062002e46565b60405162000ffb95949392919062002fb8565b60405180910390a460008411156200129057600081346200101d919062003007565b905060008111156200110c5784811462001063576040517fd4664d9900000000000000000000000000000000000000000000000000000000815260040160405180910390fd5b866001600281106200107a576200107962002e08565b5b6020020160208101906200108f919062002c78565b73ffffffffffffffffffffffffffffffffffffffff1663dd512a75828560016000336040518663ffffffff1660e01b8152600401620010d2949392919062003085565b6000604051808303818588803b158015620010ec57600080fd5b505af115801562001101573d6000803e3d6000fd5b50505050506200128e565b620011663330878a6000600281106200112a576200112962002e08565b5b6020020160208101906200113f919062002c78565b73ffffffffffffffffffffffffffffffffffffffff1662001f53909392919063ffffffff16565b620011e98760016002811062001181576200118062002e08565b5b60200201602081019062001196919062002c78565b8689600060028110620011ae57620011ad62002e08565b5b602002016020810190620011c3919062002c78565b73ffffffffffffffffffffffffffffffffffffffff1662001fe09092919063ffffffff16565b866001600281106200120057620011ff62002e08565b5b60200201602081019062001215919062002c78565b73ffffffffffffffffffffffffffffffffffffffff166381becd16848760016000336040518663ffffffff1660e01b815260040162001259959493929190620030d2565b600060405180830381600087803b1580156200127457600080fd5b505af115801562001289573d6000803e3d6000fd5b505050505b505b5095945050505050565b7f0000000000000000000000000000000000000000000000000000000000000000620012c68162001a49565b81600160146101000a81548160ff0219169083151502179055507fe61792d7d3217b79b6c36f60e9f7aea6a2a37f84ec7030d55c7e69f21ea7c578600160149054906101000a900460ff16604051620013209190620027cf565b60405180910390a15050565b7f0000000000000000000000000000000000000000000000000000000000000000620013588162001a49565b600073ffffffffffffffffffffffffffffffffffffffff168273ffffffffffffffffffffffffffffffffffffffff1603620013bf576040517f4006d46f00000000000000000000000000000000000000000000000000000000815260040160405180910390fd5b81600160006101000a81548173ffffffffffffffffffffffffffffffffffffffff021916908373ffffffffffffffffffffffffffffffffffffffff1602179055508173ffffffffffffffffffffffffffffffffffffffff167fbf5f580614969fb819b8af01f7cc62fe0e0146feaf98d7aee42e76bb0bee8e6360405160405180910390a25050565b7f0000000000000000000000000000000000000000000000000000000000000000620014738162001a49565b600073ffffffffffffffffffffffffffffffffffffffff168573ffffffffffffffffffffffffffffffffffffffff1603620014da576040517f4006d46f00000000000000000000000000000000000000000000000000000000815260040160405180910390fd5b6000600560008773ffffffffffffffffffffffffffffffffffffffff1673ffffffffffffffffffffffffffffffffffffffff168152602001908152602001600020600001541480156200156f57506000600560008773ffffffffffffffffffffffffffffffffffffffff1673ffffffffffffffffffffffffffffffffffffffff16815260200190815260200160002060010154145b15620015e657604051806040016040528085815260200184815250600560008773ffffffffffffffffffffffffffffffffffffffff1673ffffffffffffffffffffffffffffffffffffffff168152602001908152602001600020600082015181600001556020820151816001015590505062001675565b83600560008773ffffffffffffffffffffffffffffffffffffffff1673ffffffffffffffffffffffffffffffffffffffff1681526020019081526020016000206000018190555082600560008773ffffffffffffffffffffffffffffffffffffffff1673ffffffffffffffffffffffffffffffffffffffff168152602001908152602001600020600101819055505b81600360008773ffffffffffffffffffffffffffffffffffffffff1673ffffffffffffffffffffffffffffffffffffffff16815260200190815260200160002060006101000a81548160ff0219169083151502179055508473ffffffffffffffffffffffffffffffffffffffff167fedbfbac8ecac198284e097c5aceb0c34f594dd6b81d8664972fe8415c4de240685858560405162001718939291906200312f565b60405180910390a25050505050565b7f0000000000000000000000000000000000000000000000000000000000000000620017538162001a49565b600073ffffffffffffffffffffffffffffffffffffffff168373ffffffffffffffffffffffffffffffffffffffff1603620017ba576040517f4006d46f00000000000000000000000000000000000000000000000000000000815260040160405180910390fd5b81600260008573ffffffffffffffffffffffffffffffffffffffff1673ffffffffffffffffffffffffffffffffffffffff16815260200190815260200160002060006101000a81548160ff0219169083151502179055508273ffffffffffffffffffffffffffffffffffffffff167f79a58dadb454da39ecff92b439454719a80ea78743990d0f0dd2343a7e7bb91a83604051620018599190620027cf565b60405180910390a2505050565b60056020528060005260406000206000915090508060000154908060010154905082565b60046020528060005260406000206000915054906101000a900460ff1681565b600080600084815260200190815260200160002060000160008373ffffffffffffffffffffffffffffffffffffffff1673ffffffffffffffffffffffffffffffffffffffff16815260200190815260200160002060009054906101000a900460ff16905092915050565b6000801b81565b60026020528060005260406000206000915054906101000a900460ff1681565b60036020528060005260406000206000915054906101000a900460ff1681565b600160009054906101000a900473ffffffffffffffffffffffffffffffffffffffff1681565b6200198c826200063d565b620019978162001a49565b620019a3838362001b4e565b505050565b7f000000000000000000000000000000000000000000000000000000000000000081565b600160149054906101000a900460ff1681565b60007f01ffc9a7000000000000000000000000000000000000000000000000000000007bffffffffffffffffffffffffffffffffffffffffffffffffffffffff1916827bffffffffffffffffffffffffffffffffffffffffffffffffffffffff1916149050919050565b62001a5e8162001a5862001b46565b6200213c565b50565b62001a6d8282620018aa565b62001b4257600160008084815260200190815260200160002060000160008373ffffffffffffffffffffffffffffffffffffffff1673ffffffffffffffffffffffffffffffffffffffff16815260200190815260200160002060006101000a81548160ff02191690831515021790555062001ae762001b46565b73ffffffffffffffffffffffffffffffffffffffff168173ffffffffffffffffffffffffffffffffffffffff16837f2f8788117e7eff1d82e926ec794901d17c78024a50270940304540a733656f0d60405160405180910390a45b5050565b600033905090565b62001b5a8282620018aa565b1562001c3057600080600084815260200190815260200160002060000160008373ffffffffffffffffffffffffffffffffffffffff1673ffffffffffffffffffffffffffffffffffffffff16815260200190815260200160002060006101000a81548160ff02191690831515021790555062001bd562001b46565b73ffffffffffffffffffffffffffffffffffffffff168173ffffffffffffffffffffffffffffffffffffffff16837ff6391f5c32d9c69d2a47ea670b442974b53935d1edc7fd64eb21e047a839171b60405160405180910390a45b5050565b6000808260006002811062001c4e5762001c4d62002e08565b5b6020020135905060008360016002811062001c6e5762001c6d62002e08565b5b6020020135905060006b033b2e3c9fd0803ce8000000905060006040518060200162001c9a906200270b565b6020820181038252601f19601f820116604052508d8d8d8d86308e60405160200162001ccd97969594939291906200316c565b60405160208183030381529060405260405160200162001cef92919062003254565b60405160208183030381529060405290507f000000000000000000000000000000000000000000000000000000000000000073ffffffffffffffffffffffffffffffffffffffff166350f1c46430896040518363ffffffff1660e01b815260040162001d5d9291906200327c565b602060405180830381865afa15801562001d7b573d6000803e3d6000fd5b505050506040513d601f19601f8201168201806040525081019062001da19190620032c0565b94506001600460008773ffffffffffffffffffffffffffffffffffffffff1673ffffffffffffffffffffffffffffffffffffffff16815260200190815260200160002060006101000a81548160ff0219169083151502179055507f000000000000000000000000000000000000000000000000000000000000000073ffffffffffffffffffffffffffffffffffffffff1663cdcb760a88836040518363ffffffff1660e01b815260040162001e5892919062003344565b6020604051808303816000875af115801562001e78573d6000803e3d6000fd5b505050506040513d601f19601f8201168201806040525081019062001e9e9190620032c0565b5062001ecc88838773ffffffffffffffffffffffffffffffffffffffff1662001fe09092919063ffffffff16565b8773ffffffffffffffffffffffffffffffffffffffff166310dab247868b8588886040518663ffffffff1660e01b815260040162001f0f95949392919062003378565b600060405180830381600087803b15801562001f2a57600080fd5b505af115801562001f3f573d6000803e3d6000fd5b505050505050505098975050505050505050565b62001fda846323b872dd60e01b85858560405160240162001f7793929190620033d5565b604051602081830303815290604052907bffffffffffffffffffffffffffffffffffffffffffffffffffffffff19166020820180517bffffffffffffffffffffffffffffffffffffffffffffffffffffffff8381831617835250505050620021cc565b50505050565b600081148062002070575060008373ffffffffffffffffffffffffffffffffffffffff1663dd62ed3e30856040518363ffffffff1660e01b81526004016200202a92919062003412565b602060405180830381865afa15801562002048573d6000803e3d6000fd5b505050506040513d601f19601f820116820180604052508101906200206e919062002f33565b145b620020b2576040517f08c379a0000000000000000000000000000000000000000000000000000000008152600401620020a990620034b5565b60405180910390fd5b620021378363095ea7b360e01b8484604051602401620020d4929190620034d7565b604051602081830303815290604052907bffffffffffffffffffffffffffffffffffffffffffffffffffffffff19166020820180517bffffffffffffffffffffffffffffffffffffffffffffffffffffffff8381831617835250505050620021cc565b505050565b620021488282620018aa565b620021c85762002158816200229c565b620021688360001c6020620022cb565b6040516020016200217b929190620035f1565b6040516020818303038152906040526040517f08c379a0000000000000000000000000000000000000000000000000000000008152600401620021bf919062003674565b60405180910390fd5b5050565b600062002230826040518060400160405280602081526020017f5361666545524332303a206c6f772d6c6576656c2063616c6c206661696c65648152508573ffffffffffffffffffffffffffffffffffffffff16620025269092919063ffffffff16565b905060008151148062002255575080806020019051810190620022549190620036af565b5b62002297576040517f08c379a00000000000000000000000000000000000000000000000000000000081526004016200228e9062003757565b60405180910390fd5b505050565b6060620022c48273ffffffffffffffffffffffffffffffffffffffff16601460ff16620022cb565b9050919050565b606060006002836002620022e0919062003779565b620022ec919062002ee1565b67ffffffffffffffff811115620023085762002307620037c4565b5b6040519080825280601f01601f1916602001820160405280156200233b5781602001600182028036833780820191505090505b5090507f30000000000000000000000000000000000000000000000000000000000000008160008151811062002376576200237562002e08565b5b60200101907effffffffffffffffffffffffffffffffffffffffffffffffffffffffffffff1916908160001a9053507f780000000000000000000000000000000000000000000000000000000000000081600181518110620023dd57620023dc62002e08565b5b60200101907effffffffffffffffffffffffffffffffffffffffffffffffffffffffffffff1916908160001a905350600060018460026200241f919062003779565b6200242b919062002ee1565b90505b6001811115620024d5577f3031323334353637383961626364656600000000000000000000000000000000600f86166010811062002471576200247062002e08565b5b1a60f81b8282815181106200248b576200248a62002e08565b5b60200101907effffffffffffffffffffffffffffffffffffffffffffffffffffffffffffff1916908160001a905350600485901c945080620024cd90620037f3565b90506200242e565b50600084146200251c576040517f08c379a0000000000000000000000000000000000000000000000000000000008152600401620025139062003871565b60405180910390fd5b8091505092915050565b606062002537848460008562002540565b90509392505050565b60608247101562002588576040517f08c379a00000000000000000000000000000000000000000000000000000000081526004016200257f9062003909565b60405180910390fd5b6000808673ffffffffffffffffffffffffffffffffffffffff168587604051620025b391906200392b565b60006040518083038185875af1925050503d8060008114620025f2576040519150601f19603f3d011682016040523d82523d6000602084013e620025f7565b606091505b50915091506200260a8783838762002616565b92505050949350505050565b60608315620026805760008351036200267757620026348562002695565b62002676576040517f08c379a00000000000000000000000000000000000000000000000000000000081526004016200266d9062003994565b60405180910390fd5b5b8290506200268d565b6200268c8383620026b8565b5b949350505050565b6000808273ffffffffffffffffffffffffffffffffffffffff163b119050919050565b600082511115620026cc5781518083602001fd5b806040517f08c379a000000000000000000000000000000000000000000000000000000000815260040162002702919062003674565b60405180910390fd5b612c3680620039b783390190565b600080fd5b600080fd5b60007fffffffff0000000000000000000000000000000000000000000000000000000082169050919050565b6200275a8162002723565b81146200276657600080fd5b50565b6000813590506200277a816200274f565b92915050565b60006020828403121562002799576200279862002719565b5b6000620027a98482850162002769565b91505092915050565b60008115159050919050565b620027c981620027b2565b82525050565b6000602082019050620027e66000830184620027be565b92915050565b6000819050919050565b6200280181620027ec565b81146200280d57600080fd5b50565b6000813590506200282181620027f6565b92915050565b60006020828403121562002840576200283f62002719565b5b6000620028508482850162002810565b91505092915050565b6200286481620027ec565b82525050565b600060208201905062002881600083018462002859565b92915050565b600073ffffffffffffffffffffffffffffffffffffffff82169050919050565b6000620028b48262002887565b9050919050565b620028c681620028a7565b82525050565b6000602082019050620028e36000830184620028bb565b92915050565b620028f481620028a7565b81146200290057600080fd5b50565b6000813590506200291481620028e9565b92915050565b6000806040838503121562002934576200293362002719565b5b6000620029448582860162002810565b9250506020620029578582860162002903565b9150509250929050565b6000819050919050565b620029768162002961565b82525050565b60006020820190506200299360008301846200296b565b92915050565b600080fd5b600081905082602060020282011115620029bd57620029bc62002999565b5b92915050565b600081905082602060020282011115620029e257620029e162002999565b5b92915050565b60008190508260206002028201111562002a075762002a0662002999565b5b92915050565b62002a188162002961565b811462002a2457600080fd5b50565b60008135905062002a388162002a0d565b92915050565b600080600080600060e0868803121562002a5d5762002a5c62002719565b5b600086013567ffffffffffffffff81111562002a7e5762002a7d6200271e565b5b62002a8c888289016200299e565b955050602062002a9f88828901620029c3565b945050606062002ab288828901620029e8565b93505060a062002ac58882890162002a27565b92505060c062002ad88882890162002810565b9150509295509295909350565b62002af081620027b2565b811462002afc57600080fd5b50565b60008135905062002b108162002ae5565b92915050565b60006020828403121562002b2f5762002b2e62002719565b5b600062002b3f8482850162002aff565b91505092915050565b600062002b558262002887565b9050919050565b62002b678162002b48565b811462002b7357600080fd5b50565b60008135905062002b878162002b5c565b92915050565b60006020828403121562002ba65762002ba562002719565b5b600062002bb68482850162002b76565b91505092915050565b6000806000806080858703121562002bdc5762002bdb62002719565b5b600062002bec8782880162002903565b945050602062002bff8782880162002a27565b935050604062002c128782880162002a27565b925050606062002c258782880162002aff565b91505092959194509250565b6000806040838503121562002c4b5762002c4a62002719565b5b600062002c5b8582860162002903565b925050602062002c6e8582860162002aff565b9150509250929050565b60006020828403121562002c915762002c9062002719565b5b600062002ca18482850162002903565b91505092915050565b600060408201905062002cc160008301856200296b565b62002cd060208301846200296b565b9392505050565b6000819050919050565b600062002d0262002cfc62002cf68462002887565b62002cd7565b62002887565b9050919050565b600062002d168262002ce1565b9050919050565b600062002d2a8262002d09565b9050919050565b62002d3c8162002d1d565b82525050565b600060208201905062002d59600083018462002d31565b92915050565b600082825260208201905092915050565b7f416363657373436f6e74726f6c3a2063616e206f6e6c792072656e6f756e636560008201527f20726f6c657320666f722073656c660000000000000000000000000000000000602082015250565b600062002dce602f8362002d5f565b915062002ddb8262002d70565b604082019050919050565b6000602082019050818103600083015262002e018162002dbf565b9050919050565b7f4e487b7100000000000000000000000000000000000000000000000000000000600052603260045260246000fd5b600080fd5b600080fd5b600080fd5b6000808335600160200384360303811262002e665762002e6562002e37565b5b80840192508235915067ffffffffffffffff82111562002e8b5762002e8a62002e3c565b5b60208301925060018202360383131562002eaa5762002ea962002e41565b5b509250929050565b7f4e487b7100000000000000000000000000000000000000000000000000000000600052601160045260246000fd5b600062002eee8262002961565b915062002efb8362002961565b925082820190508082111562002f165762002f1562002eb2565b5b92915050565b60008151905062002f2d8162002a0d565b92915050565b60006020828403121562002f4c5762002f4b62002719565b5b600062002f5c8482850162002f1c565b91505092915050565b82818337600083830152505050565b6000601f19601f8301169050919050565b600062002f93838562002d5f565b935062002fa283858462002f65565b62002fad8362002f74565b840190509392505050565b600060608201905062002fcf6000830188620028bb565b818103602083015262002fe481868862002f85565b9050818103604083015262002ffb81848662002f85565b90509695505050505050565b6000620030148262002961565b9150620030218362002961565b92508282039050818111156200303c576200303b62002eb2565b5b92915050565b6000819050919050565b60006200306d62003067620030618462003042565b62002cd7565b62002961565b9050919050565b6200307f816200304c565b82525050565b60006080820190506200309c6000830187620028bb565b620030ab602083018662003074565b620030ba6040830185620028bb565b620030c96060830184620028bb565b95945050505050565b600060a082019050620030e96000830188620028bb565b620030f860208301876200296b565b62003107604083018662003074565b620031166060830185620028bb565b620031256080830184620028bb565b9695505050505050565b60006060820190506200314660008301866200296b565b6200315560208301856200296b565b620031646040830184620027be565b949350505050565b600060a08201905081810360008301526200318981898b62002f85565b90508181036020830152620031a081878962002f85565b9050620031b160408301866200296b565b620031c06060830185620028bb565b620031cf6080830184620028bb565b98975050505050505050565b600081519050919050565b600081905092915050565b60005b8381101562003211578082015181840152602081019050620031f4565b60008484015250505050565b60006200322a82620031db565b620032368185620031e6565b935062003248818560208601620031f1565b80840191505092915050565b60006200326282856200321d565b91506200327082846200321d565b91508190509392505050565b6000604082019050620032936000830185620028bb565b620032a2602083018462002859565b9392505050565b600081519050620032ba81620028e9565b92915050565b600060208284031215620032d957620032d862002719565b5b6000620032e984828501620032a9565b91505092915050565b600082825260208201905092915050565b60006200331082620031db565b6200331c8185620032f2565b93506200332e818560208601620031f1565b620033398162002f74565b840191505092915050565b60006040820190506200335b600083018562002859565b81810360208301526200336f818462003303565b90509392505050565b600060a0820190506200338f6000830188620028bb565b6200339e6020830187620028bb565b620033ad60408301866200296b565b620033bc60608301856200296b565b620033cb60808301846200296b565b9695505050505050565b6000606082019050620033ec6000830186620028bb565b620033fb6020830185620028bb565b6200340a60408301846200296b565b949350505050565b6000604082019050620034296000830185620028bb565b620034386020830184620028bb565b9392505050565b7f5361666545524332303a20617070726f76652066726f6d206e6f6e2d7a65726f60008201527f20746f206e6f6e2d7a65726f20616c6c6f77616e636500000000000000000000602082015250565b60006200349d60368362002d5f565b9150620034aa826200343f565b604082019050919050565b60006020820190508181036000830152620034d0816200348e565b9050919050565b6000604082019050620034ee6000830185620028bb565b620034fd60208301846200296b565b9392505050565b600081905092915050565b7f416363657373436f6e74726f6c3a206163636f756e7420000000000000000000600082015250565b60006200354760178362003504565b915062003554826200350f565b601782019050919050565b600081519050919050565b600062003577826200355f565b62003583818562003504565b935062003595818560208601620031f1565b80840191505092915050565b7f206973206d697373696e6720726f6c6520000000000000000000000000000000600082015250565b6000620035d960118362003504565b9150620035e682620035a1565b601182019050919050565b6000620035fe8262003538565b91506200360c82856200356a565b91506200361982620035ca565b91506200362782846200356a565b91508190509392505050565b600062003640826200355f565b6200364c818562002d5f565b93506200365e818560208601620031f1565b620036698162002f74565b840191505092915050565b6000602082019050818103600083015262003690818462003633565b905092915050565b600081519050620036a98162002ae5565b92915050565b600060208284031215620036c857620036c762002719565b5b6000620036d88482850162003698565b91505092915050565b7f5361666545524332303a204552433230206f7065726174696f6e20646964206e60008201527f6f74207375636365656400000000000000000000000000000000000000000000602082015250565b60006200373f602a8362002d5f565b91506200374c82620036e1565b604082019050919050565b60006020820190508181036000830152620037728162003730565b9050919050565b6000620037868262002961565b9150620037938362002961565b9250828202620037a38162002961565b91508282048414831517620037bd57620037bc62002eb2565b5b5092915050565b7f4e487b7100000000000000000000000000000000000000000000000000000000600052604160045260246000fd5b6000620038008262002961565b91506000820362003816576200381562002eb2565b5b600182039050919050565b7f537472696e67733a20686578206c656e67746820696e73756666696369656e74600082015250565b60006200385960208362002d5f565b9150620038668262003821565b602082019050919050565b600060208201905081810360008301526200388c816200384a565b9050919050565b7f416464726573733a20696e73756666696369656e742062616c616e636520666f60008201527f722063616c6c0000000000000000000000000000000000000000000000000000602082015250565b6000620038f160268362002d5f565b9150620038fe8262003893565b604082019050919050565b600060208201905081810360008301526200392481620038e2565b9050919050565b60006200393982846200321d565b915081905092915050565b7f416464726573733a2063616c6c20746f206e6f6e2d636f6e7472616374000000600082015250565b60006200397c601d8362002d5f565b9150620039898262003944565b602082019050919050565b60006020820190508181036000830152620039af816200396d565b905091905056fe60a06040523480156200001157600080fd5b5060405162002c3638038062002c368339818101604052810190620000379190620005c7565b848481600390816200004a9190620008ce565b5080600490816200005c9190620008ce565b505050620000718284620000b860201b60201c565b7f9f2df0fed2c77648de5860a4cc508cd0818c85b8b8a1ab4ceeef8d981c8956a660808181525050620000ad608051826200022560201b60201c565b505050505062000ad0565b600073ffffffffffffffffffffffffffffffffffffffff168273ffffffffffffffffffffffffffffffffffffffff16036200012a576040517f08c379a0000000000000000000000000000000000000000000000000000000008152600401620001219062000a16565b60405180910390fd5b6200013e600083836200031760201b60201c565b806002600082825462000152919062000a67565b92505081905550806000808473ffffffffffffffffffffffffffffffffffffffff1673ffffffffffffffffffffffffffffffffffffffff168152602001908152602001600020600082825401925050819055508173ffffffffffffffffffffffffffffffffffffffff16600073ffffffffffffffffffffffffffffffffffffffff167fddf252ad1be2c89b69c2b068fc378daa952ba7f163c4a11628f55a4df523b3ef8360405162000205919062000ab3565b60405180910390a362000221600083836200031c60201b60201c565b5050565b6200023782826200032160201b60201c565b620003135760016005600084815260200190815260200160002060000160008373ffffffffffffffffffffffffffffffffffffffff1673ffffffffffffffffffffffffffffffffffffffff16815260200190815260200160002060006101000a81548160ff021916908315150217905550620002b86200038c60201b60201c565b73ffffffffffffffffffffffffffffffffffffffff168173ffffffffffffffffffffffffffffffffffffffff16837f2f8788117e7eff1d82e926ec794901d17c78024a50270940304540a733656f0d60405160405180910390a45b5050565b505050565b505050565b60006005600084815260200190815260200160002060000160008373ffffffffffffffffffffffffffffffffffffffff1673ffffffffffffffffffffffffffffffffffffffff16815260200190815260200160002060009054906101000a900460ff16905092915050565b600033905090565b6000604051905090565b600080fd5b600080fd5b600080fd5b600080fd5b6000601f19601f8301169050919050565b7f4e487b7100000000000000000000000000000000000000000000000000000000600052604160045260246000fd5b620003fd82620003b2565b810181811067ffffffffffffffff821117156200041f576200041e620003c3565b5b80604052505050565b60006200043462000394565b9050620004428282620003f2565b919050565b600067ffffffffffffffff821115620004655762000464620003c3565b5b6200047082620003b2565b9050602081019050919050565b60005b838110156200049d57808201518184015260208101905062000480565b60008484015250505050565b6000620004c0620004ba8462000447565b62000428565b905082815260208101848484011115620004df57620004de620003ad565b5b620004ec8482856200047d565b509392505050565b600082601f8301126200050c576200050b620003a8565b5b81516200051e848260208601620004a9565b91505092915050565b6000819050919050565b6200053c8162000527565b81146200054857600080fd5b50565b6000815190506200055c8162000531565b92915050565b600073ffffffffffffffffffffffffffffffffffffffff82169050919050565b60006200058f8262000562565b9050919050565b620005a18162000582565b8114620005ad57600080fd5b50565b600081519050620005c18162000596565b92915050565b600080600080600060a08688031215620005e657620005e56200039e565b5b600086015167ffffffffffffffff811115620006075762000606620003a3565b5b6200061588828901620004f4565b955050602086015167ffffffffffffffff811115620006395762000638620003a3565b5b6200064788828901620004f4565b94505060406200065a888289016200054b565b93505060606200066d88828901620005b0565b92505060806200068088828901620005b0565b9150509295509295909350565b600081519050919050565b7f4e487b7100000000000000000000000000000000000000000000000000000000600052602260045260246000fd5b60006002820490506001821680620006e057607f821691505b602082108103620006f657620006f562000698565b5b50919050565b60008190508160005260206000209050919050565b60006020601f8301049050919050565b600082821b905092915050565b600060088302620007607fffffffffffffffffffffffffffffffffffffffffffffffffffffffffffffffff8262000721565b6200076c868362000721565b95508019841693508086168417925050509392505050565b6000819050919050565b6000620007af620007a9620007a38462000527565b62000784565b62000527565b9050919050565b6000819050919050565b620007cb836200078e565b620007e3620007da82620007b6565b8484546200072e565b825550505050565b600090565b620007fa620007eb565b62000807818484620007c0565b505050565b5b818110156200082f5762000823600082620007f0565b6001810190506200080d565b5050565b601f8211156200087e576200084881620006fc565b620008538462000711565b8101602085101562000863578190505b6200087b620008728562000711565b8301826200080c565b50505b505050565b600082821c905092915050565b6000620008a36000198460080262000883565b1980831691505092915050565b6000620008be838362000890565b9150826002028217905092915050565b620008d9826200068d565b67ffffffffffffffff811115620008f557620008f4620003c3565b5b620009018254620006c7565b6200090e82828562000833565b600060209050601f83116001811462000946576000841562000931578287015190505b6200093d8582620008b0565b865550620009ad565b601f1984166200095686620006fc565b60005b82811015620009805784890151825560018201915060208501945060208101905062000959565b86831015620009a057848901516200099c601f89168262000890565b8355505b6001600288020188555050505b505050505050565b600082825260208201905092915050565b7f45524332303a206d696e7420746f20746865207a65726f206164647265737300600082015250565b6000620009fe601f83620009b5565b915062000a0b82620009c6565b602082019050919050565b6000602082019050818103600083015262000a3181620009ef565b9050919050565b7f4e487b7100000000000000000000000000000000000000000000000000000000600052601160045260246000fd5b600062000a748262000527565b915062000a818362000527565b925082820190508082111562000a9c5762000a9b62000a38565b5b92915050565b62000aad8162000527565b82525050565b600060208201905062000aca600083018462000aa2565b92915050565b60805161214362000af3600039600081816106a801526108c701526121436000f3fe608060405234801561001057600080fd5b506004361061012c5760003560e01c806340c10f19116100ad578063a457c2d711610071578063a457c2d71461036b578063a9059cbb1461039b578063d5391393146103cb578063d547741f146103e9578063dd62ed3e146104055761012c565b806340c10f19146102b357806370a08231146102cf57806391d14854146102ff57806395d89b411461032f578063a217fddf1461034d5761012c565b8063248a9ca3116100f4578063248a9ca3146101fd5780632f2ff15d1461022d578063313ce5671461024957806336568abe1461026757806339509351146102835761012c565b806301ffc9a71461013157806306fdde0314610161578063095ea7b31461017f57806318160ddd146101af57806323b872dd146101cd575b600080fd5b61014b6004803603810190610146919061155a565b610435565b60405161015891906115a2565b60405180910390f35b6101696104af565b604051610176919061164d565b60405180910390f35b61019960048036038101906101949190611703565b610541565b6040516101a691906115a2565b60405180910390f35b6101b7610564565b6040516101c49190611752565b60405180910390f35b6101e760048036038101906101e2919061176d565b610573565b6040516101f491906115a2565b60405180910390f35b610217600480360381019061021291906117f6565b6105a2565b6040516102249190611832565b60405180910390f35b6102476004803603810190610242919061184d565b6105c2565b005b6102516105e3565b60405161025e91906118a9565b60405180910390f35b610281600480360381019061027c919061184d565b6105ec565b005b61029d60048036038101906102989190611703565b61066f565b6040516102aa91906115a2565b60405180910390f35b6102cd60048036038101906102c89190611703565b6106a6565b005b6102e960048036038101906102e491906118c4565b6106df565b6040516102f69190611752565b60405180910390f35b6103196004803603810190610314919061184d565b610727565b60405161032691906115a2565b60405180910390f35b610337610792565b604051610344919061164d565b60405180910390f35b610355610824565b6040516103629190611832565b60405180910390f35b61038560048036038101906103809190611703565b61082b565b60405161039291906115a2565b60405180910390f35b6103b560048036038101906103b09190611703565b6108a2565b6040516103c291906115a2565b60405180910390f35b6103d36108c5565b6040516103e09190611832565b60405180910390f35b61040360048036038101906103fe919061184d565b6108e9565b005b61041f600480360381019061041a91906118f1565b61090a565b60405161042c9190611752565b60405180910390f35b60007f7965db0b000000000000000000000000000000000000000000000000000000007bffffffffffffffffffffffffffffffffffffffffffffffffffffffff1916827bffffffffffffffffffffffffffffffffffffffffffffffffffffffff191614806104a857506104a782610991565b5b9050919050565b6060600380546104be90611960565b80601f01602080910402602001604051908101604052809291908181526020018280546104ea90611960565b80156105375780601f1061050c57610100808354040283529160200191610537565b820191906000526020600020905b81548152906001019060200180831161051a57829003601f168201915b5050505050905090565b60008061054c6109fb565b9050610559818585610a03565b600191505092915050565b600061056e610bcc565b905090565b60008061057e6109fb565b905061058b858285610bd6565b610596858585610c62565b60019150509392505050565b600060056000838152602001908152602001600020600101549050919050565b6105cb826105a2565b6105d481610ed8565b6105de8383610eec565b505050565b60006012905090565b6105f46109fb565b73ffffffffffffffffffffffffffffffffffffffff168173ffffffffffffffffffffffffffffffffffffffff1614610661576040517f08c379a000000000000000000000000000000000000000000000000000000000815260040161065890611a03565b60405180910390fd5b61066b8282610fcd565b5050565b60008061067a6109fb565b905061069b81858561068c858961090a565b6106969190611a52565b610a03565b600191505092915050565b7f00000000000000000000000000000000000000000000000000000000000000006106d081610ed8565b6106da83836110af565b505050565b60008060008373ffffffffffffffffffffffffffffffffffffffff1673ffffffffffffffffffffffffffffffffffffffff168152602001908152602001600020549050919050565b60006005600084815260200190815260200160002060000160008373ffffffffffffffffffffffffffffffffffffffff1673ffffffffffffffffffffffffffffffffffffffff16815260200190815260200160002060009054906101000a900460ff16905092915050565b6060600480546107a190611960565b80601f01602080910402602001604051908101604052809291908181526020018280546107cd90611960565b801561081a5780601f106107ef5761010080835404028352916020019161081a565b820191906000526020600020905b8154815290600101906020018083116107fd57829003601f168201915b5050505050905090565b6000801b81565b6000806108366109fb565b90506000610844828661090a565b905083811015610889576040517f08c379a000000000000000000000000000000000000000000000000000000000815260040161088090611af8565b60405180910390fd5b6108968286868403610a03565b60019250505092915050565b6000806108ad6109fb565b90506108ba818585610c62565b600191505092915050565b7f000000000000000000000000000000000000000000000000000000000000000081565b6108f2826105a2565b6108fb81610ed8565b6109058383610fcd565b505050565b6000600160008473ffffffffffffffffffffffffffffffffffffffff1673ffffffffffffffffffffffffffffffffffffffff16815260200190815260200160002060008373ffffffffffffffffffffffffffffffffffffffff1673ffffffffffffffffffffffffffffffffffffffff16815260200190815260200160002054905092915050565b60007f01ffc9a7000000000000000000000000000000000000000000000000000000007bffffffffffffffffffffffffffffffffffffffffffffffffffffffff1916827bffffffffffffffffffffffffffffffffffffffffffffffffffffffff1916149050919050565b600033905090565b600073ffffffffffffffffffffffffffffffffffffffff168373ffffffffffffffffffffffffffffffffffffffff1603610a72576040517f08c379a0000000000000000000000000000000000000000000000000000000008152600401610a6990611b8a565b60405180910390fd5b600073ffffffffffffffffffffffffffffffffffffffff168273ffffffffffffffffffffffffffffffffffffffff1603610ae1576040517f08c379a0000000000000000000000000000000000000000000000000000000008152600401610ad890611c1c565b60405180910390fd5b80600160008573ffffffffffffffffffffffffffffffffffffffff1673ffffffffffffffffffffffffffffffffffffffff16815260200190815260200160002060008473ffffffffffffffffffffffffffffffffffffffff1673ffffffffffffffffffffffffffffffffffffffff168152602001908152602001600020819055508173ffffffffffffffffffffffffffffffffffffffff168373ffffffffffffffffffffffffffffffffffffffff167f8c5be1e5ebec7d5bd14f71427d1e84f3dd0314c0f7b2291e5b200ac8c7c3b92583604051610bbf9190611752565b60405180910390a3505050565b6000600254905090565b6000610be2848461090a565b90507fffffffffffffffffffffffffffffffffffffffffffffffffffffffffffffffff8114610c5c5781811015610c4e576040517f08c379a0000000000000000000000000000000000000000000000000000000008152600401610c4590611c88565b60405180910390fd5b610c5b8484848403610a03565b5b50505050565b600073ffffffffffffffffffffffffffffffffffffffff168373ffffffffffffffffffffffffffffffffffffffff1603610cd1576040517f08c379a0000000000000000000000000000000000000000000000000000000008152600401610cc890611d1a565b60405180910390fd5b600073ffffffffffffffffffffffffffffffffffffffff168273ffffffffffffffffffffffffffffffffffffffff1603610d40576040517f08c379a0000000000000000000000000000000000000000000000000000000008152600401610d3790611dac565b60405180910390fd5b610d4b838383611205565b60008060008573ffffffffffffffffffffffffffffffffffffffff1673ffffffffffffffffffffffffffffffffffffffff16815260200190815260200160002054905081811015610dd1576040517f08c379a0000000000000000000000000000000000000000000000000000000008152600401610dc890611e3e565b60405180910390fd5b8181036000808673ffffffffffffffffffffffffffffffffffffffff1673ffffffffffffffffffffffffffffffffffffffff16815260200190815260200160002081905550816000808573ffffffffffffffffffffffffffffffffffffffff1673ffffffffffffffffffffffffffffffffffffffff168152602001908152602001600020600082825401925050819055508273ffffffffffffffffffffffffffffffffffffffff168473ffffffffffffffffffffffffffffffffffffffff167fddf252ad1be2c89b69c2b068fc378daa952ba7f163c4a11628f55a4df523b3ef84604051610ebf9190611752565b60405180910390a3610ed284848461120a565b50505050565b610ee981610ee46109fb565b61120f565b50565b610ef68282610727565b610fc95760016005600084815260200190815260200160002060000160008373ffffffffffffffffffffffffffffffffffffffff1673ffffffffffffffffffffffffffffffffffffffff16815260200190815260200160002060006101000a81548160ff021916908315150217905550610f6e6109fb565b73ffffffffffffffffffffffffffffffffffffffff168173ffffffffffffffffffffffffffffffffffffffff16837f2f8788117e7eff1d82e926ec794901d17c78024a50270940304540a733656f0d60405160405180910390a45b5050565b610fd78282610727565b156110ab5760006005600084815260200190815260200160002060000160008373ffffffffffffffffffffffffffffffffffffffff1673ffffffffffffffffffffffffffffffffffffffff16815260200190815260200160002060006101000a81548160ff0219169083151502179055506110506109fb565b73ffffffffffffffffffffffffffffffffffffffff168173ffffffffffffffffffffffffffffffffffffffff16837ff6391f5c32d9c69d2a47ea670b442974b53935d1edc7fd64eb21e047a839171b60405160405180910390a45b5050565b600073ffffffffffffffffffffffffffffffffffffffff168273ffffffffffffffffffffffffffffffffffffffff160361111e576040517f08c379a000000000000000000000000000000000000000000000000000000000815260040161111590611eaa565b60405180910390fd5b61112a60008383611205565b806002600082825461113c9190611a52565b92505081905550806000808473ffffffffffffffffffffffffffffffffffffffff1673ffffffffffffffffffffffffffffffffffffffff168152602001908152602001600020600082825401925050819055508173ffffffffffffffffffffffffffffffffffffffff16600073ffffffffffffffffffffffffffffffffffffffff167fddf252ad1be2c89b69c2b068fc378daa952ba7f163c4a11628f55a4df523b3ef836040516111ed9190611752565b60405180910390a36112016000838361120a565b5050565b505050565b505050565b6112198282610727565b6112905761122681611294565b6112348360001c60206112c1565b604051602001611245929190611f9e565b6040516020818303038152906040526040517f08c379a0000000000000000000000000000000000000000000000000000000008152600401611287919061164d565b60405180910390fd5b5050565b60606112ba8273ffffffffffffffffffffffffffffffffffffffff16601460ff166112c1565b9050919050565b6060600060028360026112d49190611fd8565b6112de9190611a52565b67ffffffffffffffff8111156112f7576112f661201a565b5b6040519080825280601f01601f1916602001820160405280156113295781602001600182028036833780820191505090505b5090507f30000000000000000000000000000000000000000000000000000000000000008160008151811061136157611360612049565b5b60200101907effffffffffffffffffffffffffffffffffffffffffffffffffffffffffffff1916908160001a9053507f7800000000000000000000000000000000000000000000000000000000000000816001815181106113c5576113c4612049565b5b60200101907effffffffffffffffffffffffffffffffffffffffffffffffffffffffffffff1916908160001a905350600060018460026114059190611fd8565b61140f9190611a52565b90505b60018111156114af577f3031323334353637383961626364656600000000000000000000000000000000600f86166010811061145157611450612049565b5b1a60f81b82828151811061146857611467612049565b5b60200101907effffffffffffffffffffffffffffffffffffffffffffffffffffffffffffff1916908160001a905350600485901c9450806114a890612078565b9050611412565b50600084146114f3576040517f08c379a00000000000000000000000000000000000000000000000000000000081526004016114ea906120ed565b60405180910390fd5b8091505092915050565b600080fd5b60007fffffffff0000000000000000000000000000000000000000000000000000000082169050919050565b61153781611502565b811461154257600080fd5b50565b6000813590506115548161152e565b92915050565b6000602082840312156115705761156f6114fd565b5b600061157e84828501611545565b91505092915050565b60008115159050919050565b61159c81611587565b82525050565b60006020820190506115b76000830184611593565b92915050565b600081519050919050565b600082825260208201905092915050565b60005b838110156115f75780820151818401526020810190506115dc565b60008484015250505050565b6000601f19601f8301169050919050565b600061161f826115bd565b61162981856115c8565b93506116398185602086016115d9565b61164281611603565b840191505092915050565b600060208201905081810360008301526116678184611614565b905092915050565b600073ffffffffffffffffffffffffffffffffffffffff82169050919050565b600061169a8261166f565b9050919050565b6116aa8161168f565b81146116b557600080fd5b50565b6000813590506116c7816116a1565b92915050565b6000819050919050565b6116e0816116cd565b81146116eb57600080fd5b50565b6000813590506116fd816116d7565b92915050565b6000806040838503121561171a576117196114fd565b5b6000611728858286016116b8565b9250506020611739858286016116ee565b9150509250929050565b61174c816116cd565b82525050565b60006020820190506117676000830184611743565b92915050565b600080600060608486031215611786576117856114fd565b5b6000611794868287016116b8565b93505060206117a5868287016116b8565b92505060406117b6868287016116ee565b9150509250925092565b6000819050919050565b6117d3816117c0565b81146117de57600080fd5b50565b6000813590506117f0816117ca565b92915050565b60006020828403121561180c5761180b6114fd565b5b600061181a848285016117e1565b91505092915050565b61182c816117c0565b82525050565b60006020820190506118476000830184611823565b92915050565b60008060408385031215611864576118636114fd565b5b6000611872858286016117e1565b9250506020611883858286016116b8565b9150509250929050565b600060ff82169050919050565b6118a38161188d565b82525050565b60006020820190506118be600083018461189a565b92915050565b6000602082840312156118da576118d96114fd565b5b60006118e8848285016116b8565b91505092915050565b60008060408385031215611908576119076114fd565b5b6000611916858286016116b8565b9250506020611927858286016116b8565b9150509250929050565b7f4e487b7100000000000000000000000000000000000000000000000000000000600052602260045260246000fd5b6000600282049050600182168061197857607f821691505b60208210810361198b5761198a611931565b5b50919050565b7f416363657373436f6e74726f6c3a2063616e206f6e6c792072656e6f756e636560008201527f20726f6c657320666f722073656c660000000000000000000000000000000000602082015250565b60006119ed602f836115c8565b91506119f882611991565b604082019050919050565b60006020820190508181036000830152611a1c816119e0565b9050919050565b7f4e487b7100000000000000000000000000000000000000000000000000000000600052601160045260246000fd5b6000611a5d826116cd565b9150611a68836116cd565b9250828201905080821115611a8057611a7f611a23565b5b92915050565b7f45524332303a2064656372656173656420616c6c6f77616e63652062656c6f7760008201527f207a65726f000000000000000000000000000000000000000000000000000000602082015250565b6000611ae26025836115c8565b9150611aed82611a86565b604082019050919050565b60006020820190508181036000830152611b1181611ad5565b9050919050565b7f45524332303a20617070726f76652066726f6d20746865207a65726f2061646460008201527f7265737300000000000000000000000000000000000000000000000000000000602082015250565b6000611b746024836115c8565b9150611b7f82611b18565b604082019050919050565b60006020820190508181036000830152611ba381611b67565b9050919050565b7f45524332303a20617070726f766520746f20746865207a65726f20616464726560008201527f7373000000000000000000000000000000000000000000000000000000000000602082015250565b6000611c066022836115c8565b9150611c1182611baa565b604082019050919050565b60006020820190508181036000830152611c3581611bf9565b9050919050565b7f45524332303a20696e73756666696369656e7420616c6c6f77616e6365000000600082015250565b6000611c72601d836115c8565b9150611c7d82611c3c565b602082019050919050565b60006020820190508181036000830152611ca181611c65565b9050919050565b7f45524332303a207472616e736665722066726f6d20746865207a65726f20616460008201527f6472657373000000000000000000000000000000000000000000000000000000602082015250565b6000611d046025836115c8565b9150611d0f82611ca8565b604082019050919050565b60006020820190508181036000830152611d3381611cf7565b9050919050565b7f45524332303a207472616e7366657220746f20746865207a65726f206164647260008201527f6573730000000000000000000000000000000000000000000000000000000000602082015250565b6000611d966023836115c8565b9150611da182611d3a565b604082019050919050565b60006020820190508181036000830152611dc581611d89565b9050919050565b7f45524332303a207472616e7366657220616d6f756e742065786365656473206260008201527f616c616e63650000000000000000000000000000000000000000000000000000602082015250565b6000611e286026836115c8565b9150611e3382611dcc565b604082019050919050565b60006020820190508181036000830152611e5781611e1b565b9050919050565b7f45524332303a206d696e7420746f20746865207a65726f206164647265737300600082015250565b6000611e94601f836115c8565b9150611e9f82611e5e565b602082019050919050565b60006020820190508181036000830152611ec381611e87565b9050919050565b600081905092915050565b7f416363657373436f6e74726f6c3a206163636f756e7420000000000000000000600082015250565b6000611f0b601783611eca565b9150611f1682611ed5565b601782019050919050565b6000611f2c826115bd565b611f368185611eca565b9350611f468185602086016115d9565b80840191505092915050565b7f206973206d697373696e6720726f6c6520000000000000000000000000000000600082015250565b6000611f88601183611eca565b9150611f9382611f52565b601182019050919050565b6000611fa982611efe565b9150611fb58285611f21565b9150611fc082611f7b565b9150611fcc8284611f21565b91508190509392505050565b6000611fe3826116cd565b9150611fee836116cd565b9250828202611ffc816116cd565b9150828204841483151761201357612012611a23565b5b5092915050565b7f4e487b7100000000000000000000000000000000000000000000000000000000600052604160045260246000fd5b7f4e487b7100000000000000000000000000000000000000000000000000000000600052603260045260246000fd5b6000612083826116cd565b91506000820361209657612095611a23565b5b600182039050919050565b7f537472696e67733a20686578206c656e67746820696e73756666696369656e74600082015250565b60006120d76020836115c8565b91506120e2826120a1565b602082019050919050565b60006020820190508181036000830152612106816120ca565b905091905056fea2646970667358221220b69434936ccebe5d665de5023c79bb1776d95e205bedfdc4894f045de752ad1364736f6c63430008130033a26469706673582212205958bbe55a5098065f93d1c950343bdefe2d0222885f9abfa567cdfc12b5746364736f6c63430008130033","linkReferences":{}},"methodIdentifiers":{"CREATE_DEPLOYER()":"27dc11f0","DEFAULT_ADMIN_ROLE()":"a217fddf","INITIAL_SUPPLY()":"2ff2e9dc","OWNER_ROLE()":"e58378bb","allowTokenCreation()":"f7778165","createToken(string[2],address[2],uint256[2],uint256,bytes32)":"3ba96fd6","feeManager()":"d0fb0203","getRoleAdmin(bytes32)":"248a9ca3","grantRole(bytes32,address)":"2f2ff15d","hasRole(bytes32,address)":"91d14854","isDeployed(address)":"90184b02","raiseAmounts(address)":"63eb4eec","renounceRole(bytes32,address)":"36568abe","revokeRole(bytes32,address)":"d547741f","setAllowTokenCreation(bool)":"3da0fd31","setAllowedBaseToken(address,uint256,uint256,bool)":"5601df4f","setFeeManager(address)":"472d35b9","setVault(address,bool)":"627f66c6","supportsInterface(bytes4)":"01ffc9a7","vaults(address)":"a622ee7c","whitelistedBaseTokens(address)":"bcba9276"},"id":2}