{"abi":[{"type":"constructor","inputs":[{"name":"_treasury","type":"address","internalType":"address"},{"name":"_tradingFeeBps","type":"uint256","internalType":"uint256"},{"name":"_listingFee","type":"uint256","internalType":"uint256"},{"name":"_migrationFeeBps","type":"uint256","internalType":"uint256"}],"stateMutability":"nonpayable"},{"type":"function","name":"FEE_DIVISOR","inputs":[],"outputs":[{"name":"","type":"uint256","internalType":"uint256"}],"stateMutability":"view"},{"type":"function","name":"collectListingFee","inputs":[],"outputs":[],"stateMutability":"payable"},{"type":"function","name":"collectMigrationFee","inputs":[{"name":"token","type":"address","internalType":"address"},{"name":"amount","type":"uint256","internalType":"uint256"}],"outputs":[],"stateMutability":"nonpayable"},{"type":"function","name":"collectTradingFee","inputs":[{"name":"token","type":"address","internalType":"address"},{"name":"amount","type":"uint256","internalType":"uint256"}],"outputs":[],"stateMutability":"nonpayable"},{"type":"function","name":"listingFee","inputs":[],"outputs":[{"name":"","type":"uint256","internalType":"uint256"}],"stateMutability":"view"},{"type":"function","name":"migrationFeeBps","inputs":[],"outputs":[{"name":"","type":"uint256","internalType":"uint256"}],"stateMutability":"view"},{"type":"function","name":"owner","inputs":[],"outputs":[{"name":"","type":"address","internalType":"address"}],"stateMutability":"view"},{"type":"function","name":"quoteMigrationFee","inputs":[{"name":"amount","type":"uint256","internalType":"uint256"}],"outputs":[{"name":"fee","type":"uint256","internalType":"uint256"}],"stateMutability":"view"},{"type":"function","name":"quoteTradingFee","inputs":[{"name":"amount","type":"uint256","internalType":"uint256"}],"outputs":[{"name":"fee","type":"uint256","internalType":"uint256"}],"stateMutability":"view"},{"type":"function","name":"renounceOwnership","inputs":[],"outputs":[],"stateMutability":"nonpayable"},{"type":"function","name":"setListingFee","inputs":[{"name":"listingFee_","type":"uint256","internalType":"uint256"}],"outputs":[],"stateMutability":"nonpayable"},{"type":"function","name":"setMigrationFeeBps","inputs":[{"name":"feeBps_","type":"uint256","internalType":"uint256"}],"outputs":[],"stateMutability":"nonpayable"},{"type":"function","name":"setTradingFeeBps","inputs":[{"name":"feeBps_","type":"uint256","internalType":"uint256"}],"outputs":[],"stateMutability":"nonpayable"},{"type":"function","name":"setTreasury","inputs":[{"name":"treasury_","type":"address","internalType":"address"}],"outputs":[],"stateMutability":"nonpayable"},{"type":"function","name":"tradingFeeBps","inputs":[],"outputs":[{"name":"","type":"uint256","internalType":"uint256"}],"stateMutability":"view"},{"type":"function","name":"transferOwnership","inputs":[{"name":"newOwner","type":"address","internalType":"address"}],"outputs":[],"stateMutability":"nonpayable"},{"type":"function","name":"treasury","inputs":[],"outputs":[{"name":"","type":"address","internalType":"address"}],"stateMutability":"view"},{"type":"event","name":"FeeReceived","inputs":[{"name":"token","type":"address","indexed":true,"internalType":"address"},{"name":"amount","type":"uint256","indexed":false,"internalType":"uint256"}],"anonymous":false},{"type":"event","name":"ListingFeeSet","inputs":[{"name":"listingFee","type":"uint256","indexed":false,"internalType":"uint256"}],"anonymous":false},{"type":"event","name":"MigrationFeeSet","inputs":[{"name":"migrationFeeBps","type":"uint256","indexed":false,"internalType":"uint256"}],"anonymous":false},{"type":"event","name":"NativeFeeReceived","inputs":[{"name":"amount","type":"uint256","indexed":false,"internalType":"uint256"}],"anonymous":false},{"type":"event","name":"OwnershipTransferred","inputs":[{"name":"previousOwner","type":"address","indexed":true,"internalType":"address"},{"name":"newOwner","type":"address","indexed":true,"internalType":"address"}],"anonymous":false},{"type":"event","name":"TradingFeeSet","inputs":[{"name":"tradingFeeBps","type":"uint256","indexed":false,"internalType":"uint256"}],"anonymous":false},{"type":"event","name":"TreasurySet","inputs":[{"name":"treasury","type":"address","indexed":true,"internalType":"address"}],"anonymous":false},{"type":"error","name":"FeeManager_AmountAboveFeeDivisor","inputs":[]},{"type":"error","name":"FeeManager_InsufficientFee","inputs":[]},{"type":"error","name":"FeeManager_TreasuryAddressZero","inputs":[]}],"bytecode":{"object":"0x60806040523480156200001157600080fd5b50604051620018ed380380620018ed833981810160405281019062000037919062000360565b620000576200004b620001ef60201b60201c565b620001f760201b60201c565b61271083118062000069575061271081115b15620000a1576040517fcffa0f9000000000000000000000000000000000000000000000000000000000815260040160405180910390fd5b83600460006101000a81548173ffffffffffffffffffffffffffffffffffffffff021916908373ffffffffffffffffffffffffffffffffffffffff1602179055508260018190555081600381905550806002819055508373ffffffffffffffffffffffffffffffffffffffff167f3c864541ef71378c6229510ed90f376565ee42d9c5e0904a984a9e863e6db44f60405160405180910390a27f8dac05368d9e10fc43395ddcbdcae6457d0b4c159bc464504c1b386aed79be12836040516200016b9190620003e3565b60405180910390a17f1e824c7e20e36968ef401e2236f2bf4779d7c0792b029593bb95c98f3567ca5582604051620001a49190620003e3565b60405180910390a17f9aa4f1fb137134e7d5370b3834704c5b895660674a57e34adbe6c21308e96c2681604051620001dd9190620003e3565b60405180910390a15050505062000400565b600033905090565b60008060009054906101000a900473ffffffffffffffffffffffffffffffffffffffff169050816000806101000a81548173ffffffffffffffffffffffffffffffffffffffff021916908373ffffffffffffffffffffffffffffffffffffffff1602179055508173ffffffffffffffffffffffffffffffffffffffff168173ffffffffffffffffffffffffffffffffffffffff167f8be0079c531659141344cd1fd0a4f28419497f9722a3daafe3b4186f6b6457e060405160405180910390a35050565b600080fd5b600073ffffffffffffffffffffffffffffffffffffffff82169050919050565b6000620002ed82620002c0565b9050919050565b620002ff81620002e0565b81146200030b57600080fd5b50565b6000815190506200031f81620002f4565b92915050565b6000819050919050565b6200033a8162000325565b81146200034657600080fd5b50565b6000815190506200035a816200032f565b92915050565b600080600080608085870312156200037d576200037c620002bb565b5b60006200038d878288016200030e565b9450506020620003a08782880162000349565b9350506040620003b38782880162000349565b9250506060620003c68782880162000349565b91505092959194509250565b620003dd8162000325565b82525050565b6000602082019050620003fa6000830184620003d2565b92915050565b6114dd80620004106000396000f3fe6080604052600436106100fd5760003560e01c80638987166d11610095578063b2abb33011610064578063b2abb3301461030e578063bd63ccf314610318578063f0f4426014610341578063f2fde38b1461036a578063f93951cd14610393576100fd565b80638987166d146102645780638da5cb5b1461028d578063924cca9a146102b85780639e93ad8e146102e3576100fd565b80635a4a2d6b116100d15780635a4a2d6b146101ce57806361d027b3146101f75780636a1b7ecc14610222578063715018a61461024d576100fd565b806250b12a146101025780630e95ea371461012b578063131dbd091461016857806350059ebe14610191575b600080fd5b34801561010e57600080fd5b5061012960048036038101906101249190610e15565b6103be565b005b34801561013757600080fd5b50610152600480360381019061014d9190610e15565b610443565b60405161015f9190610e51565b60405180910390f35b34801561017457600080fd5b5061018f600480360381019061018a9190610e15565b610467565b005b34801561019d57600080fd5b506101b860048036038101906101b39190610e15565b6104b0565b6040516101c59190610e51565b60405180910390f35b3480156101da57600080fd5b506101f560048036038101906101f09190610eca565b6104d4565b005b34801561020357600080fd5b5061020c6104e2565b6040516102199190610f19565b60405180910390f35b34801561022e57600080fd5b50610237610508565b6040516102449190610e51565b60405180910390f35b34801561025957600080fd5b5061026261050e565b005b34801561027057600080fd5b5061028b60048036038101906102869190610eca565b610522565b005b34801561029957600080fd5b506102a2610548565b6040516102af9190610f19565b60405180910390f35b3480156102c457600080fd5b506102cd610571565b6040516102da9190610e51565b60405180910390f35b3480156102ef57600080fd5b506102f8610577565b6040516103059190610e51565b60405180910390f35b61031661057d565b005b34801561032457600080fd5b5061033f600480360381019061033a9190610e15565b6106c7565b005b34801561034d57600080fd5b5061036860048036038101906103639190610f34565b61074c565b005b34801561037657600080fd5b50610391600480360381019061038c9190610f34565b610841565b005b34801561039f57600080fd5b506103a86108c4565b6040516103b59190610e51565b60405180910390f35b6103c66108ca565b612710811115610402576040517fcffa0f9000000000000000000000000000000000000000000000000000000000815260040160405180910390fd5b806002819055507f9aa4f1fb137134e7d5370b3834704c5b895660674a57e34adbe6c21308e96c26816040516104389190610e51565b60405180910390a150565b6000612710600254836104569190610f90565b6104609190611001565b9050919050565b61046f6108ca565b806003819055507f1e824c7e20e36968ef401e2236f2bf4779d7c0792b029593bb95c98f3567ca55816040516104a59190610e51565b60405180910390a150565b6000612710600154836104c39190610f90565b6104cd9190611001565b9050919050565b6104de8282610948565b5050565b600460009054906101000a900473ffffffffffffffffffffffffffffffffffffffff1681565b60035481565b6105166108ca565b61052060006109f0565b565b600061052d82610443565b90506000811115610543576105428382610948565b5b505050565b60008060009054906101000a900473ffffffffffffffffffffffffffffffffffffffff16905090565b60015481565b61271081565b6000600354905060008111156106c4578034146105c6576040517f9123a86e00000000000000000000000000000000000000000000000000000000815260040160405180910390fd5b6000600460009054906101000a900473ffffffffffffffffffffffffffffffffffffffff1673ffffffffffffffffffffffffffffffffffffffff168260405161060e90611063565b60006040518083038185875af1925050503d806000811461064b576040519150601f19603f3d011682016040523d82523d6000602084013e610650565b606091505b505090508061068b576040517f9123a86e00000000000000000000000000000000000000000000000000000000815260040160405180910390fd5b7f756e8f9a840ab83a8c57e6efde4c58ee64c05bb63210b0a86e932424a7462a60826040516106ba9190610e51565b60405180910390a1505b50565b6106cf6108ca565b61271081111561070b576040517fcffa0f9000000000000000000000000000000000000000000000000000000000815260040160405180910390fd5b806001819055507f8dac05368d9e10fc43395ddcbdcae6457d0b4c159bc464504c1b386aed79be12816040516107419190610e51565b60405180910390a150565b6107546108ca565b600073ffffffffffffffffffffffffffffffffffffffff168173ffffffffffffffffffffffffffffffffffffffff16036107ba576040517f16de6a1a00000000000000000000000000000000000000000000000000000000815260040160405180910390fd5b80600460006101000a81548173ffffffffffffffffffffffffffffffffffffffff021916908373ffffffffffffffffffffffffffffffffffffffff1602179055508073ffffffffffffffffffffffffffffffffffffffff167f3c864541ef71378c6229510ed90f376565ee42d9c5e0904a984a9e863e6db44f60405160405180910390a250565b6108496108ca565b600073ffffffffffffffffffffffffffffffffffffffff168173ffffffffffffffffffffffffffffffffffffffff16036108b8576040517f08c379a00000000000000000000000000000000000000000000000000000000081526004016108af906110fb565b60405180910390fd5b6108c1816109f0565b50565b60025481565b6108d2610ab4565b73ffffffffffffffffffffffffffffffffffffffff166108f0610548565b73ffffffffffffffffffffffffffffffffffffffff1614610946576040517f08c379a000000000000000000000000000000000000000000000000000000000815260040161093d90611167565b60405180910390fd5b565b61099e610953610ab4565b600460009054906101000a900473ffffffffffffffffffffffffffffffffffffffff16838573ffffffffffffffffffffffffffffffffffffffff16610abc909392919063ffffffff16565b8173ffffffffffffffffffffffffffffffffffffffff167fbb527541f6cc244ae00ab689f8c23d072a30a3b4176021df62ea1c2bac8aa226826040516109e49190610e51565b60405180910390a25050565b60008060009054906101000a900473ffffffffffffffffffffffffffffffffffffffff169050816000806101000a81548173ffffffffffffffffffffffffffffffffffffffff021916908373ffffffffffffffffffffffffffffffffffffffff1602179055508173ffffffffffffffffffffffffffffffffffffffff168173ffffffffffffffffffffffffffffffffffffffff167f8be0079c531659141344cd1fd0a4f28419497f9722a3daafe3b4186f6b6457e060405160405180910390a35050565b600033905090565b610b3f846323b872dd60e01b858585604051602401610add93929190611187565b604051602081830303815290604052907bffffffffffffffffffffffffffffffffffffffffffffffffffffffff19166020820180517bffffffffffffffffffffffffffffffffffffffffffffffffffffffff8381831617835250505050610b45565b50505050565b6000610ba7826040518060400160405280602081526020017f5361666545524332303a206c6f772d6c6576656c2063616c6c206661696c65648152508573ffffffffffffffffffffffffffffffffffffffff16610c0d9092919063ffffffff16565b9050600081511480610bc9575080806020019051810190610bc891906111f6565b5b610c08576040517f08c379a0000000000000000000000000000000000000000000000000000000008152600401610bff90611295565b60405180910390fd5b505050565b6060610c1c8484600085610c25565b90509392505050565b606082471015610c6a576040517f08c379a0000000000000000000000000000000000000000000000000000000008152600401610c6190611327565b60405180910390fd5b6000808673ffffffffffffffffffffffffffffffffffffffff168587604051610c9391906113ad565b60006040518083038185875af1925050503d8060008114610cd0576040519150601f19603f3d011682016040523d82523d6000602084013e610cd5565b606091505b5091509150610ce687838387610cf2565b92505050949350505050565b60608315610d54576000835103610d4c57610d0c85610d67565b610d4b576040517f08c379a0000000000000000000000000000000000000000000000000000000008152600401610d4290611410565b60405180910390fd5b5b829050610d5f565b610d5e8383610d8a565b5b949350505050565b6000808273ffffffffffffffffffffffffffffffffffffffff163b119050919050565b600082511115610d9d5781518083602001fd5b806040517f08c379a0000000000000000000000000000000000000000000000000000000008152600401610dd19190611485565b60405180910390fd5b600080fd5b6000819050919050565b610df281610ddf565b8114610dfd57600080fd5b50565b600081359050610e0f81610de9565b92915050565b600060208284031215610e2b57610e2a610dda565b5b6000610e3984828501610e00565b91505092915050565b610e4b81610ddf565b82525050565b6000602082019050610e666000830184610e42565b92915050565b600073ffffffffffffffffffffffffffffffffffffffff82169050919050565b6000610e9782610e6c565b9050919050565b610ea781610e8c565b8114610eb257600080fd5b50565b600081359050610ec481610e9e565b92915050565b60008060408385031215610ee157610ee0610dda565b5b6000610eef85828601610eb5565b9250506020610f0085828601610e00565b9150509250929050565b610f1381610e8c565b82525050565b6000602082019050610f2e6000830184610f0a565b92915050565b600060208284031215610f4a57610f49610dda565b5b6000610f5884828501610eb5565b91505092915050565b7f4e487b7100000000000000000000000000000000000000000000000000000000600052601160045260246000fd5b6000610f9b82610ddf565b9150610fa683610ddf565b9250828202610fb481610ddf565b91508282048414831517610fcb57610fca610f61565b5b5092915050565b7f4e487b7100000000000000000000000000000000000000000000000000000000600052601260045260246000fd5b600061100c82610ddf565b915061101783610ddf565b92508261102757611026610fd2565b5b828204905092915050565b600081905092915050565b50565b600061104d600083611032565b91506110588261103d565b600082019050919050565b600061106e82611040565b9150819050919050565b600082825260208201905092915050565b7f4f776e61626c653a206e6577206f776e657220697320746865207a65726f206160008201527f6464726573730000000000000000000000000000000000000000000000000000602082015250565b60006110e5602683611078565b91506110f082611089565b604082019050919050565b60006020820190508181036000830152611114816110d8565b9050919050565b7f4f776e61626c653a2063616c6c6572206973206e6f7420746865206f776e6572600082015250565b6000611151602083611078565b915061115c8261111b565b602082019050919050565b6000602082019050818103600083015261118081611144565b9050919050565b600060608201905061119c6000830186610f0a565b6111a96020830185610f0a565b6111b66040830184610e42565b949350505050565b60008115159050919050565b6111d3816111be565b81146111de57600080fd5b50565b6000815190506111f0816111ca565b92915050565b60006020828403121561120c5761120b610dda565b5b600061121a848285016111e1565b91505092915050565b7f5361666545524332303a204552433230206f7065726174696f6e20646964206e60008201527f6f74207375636365656400000000000000000000000000000000000000000000602082015250565b600061127f602a83611078565b915061128a82611223565b604082019050919050565b600060208201905081810360008301526112ae81611272565b9050919050565b7f416464726573733a20696e73756666696369656e742062616c616e636520666f60008201527f722063616c6c0000000000000000000000000000000000000000000000000000602082015250565b6000611311602683611078565b915061131c826112b5565b604082019050919050565b6000602082019050818103600083015261134081611304565b9050919050565b600081519050919050565b60005b83811015611370578082015181840152602081019050611355565b60008484015250505050565b600061138782611347565b6113918185611032565b93506113a1818560208601611352565b80840191505092915050565b60006113b9828461137c565b915081905092915050565b7f416464726573733a2063616c6c20746f206e6f6e2d636f6e7472616374000000600082015250565b60006113fa601d83611078565b9150611405826113c4565b602082019050919050565b60006020820190508181036000830152611429816113ed565b9050919050565b600081519050919050565b6000601f19601f8301169050919050565b600061145782611430565b6114618185611078565b9350611471818560208601611352565b61147a8161143b565b840191505092915050565b6000602082019050818103600083015261149f818461144c565b90509291505056fea2646970667358221220f42609502e8e56daa53c0c1f44c01a7303ac20a22eadc0c9937fd4fd2e6f64bd64736f6c63430008130033","linkReferences":{}},"methodIdentifiers":{"FEE_DIVISOR()":"9e93ad8e","collectListingFee()":"b2abb330","collectMigrationFee(address,uint256)":"8987166d","collectTradingFee(address,uint256)":"5a4a2d6b","listingFee()":"6a1b7ecc","migrationFeeBps()":"f93951cd","owner()":"8da5cb5b","quoteMigrationFee(uint256)":"0e95ea37","quoteTradingFee(uint256)":"50059ebe","renounceOwnership()":"715018a6","setListingFee(uint256)":"131dbd09","setMigrationFeeBps(uint256)":"0050b12a","setTradingFeeBps(uint256)":"bd63ccf3","setTreasury(address)":"f0f44260","tradingFeeBps()":"924cca9a","transferOwnership(address)":"f2fde38b","treasury()":"61d027b3"},"id":6}