{"abi":[{"type":"constructor","inputs":[{"name":"_treasury","type":"address","internalType":"address payable"},{"name":"_hardCap","type":"uint256","internalType":"uint256"},{"name":"_baseFeePerSecond","type":"uint256","internalType":"uint256"},{"name":"_coolDownPeriod","type":"uint256","internalType":"uint256"},{"name":"_suffix","type":"bytes","internalType":"bytes"}],"stateMutability":"nonpayable"},{"type":"function","name":"EXP_THRESHOLD","inputs":[],"outputs":[{"name":"","type":"uint256","internalType":"uint256"}],"stateMutability":"view"},{"type":"function","name":"GROWTH_FACTOR","inputs":[],"outputs":[{"name":"","type":"uint256","internalType":"uint256"}],"stateMutability":"view"},{"type":"function","name":"MIN_DURATION","inputs":[],"outputs":[{"name":"","type":"uint256","internalType":"uint256"}],"stateMutability":"view"},{"type":"function","name":"baseFeePerSecond","inputs":[],"outputs":[{"name":"","type":"uint256","internalType":"uint256"}],"stateMutability":"view"},{"type":"function","name":"bookedUntil","inputs":[],"outputs":[{"name":"","type":"uint256","internalType":"uint256"}],"stateMutability":"view"},{"type":"function","name":"coolDownPeriod","inputs":[],"outputs":[{"name":"","type":"uint256","internalType":"uint256"}],"stateMutability":"view"},{"type":"function","name":"hardCap","inputs":[],"outputs":[{"name":"","type":"uint256","internalType":"uint256"}],"stateMutability":"view"},{"type":"function","name":"highlightToken","inputs":[{"name":"token","type":"address","internalType":"address"},{"name":"duration","type":"uint256","internalType":"uint256"}],"outputs":[],"stateMutability":"payable"},{"type":"function","name":"owner","inputs":[],"outputs":[{"name":"","type":"address","internalType":"address"}],"stateMutability":"view"},{"type":"function","name":"pause","inputs":[],"outputs":[],"stateMutability":"nonpayable"},{"type":"function","name":"paused","inputs":[],"outputs":[{"name":"","type":"bool","internalType":"bool"}],"stateMutability":"view"},{"type":"function","name":"quote","inputs":[{"name":"duration","type":"uint256","internalType":"uint256"}],"outputs":[{"name":"fee","type":"uint256","internalType":"uint256"}],"stateMutability":"view"},{"type":"function","name":"renounceOwnership","inputs":[],"outputs":[],"stateMutability":"nonpayable"},{"type":"function","name":"setBaseFee","inputs":[{"name":"baseFeePerSecond_","type":"uint256","internalType":"uint256"}],"outputs":[],"stateMutability":"nonpayable"},{"type":"function","name":"setCoolDownPeriod","inputs":[{"name":"coolDownPeriod_","type":"uint256","internalType":"uint256"}],"outputs":[],"stateMutability":"nonpayable"},{"type":"function","name":"setHardCap","inputs":[{"name":"hardCap_","type":"uint256","internalType":"uint256"}],"outputs":[],"stateMutability":"nonpayable"},{"type":"function","name":"setTreasury","inputs":[{"name":"treasury_","type":"address","internalType":"address payable"}],"outputs":[],"stateMutability":"nonpayable"},{"type":"function","name":"suffix","inputs":[],"outputs":[{"name":"","type":"bytes","internalType":"bytes"}],"stateMutability":"view"},{"type":"function","name":"tokenCoolDownUntil","inputs":[{"name":"","type":"address","internalType":"address"}],"outputs":[{"name":"","type":"uint256","internalType":"uint256"}],"stateMutability":"view"},{"type":"function","name":"transferOwnership","inputs":[{"name":"newOwner","type":"address","internalType":"address"}],"outputs":[],"stateMutability":"nonpayable"},{"type":"function","name":"treasury","inputs":[],"outputs":[{"name":"","type":"address","internalType":"address payable"}],"stateMutability":"view"},{"type":"function","name":"unpause","inputs":[],"outputs":[],"stateMutability":"nonpayable"},{"type":"event","name":"BaseFeeSet","inputs":[{"name":"baseFeePerSecond","type":"uint256","indexed":false,"internalType":"uint256"}],"anonymous":false},{"type":"event","name":"CoolDownPeriodSet","inputs":[{"name":"coolDownPeriod","type":"uint256","indexed":false,"internalType":"uint256"}],"anonymous":false},{"type":"event","name":"HardCapSet","inputs":[{"name":"hardCap","type":"uint256","indexed":false,"internalType":"uint256"}],"anonymous":false},{"type":"event","name":"OwnershipTransferred","inputs":[{"name":"previousOwner","type":"address","indexed":true,"internalType":"address"},{"name":"newOwner","type":"address","indexed":true,"internalType":"address"}],"anonymous":false},{"type":"event","name":"Paused","inputs":[{"name":"account","type":"address","indexed":false,"internalType":"address"}],"anonymous":false},{"type":"event","name":"TokenHighlighted","inputs":[{"name":"token","type":"address","indexed":true,"internalType":"address"},{"name":"buyer","type":"address","indexed":true,"internalType":"address"},{"name":"duration","type":"uint256","indexed":false,"internalType":"uint256"},{"name":"bookedUntil","type":"uint256","indexed":false,"internalType":"uint256"},{"name":"fee","type":"uint256","indexed":false,"internalType":"uint256"}],"anonymous":false},{"type":"event","name":"TreasurySet","inputs":[{"name":"treasury","type":"address","indexed":true,"internalType":"address"}],"anonymous":false},{"type":"event","name":"Unpaused","inputs":[{"name":"account","type":"address","indexed":false,"internalType":"address"}],"anonymous":false},{"type":"error","name":"HighlightsManager_DurationBelowMinimum","inputs":[]},{"type":"error","name":"HighlightsManager_DurationExceedsHardCap","inputs":[]},{"type":"error","name":"HighlightsManager_EthTransferFailed","inputs":[]},{"type":"error","name":"HighlightsManager_HardCapBelowMinimumDuration","inputs":[]},{"type":"error","name":"HighlightsManager_InsufficientFee","inputs":[]},{"type":"error","name":"HighlightsManager_SlotOccupied","inputs":[]},{"type":"error","name":"HighlightsManager_TokenWithinCoolDown","inputs":[]},{"type":"error","name":"HighlightsManager_TreasuryAddressZero","inputs":[]},{"type":"error","name":"HighlightsManager_UnrecognisedToken","inputs":[]},{"type":"error","name":"HighlightsManager_ZeroDuration","inputs":[]}],"bytecode":{"object":"0x60806040523480156200001157600080fd5b50604051620022763803806200227683398181016040528101906200003791906200050d565b620000576200004b6200020e60201b60201c565b6200021660201b60201c565b60008060146101000a81548160ff021916908315150217905550603c841015620000ad576040517f56747a0200000000000000000000000000000000000000000000000000000000815260040160405180910390fd5b84600560006101000a81548173ffffffffffffffffffffffffffffffffffffffff021916908373ffffffffffffffffffffffffffffffffffffffff1602179055508360018190555082600381905550816002819055508060069081620001149190620007f5565b508473ffffffffffffffffffffffffffffffffffffffff167f3c864541ef71378c6229510ed90f376565ee42d9c5e0904a984a9e863e6db44f60405160405180910390a27f917681cdf3d8a5ef720fb56128d5382782db742feb1d89fc6d376111254537b184604051620001899190620008ed565b60405180910390a17f7ebed77c7e1ffbe2a85cbeff53ae70227be1cb6e4131d9d4baf70c22b9edcc6883604051620001c29190620008ed565b60405180910390a17f86eeaa7ccca1e816f846efb7d5be0860739431fe79a7c864769e63d533be438882604051620001fb9190620008ed565b60405180910390a150505050506200090a565b600033905090565b60008060009054906101000a900473ffffffffffffffffffffffffffffffffffffffff169050816000806101000a81548173ffffffffffffffffffffffffffffffffffffffff021916908373ffffffffffffffffffffffffffffffffffffffff1602179055508173ffffffffffffffffffffffffffffffffffffffff168173ffffffffffffffffffffffffffffffffffffffff167f8be0079c531659141344cd1fd0a4f28419497f9722a3daafe3b4186f6b6457e060405160405180910390a35050565b6000604051905090565b600080fd5b600080fd5b600073ffffffffffffffffffffffffffffffffffffffff82169050919050565b60006200031b82620002ee565b9050919050565b6200032d816200030e565b81146200033957600080fd5b50565b6000815190506200034d8162000322565b92915050565b6000819050919050565b620003688162000353565b81146200037457600080fd5b50565b60008151905062000388816200035d565b92915050565b600080fd5b600080fd5b6000601f19601f8301169050919050565b7f4e487b7100000000000000000000000000000000000000000000000000000000600052604160045260246000fd5b620003e38262000398565b810181811067ffffffffffffffff82111715620004055762000404620003a9565b5b80604052505050565b60006200041a620002da565b9050620004288282620003d8565b919050565b600067ffffffffffffffff8211156200044b576200044a620003a9565b5b620004568262000398565b9050602081019050919050565b60005b838110156200048357808201518184015260208101905062000466565b60008484015250505050565b6000620004a6620004a0846200042d565b6200040e565b905082815260208101848484011115620004c557620004c462000393565b5b620004d284828562000463565b509392505050565b600082601f830112620004f257620004f16200038e565b5b8151620005048482602086016200048f565b91505092915050565b600080600080600060a086880312156200052c576200052b620002e4565b5b60006200053c888289016200033c565b95505060206200054f8882890162000377565b9450506040620005628882890162000377565b9350506060620005758882890162000377565b925050608086015167ffffffffffffffff811115620005995762000598620002e9565b5b620005a788828901620004da565b9150509295509295909350565b600081519050919050565b7f4e487b7100000000000000000000000000000000000000000000000000000000600052602260045260246000fd5b600060028204905060018216806200060757607f821691505b6020821081036200061d576200061c620005bf565b5b50919050565b60008190508160005260206000209050919050565b60006020601f8301049050919050565b600082821b905092915050565b600060088302620006877fffffffffffffffffffffffffffffffffffffffffffffffffffffffffffffffff8262000648565b62000693868362000648565b95508019841693508086168417925050509392505050565b6000819050919050565b6000620006d6620006d0620006ca8462000353565b620006ab565b62000353565b9050919050565b6000819050919050565b620006f283620006b5565b6200070a6200070182620006dd565b84845462000655565b825550505050565b600090565b6200072162000712565b6200072e818484620006e7565b505050565b5b8181101562000756576200074a60008262000717565b60018101905062000734565b5050565b601f821115620007a5576200076f8162000623565b6200077a8462000638565b810160208510156200078a578190505b620007a2620007998562000638565b83018262000733565b50505b505050565b600082821c905092915050565b6000620007ca60001984600802620007aa565b1980831691505092915050565b6000620007e58383620007b7565b9150826002028217905092915050565b6200080082620005b4565b67ffffffffffffffff8111156200081c576200081b620003a9565b5b620008288254620005ee565b620008358282856200075a565b600060209050601f8311600181146200086d576000841562000858578287015190505b620008648582620007d7565b865550620008d4565b601f1984166200087d8662000623565b60005b82811015620008a75784890151825560018201915060208501945060208101905062000880565b86831015620008c75784890151620008c3601f891682620007b7565b8355505b6001600288020188555050505b505050505050565b620008e78162000353565b82525050565b6000602082019050620009046000830184620008dc565b92915050565b61195c806200091a6000396000f3fe6080604052600436106101355760003560e01c80638da5cb5b116100ab578063ed1bd76c1161006f578063ed1bd76c146103ba578063f0f44260146103f7578063f2fde38b14610420578063f493b03e14610449578063f7073c3a14610465578063fb86a4041461049057610135565b80638da5cb5b146102e5578063b3d7fe3614610310578063b6a6d1771461033b578063c29fbec214610366578063d18d944b1461039157610135565b80635c975abb116100fd5780635c975abb1461020d57806361d027b31461023857806367ba84f414610263578063715018a61461028e578063736f616b146102a55780638456cb59146102ce57610135565b806320c8d7d81461013a57806328b9b4f91461016557806330f1ebb9146101a25780633f4ba83a146101cd57806346860698146101e4575b600080fd5b34801561014657600080fd5b5061014f6104bb565b60405161015c91906111ac565b60405180910390f35b34801561017157600080fd5b5061018c6004803603810190610187919061122a565b6104c0565b60405161019991906111ac565b60405180910390f35b3480156101ae57600080fd5b506101b76104d8565b6040516101c491906111ac565b60405180910390f35b3480156101d957600080fd5b506101e26104de565b005b3480156101f057600080fd5b5061020b60048036038101906102069190611283565b6104f0565b005b34801561021957600080fd5b50610222610539565b60405161022f91906112cb565b60405180910390f35b34801561024457600080fd5b5061024d61054f565b60405161025a9190611307565b60405180910390f35b34801561026f57600080fd5b50610278610575565b60405161028591906111ac565b60405180910390f35b34801561029a57600080fd5b506102a361057b565b005b3480156102b157600080fd5b506102cc60048036038101906102c79190611283565b61058f565b005b3480156102da57600080fd5b506102e36105d8565b005b3480156102f157600080fd5b506102fa6105ea565b6040516103079190611331565b60405180910390f35b34801561031c57600080fd5b50610325610613565b60405161033291906111ac565b60405180910390f35b34801561034757600080fd5b50610350610619565b60405161035d91906111ac565b60405180910390f35b34801561037257600080fd5b5061037b61061e565b60405161038891906111ac565b60405180910390f35b34801561039d57600080fd5b506103b860048036038101906103b39190611283565b610624565b005b3480156103c657600080fd5b506103e160048036038101906103dc9190611283565b6106a8565b6040516103ee91906111ac565b60405180910390f35b34801561040357600080fd5b5061041e60048036038101906104199190611378565b6107dd565b005b34801561042c57600080fd5b506104476004803603810190610442919061122a565b6108d2565b005b610463600480360381019061045e91906113a5565b610955565b005b34801561047157600080fd5b5061047a610cb3565b6040516104879190611475565b60405180910390f35b34801561049c57600080fd5b506104a5610d41565b6040516104b291906111ac565b60405180910390f35b606281565b60076020528060005260406000206000915090505481565b60025481565b6104e6610d47565b6104ee610dc5565b565b6104f8610d47565b806003819055507f7ebed77c7e1ffbe2a85cbeff53ae70227be1cb6e4131d9d4baf70c22b9edcc688160405161052e91906111ac565b60405180910390a150565b60008060149054906101000a900460ff16905090565b600560009054906101000a900473ffffffffffffffffffffffffffffffffffffffff1681565b61025881565b610583610d47565b61058d6000610e27565b565b610597610d47565b806002819055507f86eeaa7ccca1e816f846efb7d5be0860739431fe79a7c864769e63d533be4388816040516105cd91906111ac565b60405180910390a150565b6105e0610d47565b6105e8610eeb565b565b60008060009054906101000a900473ffffffffffffffffffffffffffffffffffffffff16905090565b60045481565b603c81565b60035481565b61062c610d47565b603c811015610667576040517f56747a0200000000000000000000000000000000000000000000000000000000815260040160405180910390fd5b806001819055507f917681cdf3d8a5ef720fb56128d5382782db742feb1d89fc6d376111254537b18160405161069d91906111ac565b60405180910390a150565b600080610258905060006003549050600084036106f1576040517fcab6def200000000000000000000000000000000000000000000000000000000815260040160405180910390fd5b603c84101561072c576040517f889ab06900000000000000000000000000000000000000000000000000000000815260040160405180910390fd5b600154841115610768576040517f1768d13c00000000000000000000000000000000000000000000000000000000815260040160405180910390fd5b81841161078257838161077b91906114c6565b92506107d6565b600082856107909190611508565b90506000600a606283856107a491906114c6565b6107ae91906114c6565b6107b8919061156b565b90508084846107c791906114c6565b6107d1919061159c565b945050505b5050919050565b6107e5610d47565b600073ffffffffffffffffffffffffffffffffffffffff168173ffffffffffffffffffffffffffffffffffffffff160361084b576040517f07d86d4b00000000000000000000000000000000000000000000000000000000815260040160405180910390fd5b80600560006101000a81548173ffffffffffffffffffffffffffffffffffffffff021916908373ffffffffffffffffffffffffffffffffffffffff1602179055508073ffffffffffffffffffffffffffffffffffffffff167f3c864541ef71378c6229510ed90f376565ee42d9c5e0904a984a9e863e6db44f60405160405180910390a250565b6108da610d47565b600073ffffffffffffffffffffffffffffffffffffffff168173ffffffffffffffffffffffffffffffffffffffff1603610949576040517f08c379a000000000000000000000000000000000000000000000000000000000815260040161094090611653565b60405180910390fd5b61095281610e27565b50565b61095d610f4e565b426004541115610999576040517f1508d87800000000000000000000000000000000000000000000000000000000815260040160405180910390fd5b42600760008473ffffffffffffffffffffffffffffffffffffffff1673ffffffffffffffffffffffffffffffffffffffff168152602001908152602001600020541115610a12576040517fe9cb2c1800000000000000000000000000000000000000000000000000000000815260040160405180910390fd5b610a1b82610f98565b600080610a27836106a8565b905080341015610a63576040517f49cfcc5c00000000000000000000000000000000000000000000000000000000815260040160405180910390fd5b8242610a6f919061159c565b60048190555060025442610a83919061159c565b600760008673ffffffffffffffffffffffffffffffffffffffff1673ffffffffffffffffffffffffffffffffffffffff16815260200190815260200160002081905550600560009054906101000a900473ffffffffffffffffffffffffffffffffffffffff1673ffffffffffffffffffffffffffffffffffffffff1681604051610b0c906116a4565b60006040518083038185875af1925050503d8060008114610b49576040519150601f19603f3d011682016040523d82523d6000602084013e610b4e565b606091505b50508092505081610b8b576040517f401a620d00000000000000000000000000000000000000000000000000000000815260040160405180910390fd5b80341115610c42573373ffffffffffffffffffffffffffffffffffffffff168134610bb69190611508565b604051610bc2906116a4565b60006040518083038185875af1925050503d8060008114610bff576040519150601f19603f3d011682016040523d82523d6000602084013e610c04565b606091505b50508092505081610c41576040517f401a620d00000000000000000000000000000000000000000000000000000000815260040160405180910390fd5b5b3373ffffffffffffffffffffffffffffffffffffffff168473ffffffffffffffffffffffffffffffffffffffff167f70748d05491aa3e2753860e1a3985ad891d46c5474d1cb0da86b24c9d8161c4f8560045485604051610ca5939291906116b9565b60405180910390a350505050565b60068054610cc09061171f565b80601f0160208091040260200160405190810160405280929190818152602001828054610cec9061171f565b8015610d395780601f10610d0e57610100808354040283529160200191610d39565b820191906000526020600020905b815481529060010190602001808311610d1c57829003601f168201915b505050505081565b60015481565b610d4f611142565b73ffffffffffffffffffffffffffffffffffffffff16610d6d6105ea565b73ffffffffffffffffffffffffffffffffffffffff1614610dc3576040517f08c379a0000000000000000000000000000000000000000000000000000000008152600401610dba9061179c565b60405180910390fd5b565b610dcd61114a565b60008060146101000a81548160ff0219169083151502179055507f5db9ee0a495bf2e6ff9c91a7834c1ba4fdd244a5e8aa4e537bd38aeae4b073aa610e10611142565b604051610e1d9190611331565b60405180910390a1565b60008060009054906101000a900473ffffffffffffffffffffffffffffffffffffffff169050816000806101000a81548173ffffffffffffffffffffffffffffffffffffffff021916908373ffffffffffffffffffffffffffffffffffffffff1602179055508173ffffffffffffffffffffffffffffffffffffffff168173ffffffffffffffffffffffffffffffffffffffff167f8be0079c531659141344cd1fd0a4f28419497f9722a3daafe3b4186f6b6457e060405160405180910390a35050565b610ef3610f4e565b6001600060146101000a81548160ff0219169083151502179055507f62e78cea01bee320cd4e420270b5ea74000d11b0c9f74754ebdbfc544b05a258610f37611142565b604051610f449190611331565b60405180910390a1565b610f56610539565b15610f96576040517f08c379a0000000000000000000000000000000000000000000000000000000008152600401610f8d90611808565b60405180910390fd5b565b600081604051602001610fab9190611870565b6040516020818303038152906040529050600060068054610fcb9061171f565b80601f0160208091040260200160405190810160405280929190818152602001828054610ff79061171f565b80156110445780601f1061101957610100808354040283529160200191611044565b820191906000526020600020905b81548152906001019060200180831161102757829003601f168201915b5050505050905060008151905060008351905060005b8281101561113a57848184846110709190611508565b61107a919061159c565b8151811061108b5761108a61188b565b5b602001015160f81c60f81b7effffffffffffffffffffffffffffffffffffffffffffffffffffffffffffff19168482815181106110cb576110ca61188b565b5b602001015160f81c60f81b7effffffffffffffffffffffffffffffffffffffffffffffffffffffffffffff19161461112f576040517f3abac9e200000000000000000000000000000000000000000000000000000000815260040160405180910390fd5b80600101905061105a565b505050505050565b600033905090565b611152610539565b611191576040517f08c379a000000000000000000000000000000000000000000000000000000000815260040161118890611906565b60405180910390fd5b565b6000819050919050565b6111a681611193565b82525050565b60006020820190506111c1600083018461119d565b92915050565b600080fd5b600073ffffffffffffffffffffffffffffffffffffffff82169050919050565b60006111f7826111cc565b9050919050565b611207816111ec565b811461121257600080fd5b50565b600081359050611224816111fe565b92915050565b6000602082840312156112405761123f6111c7565b5b600061124e84828501611215565b91505092915050565b61126081611193565b811461126b57600080fd5b50565b60008135905061127d81611257565b92915050565b600060208284031215611299576112986111c7565b5b60006112a78482850161126e565b91505092915050565b60008115159050919050565b6112c5816112b0565b82525050565b60006020820190506112e060008301846112bc565b92915050565b60006112f1826111cc565b9050919050565b611301816112e6565b82525050565b600060208201905061131c60008301846112f8565b92915050565b61132b816111ec565b82525050565b60006020820190506113466000830184611322565b92915050565b611355816112e6565b811461136057600080fd5b50565b6000813590506113728161134c565b92915050565b60006020828403121561138e5761138d6111c7565b5b600061139c84828501611363565b91505092915050565b600080604083850312156113bc576113bb6111c7565b5b60006113ca85828601611215565b92505060206113db8582860161126e565b9150509250929050565b600081519050919050565b600082825260208201905092915050565b60005b8381101561141f578082015181840152602081019050611404565b60008484015250505050565b6000601f19601f8301169050919050565b6000611447826113e5565b61145181856113f0565b9350611461818560208601611401565b61146a8161142b565b840191505092915050565b6000602082019050818103600083015261148f818461143c565b905092915050565b7f4e487b7100000000000000000000000000000000000000000000000000000000600052601160045260246000fd5b60006114d182611193565b91506114dc83611193565b92508282026114ea81611193565b9150828204841483151761150157611500611497565b5b5092915050565b600061151382611193565b915061151e83611193565b925082820390508181111561153657611535611497565b5b92915050565b7f4e487b7100000000000000000000000000000000000000000000000000000000600052601260045260246000fd5b600061157682611193565b915061158183611193565b9250826115915761159061153c565b5b828204905092915050565b60006115a782611193565b91506115b283611193565b92508282019050808211156115ca576115c9611497565b5b92915050565b600082825260208201905092915050565b7f4f776e61626c653a206e6577206f776e657220697320746865207a65726f206160008201527f6464726573730000000000000000000000000000000000000000000000000000602082015250565b600061163d6026836115d0565b9150611648826115e1565b604082019050919050565b6000602082019050818103600083015261166c81611630565b9050919050565b600081905092915050565b50565b600061168e600083611673565b91506116998261167e565b600082019050919050565b60006116af82611681565b9150819050919050565b60006060820190506116ce600083018661119d565b6116db602083018561119d565b6116e8604083018461119d565b949350505050565b7f4e487b7100000000000000000000000000000000000000000000000000000000600052602260045260246000fd5b6000600282049050600182168061173757607f821691505b60208210810361174a576117496116f0565b5b50919050565b7f4f776e61626c653a2063616c6c6572206973206e6f7420746865206f776e6572600082015250565b60006117866020836115d0565b915061179182611750565b602082019050919050565b600060208201905081810360008301526117b581611779565b9050919050565b7f5061757361626c653a2070617573656400000000000000000000000000000000600082015250565b60006117f26010836115d0565b91506117fd826117bc565b602082019050919050565b60006020820190508181036000830152611821816117e5565b9050919050565b60008160601b9050919050565b600061184082611828565b9050919050565b600061185282611835565b9050919050565b61186a611865826111ec565b611847565b82525050565b600061187c8284611859565b60148201915081905092915050565b7f4e487b7100000000000000000000000000000000000000000000000000000000600052603260045260246000fd5b7f5061757361626c653a206e6f7420706175736564000000000000000000000000600082015250565b60006118f06014836115d0565b91506118fb826118ba565b602082019050919050565b6000602082019050818103600083015261191f816118e3565b905091905056fea2646970667358221220226fd19a73f9883806d32fbbd729150cc507ee981485a8766f58bf4ffaf14ca764736f6c63430008130033","linkReferences":{}},"methodIdentifiers":{"EXP_THRESHOLD()":"67ba84f4","GROWTH_FACTOR()":"20c8d7d8","MIN_DURATION()":"b6a6d177","baseFeePerSecond()":"c29fbec2","bookedUntil()":"b3d7fe36","coolDownPeriod()":"30f1ebb9","hardCap()":"fb86a404","highlightToken(address,uint256)":"f493b03e","owner()":"8da5cb5b","pause()":"8456cb59","paused()":"5c975abb","quote(uint256)":"ed1bd76c","renounceOwnership()":"715018a6","setBaseFee(uint256)":"46860698","setCoolDownPeriod(uint256)":"736f616b","setHardCap(uint256)":"d18d944b","setTreasury(address)":"f0f44260","suffix()":"f7073c3a","tokenCoolDownUntil(address)":"28b9b4f9","transferOwnership(address)":"f2fde38b","treasury()":"61d027b3","unpause()":"3f4ba83a"},"id":7}