{"abi":[{"type":"constructor","inputs":[],"stateMutability":"nonpayable"},{"type":"function","name":"computeNextVestingScheduleIdForHolder","inputs":[{"name":"holder","type":"address","internalType":"address"}],"outputs":[{"name":"","type":"bytes32","internalType":"bytes32"}],"stateMutability":"view"},{"type":"function","name":"computeReleasableAmount","inputs":[{"name":"token","type":"address","internalType":"address"},{"name":"vestingScheduleId","type":"bytes32","internalType":"bytes32"}],"outputs":[{"name":"","type":"uint256","internalType":"uint256"}],"stateMutability":"view"},{"type":"function","name":"computeVestingScheduleIdForAddressAndIndex","inputs":[{"name":"holder","type":"address","internalType":"address"},{"name":"index","type":"uint256","internalType":"uint256"}],"outputs":[{"name":"","type":"bytes32","internalType":"bytes32"}],"stateMutability":"pure"},{"type":"function","name":"createVestingSchedule","inputs":[{"name":"_beneficiary","type":"address","internalType":"address"},{"name":"_token","type":"address","internalType":"address"},{"name":"_start","type":"uint256","internalType":"uint256"},{"name":"_cliff","type":"uint256","internalType":"uint256"},{"name":"_duration","type":"uint256","internalType":"uint256"},{"name":"_slicePeriodSeconds","type":"uint256","internalType":"uint256"},{"name":"_amount","type":"uint256","internalType":"uint256"}],"outputs":[],"stateMutability":"nonpayable"},{"type":"function","name":"getLastVestingScheduleForHolder","inputs":[{"name":"token","type":"address","internalType":"address"},{"name":"holder","type":"address","internalType":"address"}],"outputs":[{"name":"","type":"tuple","internalType":"struct TokenVesting.VestingSchedule","components":[{"name":"beneficiary","type":"address","internalType":"address"},{"name":"token","type":"address","internalType":"address"},{"name":"cliff","type":"uint256","internalType":"uint256"},{"name":"start","type":"uint256","internalType":"uint256"},{"name":"duration","type":"uint256","internalType":"uint256"},{"name":"slicePeriodSeconds","type":"uint256","internalType":"uint256"},{"name":"amountTotal","type":"uint256","internalType":"uint256"},{"name":"released","type":"uint256","internalType":"uint256"}]}],"stateMutability":"view"},{"type":"function","name":"getVestingIdAtIndex","inputs":[{"name":"index","type":"uint256","internalType":"uint256"}],"outputs":[{"name":"","type":"bytes32","internalType":"bytes32"}],"stateMutability":"view"},{"type":"function","name":"getVestingSchedule","inputs":[{"name":"token","type":"address","internalType":"address"},{"name":"vestingScheduleId","type":"bytes32","internalType":"bytes32"}],"outputs":[{"name":"","type":"tuple","internalType":"struct TokenVesting.VestingSchedule","components":[{"name":"beneficiary","type":"address","internalType":"address"},{"name":"token","type":"address","internalType":"address"},{"name":"cliff","type":"uint256","internalType":"uint256"},{"name":"start","type":"uint256","internalType":"uint256"},{"name":"duration","type":"uint256","internalType":"uint256"},{"name":"slicePeriodSeconds","type":"uint256","internalType":"uint256"},{"name":"amountTotal","type":"uint256","internalType":"uint256"},{"name":"released","type":"uint256","internalType":"uint256"}]}],"stateMutability":"view"},{"type":"function","name":"getVestingScheduleByAddressAndIndex","inputs":[{"name":"token","type":"address","internalType":"address"},{"name":"holder","type":"address","internalType":"address"},{"name":"index","type":"uint256","internalType":"uint256"}],"outputs":[{"name":"","type":"tuple","internalType":"struct TokenVesting.VestingSchedule","components":[{"name":"beneficiary","type":"address","internalType":"address"},{"name":"token","type":"address","internalType":"address"},{"name":"cliff","type":"uint256","internalType":"uint256"},{"name":"start","type":"uint256","internalType":"uint256"},{"name":"duration","type":"uint256","internalType":"uint256"},{"name":"slicePeriodSeconds","type":"uint256","internalType":"uint256"},{"name":"amountTotal","type":"uint256","internalType":"uint256"},{"name":"released","type":"uint256","internalType":"uint256"}]}],"stateMutability":"view"},{"type":"function","name":"getVestingSchedulesCount","inputs":[],"outputs":[{"name":"","type":"uint256","internalType":"uint256"}],"stateMutability":"view"},{"type":"function","name":"getVestingSchedulesCountByBeneficiary","inputs":[{"name":"_beneficiary","type":"address","internalType":"address"}],"outputs":[{"name":"","type":"uint256","internalType":"uint256"}],"stateMutability":"view"},{"type":"function","name":"getVestingSchedulesTotalAmount","inputs":[],"outputs":[{"name":"","type":"uint256","internalType":"uint256"}],"stateMutability":"view"},{"type":"function","name":"getVestingSchedulesTotalAmountByToken","inputs":[{"name":"token","type":"address","internalType":"address"}],"outputs":[{"name":"","type":"uint256","internalType":"uint256"}],"stateMutability":"view"},{"type":"function","name":"release","inputs":[{"name":"token","type":"address","internalType":"address"},{"name":"vestingScheduleId","type":"bytes32","internalType":"bytes32"}],"outputs":[],"stateMutability":"nonpayable"},{"type":"function","name":"setCurrentTime","inputs":[{"name":"_time","type":"uint256","internalType":"uint256"}],"outputs":[],"stateMutability":"nonpayable"},{"type":"event","name":"TokensReleased","inputs":[{"name":"vestingScheduleId","type":"bytes32","indexed":true,"internalType":"bytes32"},{"name":"beneficiary","type":"address","indexed":true,"internalType":"address"},{"name":"amount","type":"uint256","indexed":false,"internalType":"uint256"}],"anonymous":false},{"type":"event","name":"VestingScheduleCreated","inputs":[{"name":"vestingScheduleId","type":"bytes32","indexed":true,"internalType":"bytes32"},{"name":"beneficiary","type":"address","indexed":true,"internalType":"address"},{"name":"token","type":"address","indexed":true,"internalType":"address"},{"name":"cliff","type":"uint256","indexed":false,"internalType":"uint256"},{"name":"start","type":"uint256","indexed":false,"internalType":"uint256"},{"name":"duration","type":"uint256","indexed":false,"internalType":"uint256"},{"name":"slicePeriodSeconds","type":"uint256","indexed":false,"internalType":"uint256"},{"name":"amountTotal","type":"uint256","indexed":false,"internalType":"uint256"}],"anonymous":false}],"bytecode":{"object":"0x6080604052600060055534801561001557600080fd5b5061211f806100256000396000f3fe608060405234801561001057600080fd5b50600436106100ea5760003560e01c80638af104da1161008c578063d603de9e11610066578063d603de9e14610283578063d7c2eec7146102b3578063f7c469f0146102cf578063f9079b37146102ff576100ea565b80638af104da14610207578063aa849dc414610237578063adf4357d14610267576100ea565b806322f8e566116100c857806322f8e5661461016d57806348deb471146101895780634ae31181146101a75780635a7bb69a146101d7576100ea565b80630ed749cc146100ef578063130836171461011f5780631a8fdf4b1461013d575b600080fd5b6101096004803603810190610104919061159b565b61032f565b60405161011691906116a5565b60405180910390f35b6101276104d7565b60405161013491906116d0565b60405180910390f35b61015760048036038101906101529190611721565b6104e4565b60405161016491906116a5565b60405180910390f35b6101876004803603810190610182919061178d565b610638565b005b610191610642565b60405161019e91906116d0565b60405180910390f35b6101c160048036038101906101bc91906117ba565b61064b565b6040516101ce91906116a5565b60405180910390f35b6101f160048036038101906101ec919061180d565b61066f565b6040516101fe91906116d0565b60405180910390f35b610221600480360381019061021c919061183a565b6106b8565b60405161022e9190611889565b60405180910390f35b610251600480360381019061024c919061180d565b6106eb565b60405161025e91906116d0565b60405180910390f35b610281600480360381019061027c91906118a4565b610734565b005b61029d60048036038101906102989190611721565b610ca5565b6040516102aa91906116d0565b60405180910390f35b6102cd60048036038101906102c89190611721565b610e65565b005b6102e960048036038101906102e4919061180d565b611190565b6040516102f69190611889565b60405180910390f35b6103196004803603810190610314919061178d565b6111e2565b6040516103269190611889565b60405180910390f35b6103376114c7565b600260008473ffffffffffffffffffffffffffffffffffffffff1673ffffffffffffffffffffffffffffffffffffffff16815260200190815260200160002060006103cd846001600460008873ffffffffffffffffffffffffffffffffffffffff1673ffffffffffffffffffffffffffffffffffffffff168152602001908152602001600020546103c89190611975565b6106b8565b8152602001908152602001600020604051806101000160405290816000820160009054906101000a900473ffffffffffffffffffffffffffffffffffffffff1673ffffffffffffffffffffffffffffffffffffffff1673ffffffffffffffffffffffffffffffffffffffff1681526020016001820160009054906101000a900473ffffffffffffffffffffffffffffffffffffffff1673ffffffffffffffffffffffffffffffffffffffff1673ffffffffffffffffffffffffffffffffffffffff1681526020016002820154815260200160038201548152602001600482015481526020016005820154815260200160068201548152602001600782015481525050905092915050565b6000600180549050905090565b6104ec6114c7565b600260008473ffffffffffffffffffffffffffffffffffffffff1673ffffffffffffffffffffffffffffffffffffffff1681526020019081526020016000206000838152602001908152602001600020604051806101000160405290816000820160009054906101000a900473ffffffffffffffffffffffffffffffffffffffff1673ffffffffffffffffffffffffffffffffffffffff1673ffffffffffffffffffffffffffffffffffffffff1681526020016001820160009054906101000a900473ffffffffffffffffffffffffffffffffffffffff1673ffffffffffffffffffffffffffffffffffffffff1673ffffffffffffffffffffffffffffffffffffffff1681526020016002820154815260200160038201548152602001600482015481526020016005820154815260200160068201548152602001600782015481525050905092915050565b8060058190555050565b60008054905090565b6106536114c7565b6106668461066185856106b8565b6104e4565b90509392505050565b6000600460008373ffffffffffffffffffffffffffffffffffffffff1673ffffffffffffffffffffffffffffffffffffffff168152602001908152602001600020549050919050565b600082826040516020016106cd929190611a12565b60405160208183030381529060405280519060200120905092915050565b6000600360008373ffffffffffffffffffffffffffffffffffffffff1673ffffffffffffffffffffffffffffffffffffffff168152602001908152602001600020549050919050565b60008311610777576040517f08c379a000000000000000000000000000000000000000000000000000000000815260040161076e90611ac1565b60405180910390fd5b600081116107ba576040517f08c379a00000000000000000000000000000000000000000000000000000000081526004016107b190611b2d565b60405180910390fd5b60018210156107fe576040517f08c379a00000000000000000000000000000000000000000000000000000000081526004016107f590611bbf565b60405180910390fd5b83831015610841576040517f08c379a000000000000000000000000000000000000000000000000000000000815260040161083890611c51565b60405180910390fd5b600073ffffffffffffffffffffffffffffffffffffffff168773ffffffffffffffffffffffffffffffffffffffff16036108b0576040517f08c379a00000000000000000000000000000000000000000000000000000000081526004016108a790611ce3565b60405180910390fd5b600073ffffffffffffffffffffffffffffffffffffffff168673ffffffffffffffffffffffffffffffffffffffff160361091f576040517f08c379a000000000000000000000000000000000000000000000000000000000815260040161091690611d75565b60405180910390fd5b600061092a88611190565b90506000858761093a9190611d95565b90506040518061010001604052808a73ffffffffffffffffffffffffffffffffffffffff1681526020018973ffffffffffffffffffffffffffffffffffffffff1681526020018281526020018881526020018681526020018581526020018481526020016000815250600260008a73ffffffffffffffffffffffffffffffffffffffff1673ffffffffffffffffffffffffffffffffffffffff168152602001908152602001600020600084815260200190815260200160002060008201518160000160006101000a81548173ffffffffffffffffffffffffffffffffffffffff021916908373ffffffffffffffffffffffffffffffffffffffff16021790555060208201518160010160006101000a81548173ffffffffffffffffffffffffffffffffffffffff021916908373ffffffffffffffffffffffffffffffffffffffff16021790555060408201518160020155606082015181600301556080820151816004015560a0820151816005015560c0820151816006015560e0820151816007015590505082600054610ace9190611d95565b60008190555082600360008a73ffffffffffffffffffffffffffffffffffffffff1673ffffffffffffffffffffffffffffffffffffffff16815260200190815260200160002054610b1f9190611d95565b600360008a73ffffffffffffffffffffffffffffffffffffffff1673ffffffffffffffffffffffffffffffffffffffff1681526020019081526020016000208190555060018290806001815401808255809150506001900390600052602060002001600090919091909150556000600460008b73ffffffffffffffffffffffffffffffffffffffff1673ffffffffffffffffffffffffffffffffffffffff168152602001908152602001600020549050600181610bdc9190611d95565b600460008c73ffffffffffffffffffffffffffffffffffffffff1673ffffffffffffffffffffffffffffffffffffffff16815260200190815260200160002081905550610c2b89333087611253565b8873ffffffffffffffffffffffffffffffffffffffff168a73ffffffffffffffffffffffffffffffffffffffff16847f3d5e514556748ee77ce69002bd3e7b81a768a2c0e9cdd46f95ed6bfc56143747858c8b8b8b604051610c91959493929190611dc9565b60405180910390a450505050505050505050565b600082826000600260008473ffffffffffffffffffffffffffffffffffffffff1673ffffffffffffffffffffffffffffffffffffffff16815260200190815260200160002060008381526020019081526020016000206004015411610d0957600080fd5b6000600260008773ffffffffffffffffffffffffffffffffffffffff1673ffffffffffffffffffffffffffffffffffffffff16815260200190815260200160002060008681526020019081526020016000209050610e5a81604051806101000160405290816000820160009054906101000a900473ffffffffffffffffffffffffffffffffffffffff1673ffffffffffffffffffffffffffffffffffffffff1673ffffffffffffffffffffffffffffffffffffffff1681526020016001820160009054906101000a900473ffffffffffffffffffffffffffffffffffffffff1673ffffffffffffffffffffffffffffffffffffffff1673ffffffffffffffffffffffffffffffffffffffff168152602001600282015481526020016003820154815260200160048201548152602001600582015481526020016006820154815260200160078201548152505061132b565b935050505092915050565b81816000600260008473ffffffffffffffffffffffffffffffffffffffff1673ffffffffffffffffffffffffffffffffffffffff16815260200190815260200160002060008381526020019081526020016000206004015411610ec757600080fd5b6000600260008673ffffffffffffffffffffffffffffffffffffffff1673ffffffffffffffffffffffffffffffffffffffff1681526020019081526020016000206000858152602001908152602001600020905060008160000160009054906101000a900473ffffffffffffffffffffffffffffffffffffffff1673ffffffffffffffffffffffffffffffffffffffff163373ffffffffffffffffffffffffffffffffffffffff1614905080610fb2576040517f08c379a0000000000000000000000000000000000000000000000000000000008152600401610fa990611e8e565b60405180910390fd5b60006110b183604051806101000160405290816000820160009054906101000a900473ffffffffffffffffffffffffffffffffffffffff1673ffffffffffffffffffffffffffffffffffffffff1673ffffffffffffffffffffffffffffffffffffffff1681526020016001820160009054906101000a900473ffffffffffffffffffffffffffffffffffffffff1673ffffffffffffffffffffffffffffffffffffffff1673ffffffffffffffffffffffffffffffffffffffff168152602001600282015481526020016003820154815260200160048201548152602001600582015481526020016006820154815260200160078201548152505061132b565b90508083600701546110c39190611d95565b836007018190555060008360000160009054906101000a900473ffffffffffffffffffffffffffffffffffffffff169050816000546111029190611975565b600081905550611113888284611402565b8360000160009054906101000a900473ffffffffffffffffffffffffffffffffffffffff1673ffffffffffffffffffffffffffffffffffffffff16877f62eb4bd96d9a7a66875a9f46f9f9d8bf6cfed3fe0578671b752301427d2a4f668460405161117e91906116d0565b60405180910390a35050505050505050565b60006111db82600460008573ffffffffffffffffffffffffffffffffffffffff1673ffffffffffffffffffffffffffffffffffffffff168152602001908152602001600020546106b8565b9050919050565b60006111ec6104d7565b821061122d576040517f08c379a000000000000000000000000000000000000000000000000000000000815260040161122490611f20565b60405180910390fd5b6001828154811061124157611240611f40565b5b90600052602060002001549050919050565b60006040517f23b872dd00000000000000000000000000000000000000000000000000000000815273ffffffffffffffffffffffffffffffffffffffff8516600482015273ffffffffffffffffffffffffffffffffffffffff841660248201528260448201526020600060648360008a5af1915081601f3d11600160005114161516156112e3573d863b15171591505b5080611324576040517f08c379a000000000000000000000000000000000000000000000000000000000815260040161131b90611fbb565b60405180910390fd5b5050505050565b6000806113366114bd565b9050826040015181101561134e5760009150506113fd565b826080015183604001516113629190611d95565b8110611384578260e001518360c0015161137c9190611975565b9150506113fd565b60008360400151826113969190611975565b905060008460a001519050600081836113af919061200a565b9050600082826113bf919061203b565b905060008760800151828960c001516113d8919061203b565b6113e2919061200a565b90508760e00151816113f49190611975565b96505050505050505b919050565b60006040517fa9059cbb00000000000000000000000000000000000000000000000000000000815273ffffffffffffffffffffffffffffffffffffffff84166004820152826024820152602060006044836000895af1915081601f3d1160016000511416151615611476573d853b15171591505b50806114b7576040517f08c379a00000000000000000000000000000000000000000000000000000000081526004016114ae906120c9565b60405180910390fd5b50505050565b6000600554905090565b604051806101000160405280600073ffffffffffffffffffffffffffffffffffffffff168152602001600073ffffffffffffffffffffffffffffffffffffffff1681526020016000815260200160008152602001600081526020016000815260200160008152602001600081525090565b600080fd5b600073ffffffffffffffffffffffffffffffffffffffff82169050919050565b60006115688261153d565b9050919050565b6115788161155d565b811461158357600080fd5b50565b6000813590506115958161156f565b92915050565b600080604083850312156115b2576115b1611538565b5b60006115c085828601611586565b92505060206115d185828601611586565b9150509250929050565b6115e48161155d565b82525050565b6000819050919050565b6115fd816115ea565b82525050565b6101008201600082015161161a60008501826115db565b50602082015161162d60208501826115db565b50604082015161164060408501826115f4565b50606082015161165360608501826115f4565b50608082015161166660808501826115f4565b5060a082015161167960a08501826115f4565b5060c082015161168c60c08501826115f4565b5060e082015161169f60e08501826115f4565b50505050565b6000610100820190506116bb6000830184611603565b92915050565b6116ca816115ea565b82525050565b60006020820190506116e560008301846116c1565b92915050565b6000819050919050565b6116fe816116eb565b811461170957600080fd5b50565b60008135905061171b816116f5565b92915050565b6000806040838503121561173857611737611538565b5b600061174685828601611586565b92505060206117578582860161170c565b9150509250929050565b61176a816115ea565b811461177557600080fd5b50565b60008135905061178781611761565b92915050565b6000602082840312156117a3576117a2611538565b5b60006117b184828501611778565b91505092915050565b6000806000606084860312156117d3576117d2611538565b5b60006117e186828701611586565b93505060206117f286828701611586565b925050604061180386828701611778565b9150509250925092565b60006020828403121561182357611822611538565b5b600061183184828501611586565b91505092915050565b6000806040838503121561185157611850611538565b5b600061185f85828601611586565b925050602061187085828601611778565b9150509250929050565b611883816116eb565b82525050565b600060208201905061189e600083018461187a565b92915050565b600080600080600080600060e0888a0312156118c3576118c2611538565b5b60006118d18a828b01611586565b97505060206118e28a828b01611586565b96505060406118f38a828b01611778565b95505060606119048a828b01611778565b94505060806119158a828b01611778565b93505060a06119268a828b01611778565b92505060c06119378a828b01611778565b91505092959891949750929550565b7f4e487b7100000000000000000000000000000000000000000000000000000000600052601160045260246000fd5b6000611980826115ea565b915061198b836115ea565b92508282039050818111156119a3576119a2611946565b5b92915050565b60008160601b9050919050565b60006119c1826119a9565b9050919050565b60006119d3826119b6565b9050919050565b6119eb6119e68261155d565b6119c8565b82525050565b6000819050919050565b611a0c611a07826115ea565b6119f1565b82525050565b6000611a1e82856119da565b601482019150611a2e82846119fb565b6020820191508190509392505050565b600082825260208201905092915050565b7f546f6b656e56657374696e673a206475726174696f6e206d757374206265203e60008201527f2030000000000000000000000000000000000000000000000000000000000000602082015250565b6000611aab602283611a3e565b9150611ab682611a4f565b604082019050919050565b60006020820190508181036000830152611ada81611a9e565b9050919050565b7f546f6b656e56657374696e673a20616d6f756e74206d757374206265203e2030600082015250565b6000611b17602083611a3e565b9150611b2282611ae1565b602082019050919050565b60006020820190508181036000830152611b4681611b0a565b9050919050565b7f546f6b656e56657374696e673a20736c696365506572696f645365636f6e647360008201527f206d757374206265203e3d203100000000000000000000000000000000000000602082015250565b6000611ba9602d83611a3e565b9150611bb482611b4d565b604082019050919050565b60006020820190508181036000830152611bd881611b9c565b9050919050565b7f546f6b656e56657374696e673a206475726174696f6e206d757374206265203e60008201527f3d20636c69666600000000000000000000000000000000000000000000000000602082015250565b6000611c3b602783611a3e565b9150611c4682611bdf565b604082019050919050565b60006020820190508181036000830152611c6a81611c2e565b9050919050565b7f546f6b656e56657374696e673a2062656e65666963696172792063616e6e6f7460008201527f20626520746865207a65726f2061646472657373000000000000000000000000602082015250565b6000611ccd603483611a3e565b9150611cd882611c71565b604082019050919050565b60006020820190508181036000830152611cfc81611cc0565b9050919050565b7f546f6b656e56657374696e673a20746f6b656e2063616e6e6f7420626520746860008201527f65207a65726f2061646472657373000000000000000000000000000000000000602082015250565b6000611d5f602e83611a3e565b9150611d6a82611d03565b604082019050919050565b60006020820190508181036000830152611d8e81611d52565b9050919050565b6000611da0826115ea565b9150611dab836115ea565b9250828201905080821115611dc357611dc2611946565b5b92915050565b600060a082019050611dde60008301886116c1565b611deb60208301876116c1565b611df860408301866116c1565b611e0560608301856116c1565b611e1260808301846116c1565b9695505050505050565b7f546f6b656e56657374696e673a206f6e6c792062656e6566696369617279206360008201527f616e2072656c656173652076657374656420746f6b656e730000000000000000602082015250565b6000611e78603883611a3e565b9150611e8382611e1c565b604082019050919050565b60006020820190508181036000830152611ea781611e6b565b9050919050565b7f546f6b656e56657374696e673a20696e646578206f7574206f6620626f756e6460008201527f7300000000000000000000000000000000000000000000000000000000000000602082015250565b6000611f0a602183611a3e565b9150611f1582611eae565b604082019050919050565b60006020820190508181036000830152611f3981611efd565b9050919050565b7f4e487b7100000000000000000000000000000000000000000000000000000000600052603260045260246000fd5b7f5452414e534645525f46524f4d5f4641494c4544000000000000000000000000600082015250565b6000611fa5601483611a3e565b9150611fb082611f6f565b602082019050919050565b60006020820190508181036000830152611fd481611f98565b9050919050565b7f4e487b7100000000000000000000000000000000000000000000000000000000600052601260045260246000fd5b6000612015826115ea565b9150612020836115ea565b9250826120305761202f611fdb565b5b828204905092915050565b6000612046826115ea565b9150612051836115ea565b925082820261205f816115ea565b9150828204841483151761207657612075611946565b5b5092915050565b7f5452414e534645525f4641494c45440000000000000000000000000000000000600082015250565b60006120b3600f83611a3e565b91506120be8261207d565b602082019050919050565b600060208201905081810360008301526120e2816120a6565b905091905056fea2646970667358221220bd3af800e876e27f45b851ee4214533dbbd002a76eb6126775b31ace4b0e894964736f6c63430008130033","linkReferences":{}},"methodIdentifiers":{"computeNextVestingScheduleIdForHolder(address)":"f7c469f0","computeReleasableAmount(address,bytes32)":"d603de9e","computeVestingScheduleIdForAddressAndIndex(address,uint256)":"8af104da","createVestingSchedule(address,address,uint256,uint256,uint256,uint256,uint256)":"adf4357d","getLastVestingScheduleForHolder(address,address)":"0ed749cc","getVestingIdAtIndex(uint256)":"f9079b37","getVestingSchedule(address,bytes32)":"1a8fdf4b","getVestingScheduleByAddressAndIndex(address,address,uint256)":"4ae31181","getVestingSchedulesCount()":"13083617","getVestingSchedulesCountByBeneficiary(address)":"5a7bb69a","getVestingSchedulesTotalAmount()":"48deb471","getVestingSchedulesTotalAmountByToken(address)":"aa849dc4","release(address,bytes32)":"d7c2eec7","setCurrentTime(uint256)":"22f8e566"},"id":25}