{"abi":[{"type":"function","name":"deploy","inputs":[{"name":"salt","type":"bytes32","internalType":"bytes32"},{"name":"creationCode","type":"bytes","internalType":"bytes"}],"outputs":[{"name":"deployed","type":"address","internalType":"address"}],"stateMutability":"payable"},{"type":"function","name":"getDeployed","inputs":[{"name":"deployer","type":"address","internalType":"address"},{"name":"salt","type":"bytes32","internalType":"bytes32"}],"outputs":[{"name":"deployed","type":"address","internalType":"address"}],"stateMutability":"view"}],"bytecode":{"object":"0x608060405234801561001057600080fd5b506109e9806100206000396000f3fe6080604052600436106100295760003560e01c806350f1c4641461002e578063cdcb760a1461006b575b600080fd5b34801561003a57600080fd5b5061005560048036038101906100509190610432565b61009b565b6040516100629190610481565b60405180910390f35b610085600480360381019061008091906105e2565b6100d9565b6040516100929190610481565b60405180910390f35b600082826040516020016100b09291906106a7565b6040516020818303038152906040528051906020012091506100d182610119565b905092915050565b600033836040516020016100ee9291906106a7565b60405160208183030381529060405280519060200120925061011183833461012c565b905092915050565b600061012582306102cb565b9050919050565b6000806040518060400160405280601081526020017f67363d3d37363d34f03d5260086018f30000000000000000000000000000000081525090506000858251602084016000f59050600073ffffffffffffffffffffffffffffffffffffffff168173ffffffffffffffffffffffffffffffffffffffff16036101e4576040517f08c379a00000000000000000000000000000000000000000000000000000000081526004016101db90610730565b60405180910390fd5b6101ed86610119565b925060008173ffffffffffffffffffffffffffffffffffffffff16858760405161021791906107c1565b60006040518083038185875af1925050503d8060008114610254576040519150601f19603f3d011682016040523d82523d6000602084013e610259565b606091505b50509050808015610282575060008473ffffffffffffffffffffffffffffffffffffffff163b14155b6102c1576040517f08c379a00000000000000000000000000000000000000000000000000000000081526004016102b890610824565b60405180910390fd5b5050509392505050565b60008061034360ff60f81b84866040518060400160405280601081526020017f67363d3d37363d34f03d5260086018f300000000000000000000000000000000815250805190602001206040516020016103289493929190610891565b6040516020818303038152906040528051906020012061037d565b9050610374816040516020016103599190610982565b6040516020818303038152906040528051906020012061037d565b91505092915050565b60008160001c9050919050565b6000604051905090565b600080fd5b600080fd5b600073ffffffffffffffffffffffffffffffffffffffff82169050919050565b60006103c98261039e565b9050919050565b6103d9816103be565b81146103e457600080fd5b50565b6000813590506103f6816103d0565b92915050565b6000819050919050565b61040f816103fc565b811461041a57600080fd5b50565b60008135905061042c81610406565b92915050565b6000806040838503121561044957610448610394565b5b6000610457858286016103e7565b92505060206104688582860161041d565b9150509250929050565b61047b816103be565b82525050565b60006020820190506104966000830184610472565b92915050565b600080fd5b600080fd5b6000601f19601f8301169050919050565b7f4e487b7100000000000000000000000000000000000000000000000000000000600052604160045260246000fd5b6104ef826104a6565b810181811067ffffffffffffffff8211171561050e5761050d6104b7565b5b80604052505050565b600061052161038a565b905061052d82826104e6565b919050565b600067ffffffffffffffff82111561054d5761054c6104b7565b5b610556826104a6565b9050602081019050919050565b82818337600083830152505050565b600061058561058084610532565b610517565b9050828152602081018484840111156105a1576105a06104a1565b5b6105ac848285610563565b509392505050565b600082601f8301126105c9576105c861049c565b5b81356105d9848260208601610572565b91505092915050565b600080604083850312156105f9576105f8610394565b5b60006106078582860161041d565b925050602083013567ffffffffffffffff81111561062857610627610399565b5b610634858286016105b4565b9150509250929050565b60008160601b9050919050565b60006106568261063e565b9050919050565b60006106688261064b565b9050919050565b61068061067b826103be565b61065d565b82525050565b6000819050919050565b6106a161069c826103fc565b610686565b82525050565b60006106b3828561066f565b6014820191506106c38284610690565b6020820191508190509392505050565b600082825260208201905092915050565b7f4445504c4f594d454e545f4641494c4544000000000000000000000000000000600082015250565b600061071a6011836106d3565b9150610725826106e4565b602082019050919050565b600060208201905081810360008301526107498161070d565b9050919050565b600081519050919050565b600081905092915050565b60005b83811015610784578082015181840152602081019050610769565b60008484015250505050565b600061079b82610750565b6107a5818561075b565b93506107b5818560208601610766565b80840191505092915050565b60006107cd8284610790565b915081905092915050565b7f494e495449414c495a4154494f4e5f4641494c45440000000000000000000000600082015250565b600061080e6015836106d3565b9150610819826107d8565b602082019050919050565b6000602082019050818103600083015261083d81610801565b9050919050565b60007fff0000000000000000000000000000000000000000000000000000000000000082169050919050565b6000819050919050565b61088b61088682610844565b610870565b82525050565b600061089d828761087a565b6001820191506108ad828661066f565b6014820191506108bd8285610690565b6020820191506108cd8284610690565b60208201915081905095945050505050565b600081905092915050565b7fd694000000000000000000000000000000000000000000000000000000000000600082015250565b60006109206002836108df565b915061092b826108ea565b600282019050919050565b7f0100000000000000000000000000000000000000000000000000000000000000600082015250565b600061096c6001836108df565b915061097782610936565b600182019050919050565b600061098d82610913565b9150610999828461066f565b6014820191506109a88261095f565b91508190509291505056fea2646970667358221220e088dc77287e92a6b73ca336f3e33316b6f55d64106b6de3f0bb2c6d9b44597364736f6c63430008130033","linkReferences":{}},"methodIdentifiers":{"deploy(bytes32,bytes)":"cdcb760a","getDeployed(address,bytes32)":"50f1c464"},"id":24}