{"abi":[{"type":"receive","stateMutability":"payable"},{"type":"function","name":"DOMAIN_SEPARATOR","inputs":[],"outputs":[{"name":"result","type":"bytes32","internalType":"bytes32"}],"stateMutability":"view"},{"type":"function","name":"allowance","inputs":[{"name":"owner","type":"address","internalType":"address"},{"name":"spender","type":"address","internalType":"address"}],"outputs":[{"name":"result","type":"uint256","internalType":"uint256"}],"stateMutability":"view"},{"type":"function","name":"approve","inputs":[{"name":"spender","type":"address","internalType":"address"},{"name":"amount","type":"uint256","internalType":"uint256"}],"outputs":[{"name":"","type":"bool","internalType":"bool"}],"stateMutability":"nonpayable"},{"type":"function","name":"balanceOf","inputs":[{"name":"owner","type":"address","internalType":"address"}],"outputs":[{"name":"result","type":"uint256","internalType":"uint256"}],"stateMutability":"view"},{"type":"function","name":"decimals","inputs":[],"outputs":[{"name":"","type":"uint8","internalType":"uint8"}],"stateMutability":"view"},{"type":"function","name":"deposit","inputs":[],"outputs":[],"stateMutability":"payable"},{"type":"function","name":"name","inputs":[],"outputs":[{"name":"","type":"string","internalType":"string"}],"stateMutability":"pure"},{"type":"function","name":"nonces","inputs":[{"name":"owner","type":"address","internalType":"address"}],"outputs":[{"name":"result","type":"uint256","internalType":"uint256"}],"stateMutability":"view"},{"type":"function","name":"permit","inputs":[{"name":"owner","type":"address","internalType":"address"},{"name":"spender","type":"address","internalType":"address"},{"name":"value","type":"uint256","internalType":"uint256"},{"name":"deadline","type":"uint256","internalType":"uint256"},{"name":"v","type":"uint8","internalType":"uint8"},{"name":"r","type":"bytes32","internalType":"bytes32"},{"name":"s","type":"bytes32","internalType":"bytes32"}],"outputs":[],"stateMutability":"nonpayable"},{"type":"function","name":"symbol","inputs":[],"outputs":[{"name":"","type":"string","internalType":"string"}],"stateMutability":"pure"},{"type":"function","name":"totalSupply","inputs":[],"outputs":[{"name":"result","type":"uint256","internalType":"uint256"}],"stateMutability":"view"},{"type":"function","name":"transfer","inputs":[{"name":"to","type":"address","internalType":"address"},{"name":"amount","type":"uint256","internalType":"uint256"}],"outputs":[{"name":"","type":"bool","internalType":"bool"}],"stateMutability":"nonpayable"},{"type":"function","name":"transferFrom","inputs":[{"name":"from","type":"address","internalType":"address"},{"name":"to","type":"address","internalType":"address"},{"name":"amount","type":"uint256","internalType":"uint256"}],"outputs":[{"name":"","type":"bool","internalType":"bool"}],"stateMutability":"nonpayable"},{"type":"function","name":"withdraw","inputs":[{"name":"amount","type":"uint256","internalType":"uint256"}],"outputs":[],"stateMutability":"nonpayable"},{"type":"event","name":"Approval","inputs":[{"name":"owner","type":"address","indexed":true,"internalType":"address"},{"name":"spender","type":"address","indexed":true,"internalType":"address"},{"name":"amount","type":"uint256","indexed":false,"internalType":"uint256"}],"anonymous":false},{"type":"event","name":"Transfer","inputs":[{"name":"from","type":"address","indexed":true,"internalType":"address"},{"name":"to","type":"address","indexed":true,"internalType":"address"},{"name":"amount","type":"uint256","indexed":false,"internalType":"uint256"}],"anonymous":false},{"type":"error","name":"AllowanceOverflow","inputs":[]},{"type":"error","name":"AllowanceUnderflow","inputs":[]},{"type":"error","name":"ETHTransferFailed","inputs":[]},{"type":"error","name":"InsufficientAllowance","inputs":[]},{"type":"error","name":"InsufficientBalance","inputs":[]},{"type":"error","name":"InvalidPermit","inputs":[]},{"type":"error","name":"Permit2AllowanceIsFixedAtInfinity","inputs":[]},{"type":"error","name":"PermitExpired","inputs":[]},{"type":"error","name":"TotalSupplyOverflow","inputs":[]}],"bytecode":{"object":"0x608060405234801561001057600080fd5b5061102a806100206000396000f3fe6080604052600436106100e15760003560e01c806370a082311161007f578063a9059cbb11610059578063a9059cbb146102e9578063d0e30db014610326578063d505accf14610330578063dd62ed3e14610359576100f0565b806370a08231146102445780637ecebe001461028157806395d89b41146102be576100f0565b806323b872dd116100bb57806323b872dd146101885780632e1a7d4d146101c5578063313ce567146101ee5780633644e51514610219576100f0565b806306fdde03146100f5578063095ea7b31461012057806318160ddd1461015d576100f0565b366100f0576100ee610396565b005b600080fd5b34801561010157600080fd5b5061010a6103a2565b6040516101179190610c47565b60405180910390f35b34801561012c57600080fd5b5061014760048036038101906101429190610d02565b6103df565b6040516101549190610d5d565b60405180910390f35b34801561016957600080fd5b5061017261046f565b60405161017f9190610d87565b60405180910390f35b34801561019457600080fd5b506101af60048036038101906101aa9190610da2565b610481565b6040516101bc9190610d5d565b60405180910390f35b3480156101d157600080fd5b506101ec60048036038101906101e79190610df5565b61062e565b005b3480156101fa57600080fd5b50610203610657565b6040516102109190610e3e565b60405180910390f35b34801561022557600080fd5b5061022e610660565b60405161023b9190610e72565b60405180910390f35b34801561025057600080fd5b5061026b60048036038101906102669190610e8d565b6106df565b6040516102789190610d87565b60405180910390f35b34801561028d57600080fd5b506102a860048036038101906102a39190610e8d565b6106fa565b6040516102b59190610d87565b60405180910390f35b3480156102ca57600080fd5b506102d3610715565b6040516102e09190610c47565b60405180910390f35b3480156102f557600080fd5b50610310600480360381019061030b9190610d02565b610752565b60405161031d9190610d5d565b60405180910390f35b61032e610396565b005b34801561033c57600080fd5b5061035760048036038101906103529190610f12565b6107e4565b005b34801561036557600080fd5b50610380600480360381019061037b9190610fb4565b6109b1565b60405161038d9190610d87565b60405180910390f35b6103a03334610a4a565b565b60606040518060400160405280600c81526020017f5772617070656420426572610000000000000000000000000000000000000000815250905090565b60006103e9610ae1565b1561041d578119156e22d473030f116ddee9f6b43ac78ba38460601b60601c181761041c57633f68539a6000526004601cfd5b5b82602052637f5e9f20600c5233600052816034600c205581600052602c5160601c337f8c5be1e5ebec7d5bd14f71427d1e84f3dd0314c0f7b2291e5b200ac8c7c3b92560206000a36001905092915050565b60006805345cdf77eb68f44c54905090565b600061048e848484610ae6565b610496610ae1565b15610567578360601b6e22d473030f116ddee9f6b43ac78ba333146104f05733602052637f5e9f208117600c526034600c2080548019156104ed57808511156104e7576313be252b6000526004601cfd5b84810382555b50505b6387a211a28117600c526020600c208054808511156105175763f4d678b86000526004601cfd5b8481038255856000526020600c2085815401815585602052600c5160601c8460601c7fddf252ad1be2c89b69c2b068fc378daa952ba7f163c4a11628f55a4df523b3ef602080a350505050610618565b8360601b33602052637f5e9f208117600c526034600c2080548019156105a3578085111561059d576313be252b6000526004601cfd5b84810382555b6387a211a28317600c526020600c208054808711156105ca5763f4d678b86000526004601cfd5b8681038255876000526020600c2087815401815587602052600c5160601c8660601c7fddf252ad1be2c89b69c2b068fc378daa952ba7f163c4a11628f55a4df523b3ef602080a35050505050505b610623848484610aeb565b600190509392505050565b6106383382610af0565b60003860003884335af16106545763b12d13eb6000526004601cfd5b50565b60006012905090565b60008061066b610b87565b90506000801b81036106895761067f6103a2565b8051906020012090505b6000610693610b8c565b90506040517f8b73c3c69bb8fe3d512ecc4cf759cc79239f7b179b0ffacaa9a75d522b39400f815282602082015281604082015246606082015230608082015260a08120935050505090565b60006387a211a2600c52816000526020600c20549050919050565b60006338377508600c52816000526020600c20549050919050565b60606040518060400160405280600581526020017f5742455241000000000000000000000000000000000000000000000000000000815250905090565b600061075f338484610ae6565b6387a211a2600c52336000526020600c208054808411156107885763f4d678b86000526004601cfd5b8381038255846000526020600c2084815401815584602052600c5160601c337fddf252ad1be2c89b69c2b068fc378daa952ba7f163c4a11628f55a4df523b3ef602080a35050506107da338484610aeb565b6001905092915050565b6107ec610ae1565b15610820578419156e22d473030f116ddee9f6b43ac78ba38760601b60601c181761081f57633f68539a6000526004601cfd5b5b600061082a610b87565b90506000801b81036108485761083e6103a2565b8051906020012090505b6000610852610b8c565b90508542111561086a57631a15a3cc6000526004601cfd5b6040518960601b60601c99508860601b60601c985065383775081901600e52896000526020600c2080547f8b73c3c69bb8fe3d512ecc4cf759cc79239f7b179b0ffacaa9a75d522b39400f835284602084015283604084015246606084015230608084015260a08320602e527f6e71edae12b1b97f4d1f60370fef10105fa2faae0126114a169c64845d6126c983528b60208401528a60408401528960608401528060808401528860a084015260c08320604e526042602c206000528760ff1660205286604052856060526020806080600060015afa8c3d51146109565763ddafbaef6000526004601cfd5b80820183558b637f5e9f2060a01b176040528a6034602c20558b8d7f8c5be1e5ebec7d5bd14f71427d1e84f3dd0314c0f7b2291e5b200ac8c7c3b925602060608801a383604052600060605250505050505050505050505050565b60006109bb610ae1565b15610a2b576e22d473030f116ddee9f6b43ac78ba373ffffffffffffffffffffffffffffffffffffffff168273ffffffffffffffffffffffffffffffffffffffff1603610a2a577fffffffffffffffffffffffffffffffffffffffffffffffffffffffffffffffff9050610a44565b5b81602052637f5e9f20600c52826000526034600c205490505b92915050565b610a5660008383610ae6565b6805345cdf77eb68f44c5481810181811015610a7a5763e5cfe9576000526004601cfd5b806805345cdf77eb68f44c556387a211a2600c52836000526020600c2083815401815583602052600c5160601c60007fddf252ad1be2c89b69c2b068fc378daa952ba7f163c4a11628f55a4df523b3ef602080a3505050610add60008383610aeb565b5050565b600090565b505050565b505050565b610afc82600083610ae6565b6387a211a2600c52816000526020600c20805480831115610b255763f4d678b86000526004601cfd5b8281038255826805345cdf77eb68f44c54036805345cdf77eb68f44c558260005260008460601b60601c7fddf252ad1be2c89b69c2b068fc378daa952ba7f163c4a11628f55a4df523b3ef60206000a35050610b8382600083610aeb565b5050565b600090565b60007fc89efdaa54c0f20c7adf612882df0950f5a951637e0307cdcb4c672f298b8bc660001b905090565b600081519050919050565b600082825260208201905092915050565b60005b83811015610bf1578082015181840152602081019050610bd6565b60008484015250505050565b6000601f19601f8301169050919050565b6000610c1982610bb7565b610c238185610bc2565b9350610c33818560208601610bd3565b610c3c81610bfd565b840191505092915050565b60006020820190508181036000830152610c618184610c0e565b905092915050565b600080fd5b600073ffffffffffffffffffffffffffffffffffffffff82169050919050565b6000610c9982610c6e565b9050919050565b610ca981610c8e565b8114610cb457600080fd5b50565b600081359050610cc681610ca0565b92915050565b6000819050919050565b610cdf81610ccc565b8114610cea57600080fd5b50565b600081359050610cfc81610cd6565b92915050565b60008060408385031215610d1957610d18610c69565b5b6000610d2785828601610cb7565b9250506020610d3885828601610ced565b9150509250929050565b60008115159050919050565b610d5781610d42565b82525050565b6000602082019050610d726000830184610d4e565b92915050565b610d8181610ccc565b82525050565b6000602082019050610d9c6000830184610d78565b92915050565b600080600060608486031215610dbb57610dba610c69565b5b6000610dc986828701610cb7565b9350506020610dda86828701610cb7565b9250506040610deb86828701610ced565b9150509250925092565b600060208284031215610e0b57610e0a610c69565b5b6000610e1984828501610ced565b91505092915050565b600060ff82169050919050565b610e3881610e22565b82525050565b6000602082019050610e536000830184610e2f565b92915050565b6000819050919050565b610e6c81610e59565b82525050565b6000602082019050610e876000830184610e63565b92915050565b600060208284031215610ea357610ea2610c69565b5b6000610eb184828501610cb7565b91505092915050565b610ec381610e22565b8114610ece57600080fd5b50565b600081359050610ee081610eba565b92915050565b610eef81610e59565b8114610efa57600080fd5b50565b600081359050610f0c81610ee6565b92915050565b600080600080600080600060e0888a031215610f3157610f30610c69565b5b6000610f3f8a828b01610cb7565b9750506020610f508a828b01610cb7565b9650506040610f618a828b01610ced565b9550506060610f728a828b01610ced565b9450506080610f838a828b01610ed1565b93505060a0610f948a828b01610efd565b92505060c0610fa58a828b01610efd565b91505092959891949750929550565b60008060408385031215610fcb57610fca610c69565b5b6000610fd985828601610cb7565b9250506020610fea85828601610cb7565b915050925092905056fea2646970667358221220f5e41e1d174f3440248dd720a0b863f732231b6446056178b45c9ddf7935e5a464736f6c63430008130033","linkReferences":{}},"methodIdentifiers":{"DOMAIN_SEPARATOR()":"3644e515","allowance(address,address)":"dd62ed3e","approve(address,uint256)":"095ea7b3","balanceOf(address)":"70a08231","decimals()":"313ce567","deposit()":"d0e30db0","name()":"06fdde03","nonces(address)":"7ecebe00","permit(address,address,uint256,uint256,uint8,bytes32,bytes32)":"d505accf","symbol()":"95d89b41","totalSupply()":"18160ddd","transfer(address,uint256)":"a9059cbb","transferFrom(address,address,uint256)":"23b872dd","withdraw(uint256)":"2e1a7d4d"},"id":23}