{"abi":[{"type":"constructor","inputs":[{"name":"name","type":"string","internalType":"string"},{"name":"symbol","type":"string","internalType":"string"},{"name":"initialSupply","type":"uint256","internalType":"uint256"}],"stateMutability":"nonpayable"},{"type":"function","name":"DOMAIN_SEPARATOR","inputs":[],"outputs":[{"name":"","type":"bytes32","internalType":"bytes32"}],"stateMutability":"view"},{"type":"function","name":"allowance","inputs":[{"name":"","type":"address","internalType":"address"},{"name":"","type":"address","internalType":"address"}],"outputs":[{"name":"","type":"uint256","internalType":"uint256"}],"stateMutability":"view"},{"type":"function","name":"approve","inputs":[{"name":"spender","type":"address","internalType":"address"},{"name":"amount","type":"uint256","internalType":"uint256"}],"outputs":[{"name":"","type":"bool","internalType":"bool"}],"stateMutability":"nonpayable"},{"type":"function","name":"balanceOf","inputs":[{"name":"","type":"address","internalType":"address"}],"outputs":[{"name":"","type":"uint256","internalType":"uint256"}],"stateMutability":"view"},{"type":"function","name":"decimals","inputs":[],"outputs":[{"name":"","type":"uint8","internalType":"uint8"}],"stateMutability":"view"},{"type":"function","name":"name","inputs":[],"outputs":[{"name":"","type":"string","internalType":"string"}],"stateMutability":"view"},{"type":"function","name":"nonces","inputs":[{"name":"","type":"address","internalType":"address"}],"outputs":[{"name":"","type":"uint256","internalType":"uint256"}],"stateMutability":"view"},{"type":"function","name":"permit","inputs":[{"name":"owner","type":"address","internalType":"address"},{"name":"spender","type":"address","internalType":"address"},{"name":"value","type":"uint256","internalType":"uint256"},{"name":"deadline","type":"uint256","internalType":"uint256"},{"name":"v","type":"uint8","internalType":"uint8"},{"name":"r","type":"bytes32","internalType":"bytes32"},{"name":"s","type":"bytes32","internalType":"bytes32"}],"outputs":[],"stateMutability":"nonpayable"},{"type":"function","name":"symbol","inputs":[],"outputs":[{"name":"","type":"string","internalType":"string"}],"stateMutability":"view"},{"type":"function","name":"totalSupply","inputs":[],"outputs":[{"name":"","type":"uint256","internalType":"uint256"}],"stateMutability":"view"},{"type":"function","name":"transfer","inputs":[{"name":"to","type":"address","internalType":"address"},{"name":"amount","type":"uint256","internalType":"uint256"}],"outputs":[{"name":"","type":"bool","internalType":"bool"}],"stateMutability":"nonpayable"},{"type":"function","name":"transferFrom","inputs":[{"name":"from","type":"address","internalType":"address"},{"name":"to","type":"address","internalType":"address"},{"name":"amount","type":"uint256","internalType":"uint256"}],"outputs":[{"name":"","type":"bool","internalType":"bool"}],"stateMutability":"nonpayable"},{"type":"event","name":"Approval","inputs":[{"name":"owner","type":"address","indexed":true,"internalType":"address"},{"name":"spender","type":"address","indexed":true,"internalType":"address"},{"name":"amount","type":"uint256","indexed":false,"internalType":"uint256"}],"anonymous":false},{"type":"event","name":"Transfer","inputs":[{"name":"from","type":"address","indexed":true,"internalType":"address"},{"name":"to","type":"address","indexed":true,"internalType":"address"},{"name":"amount","type":"uint256","indexed":false,"internalType":"uint256"}],"anonymous":false}],"bytecode":{"object":"0x60e06040523480156200001157600080fd5b5060405162001e9538038062001e958339818101604052810190620000379190620003dc565b8282601282600090816200004c9190620006b7565b5081600190816200005e9190620006b7565b508060ff1660808160ff16815250504660a0818152505062000085620000aa60201b60201c565b60c08181525050505050620000a133826200013a60201b60201c565b505050620009bb565b60007f8b73c3c69bb8fe3d512ecc4cf759cc79239f7b179b0ffacaa9a75d522b39400f6000604051620000de91906200084d565b60405180910390207fc89efdaa54c0f20c7adf612882df0950f5a951637e0307cdcb4c672f298b8bc646306040516020016200011f959493929190620008d7565b60405160208183030381529060405280519060200120905090565b80600260008282546200014e919062000963565b9250508190555080600360008473ffffffffffffffffffffffffffffffffffffffff1673ffffffffffffffffffffffffffffffffffffffff168152602001908152602001600020600082825401925050819055508173ffffffffffffffffffffffffffffffffffffffff16600073ffffffffffffffffffffffffffffffffffffffff167fddf252ad1be2c89b69c2b068fc378daa952ba7f163c4a11628f55a4df523b3ef836040516200020291906200099e565b60405180910390a35050565b6000604051905090565b600080fd5b600080fd5b600080fd5b600080fd5b6000601f19601f8301169050919050565b7f4e487b7100000000000000000000000000000000000000000000000000000000600052604160045260246000fd5b62000277826200022c565b810181811067ffffffffffffffff821117156200029957620002986200023d565b5b80604052505050565b6000620002ae6200020e565b9050620002bc82826200026c565b919050565b600067ffffffffffffffff821115620002df57620002de6200023d565b5b620002ea826200022c565b9050602081019050919050565b60005b8381101562000317578082015181840152602081019050620002fa565b60008484015250505050565b60006200033a6200033484620002c1565b620002a2565b90508281526020810184848401111562000359576200035862000227565b5b62000366848285620002f7565b509392505050565b600082601f83011262000386576200038562000222565b5b81516200039884826020860162000323565b91505092915050565b6000819050919050565b620003b681620003a1565b8114620003c257600080fd5b50565b600081519050620003d681620003ab565b92915050565b600080600060608486031215620003f857620003f762000218565b5b600084015167ffffffffffffffff8111156200041957620004186200021d565b5b62000427868287016200036e565b935050602084015167ffffffffffffffff8111156200044b576200044a6200021d565b5b62000459868287016200036e565b92505060406200046c86828701620003c5565b9150509250925092565b600081519050919050565b7f4e487b7100000000000000000000000000000000000000000000000000000000600052602260045260246000fd5b60006002820490506001821680620004c957607f821691505b602082108103620004df57620004de62000481565b5b50919050565b60008190508160005260206000209050919050565b60006020601f8301049050919050565b600082821b905092915050565b600060088302620005497fffffffffffffffffffffffffffffffffffffffffffffffffffffffffffffffff826200050a565b6200055586836200050a565b95508019841693508086168417925050509392505050565b6000819050919050565b600062000598620005926200058c84620003a1565b6200056d565b620003a1565b9050919050565b6000819050919050565b620005b48362000577565b620005cc620005c3826200059f565b84845462000517565b825550505050565b600090565b620005e3620005d4565b620005f0818484620005a9565b505050565b5b8181101562000618576200060c600082620005d9565b600181019050620005f6565b5050565b601f82111562000667576200063181620004e5565b6200063c84620004fa565b810160208510156200064c578190505b620006646200065b85620004fa565b830182620005f5565b50505b505050565b600082821c905092915050565b60006200068c600019846008026200066c565b1980831691505092915050565b6000620006a7838362000679565b9150826002028217905092915050565b620006c28262000476565b67ffffffffffffffff811115620006de57620006dd6200023d565b5b620006ea8254620004b0565b620006f78282856200061c565b600060209050601f8311600181146200072f57600084156200071a578287015190505b62000726858262000699565b86555062000796565b601f1984166200073f86620004e5565b60005b82811015620007695784890151825560018201915060208501945060208101905062000742565b8683101562000789578489015162000785601f89168262000679565b8355505b6001600288020188555050505b505050505050565b600081905092915050565b60008190508160005260206000209050919050565b60008154620007cd81620004b0565b620007d981866200079e565b94506001821660008114620007f757600181146200080d5762000844565b60ff198316865281151582028601935062000844565b6200081885620007a9565b60005b838110156200083c578154818901526001820191506020810190506200081b565b838801955050505b50505092915050565b60006200085b8284620007be565b915081905092915050565b6000819050919050565b6200087b8162000866565b82525050565b6200088c81620003a1565b82525050565b600073ffffffffffffffffffffffffffffffffffffffff82169050919050565b6000620008bf8262000892565b9050919050565b620008d181620008b2565b82525050565b600060a082019050620008ee600083018862000870565b620008fd602083018762000870565b6200090c604083018662000870565b6200091b606083018562000881565b6200092a6080830184620008c6565b9695505050505050565b7f4e487b7100000000000000000000000000000000000000000000000000000000600052601160045260246000fd5b60006200097082620003a1565b91506200097d83620003a1565b925082820190508082111562000998576200099762000934565b5b92915050565b6000602082019050620009b5600083018462000881565b92915050565b60805160a05160c0516114aa620009eb60003960006106b7015260006106830152600061065d01526114aa6000f3fe608060405234801561001057600080fd5b50600436106100b45760003560e01c806370a082311161007157806370a08231146101915780637ecebe00146101c157806395d89b41146101f1578063a9059cbb1461020f578063d505accf1461023f578063dd62ed3e1461025b576100b4565b806306fdde03146100b9578063095ea7b3146100d757806318160ddd1461010757806323b872dd14610125578063313ce567146101555780633644e51514610173575b600080fd5b6100c161028b565b6040516100ce9190610ce8565b60405180910390f35b6100f160048036038101906100ec9190610da3565b610319565b6040516100fe9190610dfe565b60405180910390f35b61010f61040b565b60405161011c9190610e28565b60405180910390f35b61013f600480360381019061013a9190610e43565b610411565b60405161014c9190610dfe565b60405180910390f35b61015d61065b565b60405161016a9190610eb2565b60405180910390f35b61017b61067f565b6040516101889190610ee6565b60405180910390f35b6101ab60048036038101906101a69190610f01565b6106dc565b6040516101b89190610e28565b60405180910390f35b6101db60048036038101906101d69190610f01565b6106f4565b6040516101e89190610e28565b60405180910390f35b6101f961070c565b6040516102069190610ce8565b60405180910390f35b61022960048036038101906102249190610da3565b61079a565b6040516102369190610dfe565b60405180910390f35b61025960048036038101906102549190610f86565b6108ae565b005b61027560048036038101906102709190611028565b610ba7565b6040516102829190610e28565b60405180910390f35b6000805461029890611097565b80601f01602080910402602001604051908101604052809291908181526020018280546102c490611097565b80156103115780601f106102e657610100808354040283529160200191610311565b820191906000526020600020905b8154815290600101906020018083116102f457829003601f168201915b505050505081565b600081600460003373ffffffffffffffffffffffffffffffffffffffff1673ffffffffffffffffffffffffffffffffffffffff16815260200190815260200160002060008573ffffffffffffffffffffffffffffffffffffffff1673ffffffffffffffffffffffffffffffffffffffff168152602001908152602001600020819055508273ffffffffffffffffffffffffffffffffffffffff163373ffffffffffffffffffffffffffffffffffffffff167f8c5be1e5ebec7d5bd14f71427d1e84f3dd0314c0f7b2291e5b200ac8c7c3b925846040516103f99190610e28565b60405180910390a36001905092915050565b60025481565b600080600460008673ffffffffffffffffffffffffffffffffffffffff1673ffffffffffffffffffffffffffffffffffffffff16815260200190815260200160002060003373ffffffffffffffffffffffffffffffffffffffff1673ffffffffffffffffffffffffffffffffffffffff1681526020019081526020016000205490507fffffffffffffffffffffffffffffffffffffffffffffffffffffffffffffffff81146105475782816104c691906110f7565b600460008773ffffffffffffffffffffffffffffffffffffffff1673ffffffffffffffffffffffffffffffffffffffff16815260200190815260200160002060003373ffffffffffffffffffffffffffffffffffffffff1673ffffffffffffffffffffffffffffffffffffffff168152602001908152602001600020819055505b82600360008773ffffffffffffffffffffffffffffffffffffffff1673ffffffffffffffffffffffffffffffffffffffff168152602001908152602001600020600082825461059691906110f7565b9250508190555082600360008673ffffffffffffffffffffffffffffffffffffffff1673ffffffffffffffffffffffffffffffffffffffff168152602001908152602001600020600082825401925050819055508373ffffffffffffffffffffffffffffffffffffffff168573ffffffffffffffffffffffffffffffffffffffff167fddf252ad1be2c89b69c2b068fc378daa952ba7f163c4a11628f55a4df523b3ef856040516106479190610e28565b60405180910390a360019150509392505050565b7f000000000000000000000000000000000000000000000000000000000000000081565b60007f000000000000000000000000000000000000000000000000000000000000000046146106b5576106b0610bcc565b6106d7565b7f00000000000000000000000000000000000000000000000000000000000000005b905090565b60036020528060005260406000206000915090505481565b60056020528060005260406000206000915090505481565b6001805461071990611097565b80601f016020809104026020016040519081016040528092919081815260200182805461074590611097565b80156107925780601f1061076757610100808354040283529160200191610792565b820191906000526020600020905b81548152906001019060200180831161077557829003601f168201915b505050505081565b600081600360003373ffffffffffffffffffffffffffffffffffffffff1673ffffffffffffffffffffffffffffffffffffffff16815260200190815260200160002060008282546107eb91906110f7565b9250508190555081600360008573ffffffffffffffffffffffffffffffffffffffff1673ffffffffffffffffffffffffffffffffffffffff168152602001908152602001600020600082825401925050819055508273ffffffffffffffffffffffffffffffffffffffff163373ffffffffffffffffffffffffffffffffffffffff167fddf252ad1be2c89b69c2b068fc378daa952ba7f163c4a11628f55a4df523b3ef8460405161089c9190610e28565b60405180910390a36001905092915050565b428410156108f1576040517f08c379a00000000000000000000000000000000000000000000000000000000081526004016108e890611177565b60405180910390fd5b600060016108fd61067f565b7f6e71edae12b1b97f4d1f60370fef10105fa2faae0126114a169c64845d6126c98a8a8a600560008f73ffffffffffffffffffffffffffffffffffffffff1673ffffffffffffffffffffffffffffffffffffffff1681526020019081526020016000206000815480929190600101919050558b604051602001610985969594939291906111a6565b604051602081830303815290604052805190602001206040516020016109ac92919061127f565b60405160208183030381529060405280519060200120858585604051600081526020016040526040516109e294939291906112b6565b6020604051602081039080840390855afa158015610a04573d6000803e3d6000fd5b505050602060405103519050600073ffffffffffffffffffffffffffffffffffffffff168173ffffffffffffffffffffffffffffffffffffffff1614158015610a7857508773ffffffffffffffffffffffffffffffffffffffff168173ffffffffffffffffffffffffffffffffffffffff16145b610ab7576040517f08c379a0000000000000000000000000000000000000000000000000000000008152600401610aae90611347565b60405180910390fd5b85600460008373ffffffffffffffffffffffffffffffffffffffff1673ffffffffffffffffffffffffffffffffffffffff16815260200190815260200160002060008973ffffffffffffffffffffffffffffffffffffffff1673ffffffffffffffffffffffffffffffffffffffff16815260200190815260200160002081905550508573ffffffffffffffffffffffffffffffffffffffff168773ffffffffffffffffffffffffffffffffffffffff167f8c5be1e5ebec7d5bd14f71427d1e84f3dd0314c0f7b2291e5b200ac8c7c3b92587604051610b969190610e28565b60405180910390a350505050505050565b6004602052816000526040600020602052806000526040600020600091509150505481565b60007f8b73c3c69bb8fe3d512ecc4cf759cc79239f7b179b0ffacaa9a75d522b39400f6000604051610bfe919061140a565b60405180910390207fc89efdaa54c0f20c7adf612882df0950f5a951637e0307cdcb4c672f298b8bc64630604051602001610c3d959493929190611421565b60405160208183030381529060405280519060200120905090565b600081519050919050565b600082825260208201905092915050565b60005b83811015610c92578082015181840152602081019050610c77565b60008484015250505050565b6000601f19601f8301169050919050565b6000610cba82610c58565b610cc48185610c63565b9350610cd4818560208601610c74565b610cdd81610c9e565b840191505092915050565b60006020820190508181036000830152610d028184610caf565b905092915050565b600080fd5b600073ffffffffffffffffffffffffffffffffffffffff82169050919050565b6000610d3a82610d0f565b9050919050565b610d4a81610d2f565b8114610d5557600080fd5b50565b600081359050610d6781610d41565b92915050565b6000819050919050565b610d8081610d6d565b8114610d8b57600080fd5b50565b600081359050610d9d81610d77565b92915050565b60008060408385031215610dba57610db9610d0a565b5b6000610dc885828601610d58565b9250506020610dd985828601610d8e565b9150509250929050565b60008115159050919050565b610df881610de3565b82525050565b6000602082019050610e136000830184610def565b92915050565b610e2281610d6d565b82525050565b6000602082019050610e3d6000830184610e19565b92915050565b600080600060608486031215610e5c57610e5b610d0a565b5b6000610e6a86828701610d58565b9350506020610e7b86828701610d58565b9250506040610e8c86828701610d8e565b9150509250925092565b600060ff82169050919050565b610eac81610e96565b82525050565b6000602082019050610ec76000830184610ea3565b92915050565b6000819050919050565b610ee081610ecd565b82525050565b6000602082019050610efb6000830184610ed7565b92915050565b600060208284031215610f1757610f16610d0a565b5b6000610f2584828501610d58565b91505092915050565b610f3781610e96565b8114610f4257600080fd5b50565b600081359050610f5481610f2e565b92915050565b610f6381610ecd565b8114610f6e57600080fd5b50565b600081359050610f8081610f5a565b92915050565b600080600080600080600060e0888a031215610fa557610fa4610d0a565b5b6000610fb38a828b01610d58565b9750506020610fc48a828b01610d58565b9650506040610fd58a828b01610d8e565b9550506060610fe68a828b01610d8e565b9450506080610ff78a828b01610f45565b93505060a06110088a828b01610f71565b92505060c06110198a828b01610f71565b91505092959891949750929550565b6000806040838503121561103f5761103e610d0a565b5b600061104d85828601610d58565b925050602061105e85828601610d58565b9150509250929050565b7f4e487b7100000000000000000000000000000000000000000000000000000000600052602260045260246000fd5b600060028204905060018216806110af57607f821691505b6020821081036110c2576110c1611068565b5b50919050565b7f4e487b7100000000000000000000000000000000000000000000000000000000600052601160045260246000fd5b600061110282610d6d565b915061110d83610d6d565b9250828203905081811115611125576111246110c8565b5b92915050565b7f5045524d49545f444541444c494e455f45585049524544000000000000000000600082015250565b6000611161601783610c63565b915061116c8261112b565b602082019050919050565b6000602082019050818103600083015261119081611154565b9050919050565b6111a081610d2f565b82525050565b600060c0820190506111bb6000830189610ed7565b6111c86020830188611197565b6111d56040830187611197565b6111e26060830186610e19565b6111ef6080830185610e19565b6111fc60a0830184610e19565b979650505050505050565b600081905092915050565b7f1901000000000000000000000000000000000000000000000000000000000000600082015250565b6000611248600283611207565b915061125382611212565b600282019050919050565b6000819050919050565b61127961127482610ecd565b61125e565b82525050565b600061128a8261123b565b91506112968285611268565b6020820191506112a68284611268565b6020820191508190509392505050565b60006080820190506112cb6000830187610ed7565b6112d86020830186610ea3565b6112e56040830185610ed7565b6112f26060830184610ed7565b95945050505050565b7f494e56414c49445f5349474e4552000000000000000000000000000000000000600082015250565b6000611331600e83610c63565b915061133c826112fb565b602082019050919050565b6000602082019050818103600083015261136081611324565b9050919050565b600081905092915050565b60008190508160005260206000209050919050565b6000815461139481611097565b61139e8186611367565b945060018216600081146113b957600181146113ce57611401565b60ff1983168652811515820286019350611401565b6113d785611372565b60005b838110156113f9578154818901526001820191506020810190506113da565b838801955050505b50505092915050565b60006114168284611387565b915081905092915050565b600060a0820190506114366000830188610ed7565b6114436020830187610ed7565b6114506040830186610ed7565b61145d6060830185610e19565b61146a6080830184611197565b969550505050505056fea2646970667358221220a56ac6f64d498e99219f4df41a29fca405dd2b6ac82583a2e8d09d8c097e7d0964736f6c63430008130033","linkReferences":{}},"methodIdentifiers":{"DOMAIN_SEPARATOR()":"3644e515","allowance(address,address)":"dd62ed3e","approve(address,uint256)":"095ea7b3","balanceOf(address)":"70a08231","decimals()":"313ce567","name()":"06fdde03","nonces(address)":"7ecebe00","permit(address,address,uint256,uint256,uint8,bytes32,bytes32)":"d505accf","symbol()":"95d89b41","totalSupply()":"18160ddd","transfer(address,uint256)":"a9059cbb","transferFrom(address,address,uint256)":"23b872dd"},"id":26}