{"abi":[{"type":"constructor","inputs":[{"name":"_weightedPoolFactory","type":"address","internalType":"address"},{"name":"_vault","type":"address","internalType":"address"}],"stateMutability":"nonpayable"},{"type":"function","name":"POOL_FACTORY","inputs":[],"outputs":[{"name":"","type":"address","internalType":"contract IWeightedPoolFactory"}],"stateMutability":"view"},{"type":"function","name":"POOL_FEE","inputs":[],"outputs":[{"name":"","type":"uint256","internalType":"uint256"}],"stateMutability":"view"},{"type":"function","name":"VAULT","inputs":[],"outputs":[{"name":"","type":"address","internalType":"contract IVault"}],"stateMutability":"view"},{"type":"function","name":"WEIGHT_50_50","inputs":[],"outputs":[{"name":"","type":"uint256","internalType":"uint256"}],"stateMutability":"view"},{"type":"function","name":"addBerabatorWhitelist","inputs":[{"name":"token","type":"address","internalType":"address"}],"outputs":[],"stateMutability":"nonpayable"},{"type":"function","name":"addVaults","inputs":[{"name":"vault","type":"address[]","internalType":"address[]"}],"outputs":[],"stateMutability":"nonpayable"},{"type":"function","name":"berabatorAddress","inputs":[],"outputs":[{"name":"","type":"address","internalType":"address"}],"stateMutability":"view"},{"type":"function","name":"berabatorWhitelist","inputs":[{"name":"","type":"address","internalType":"address"}],"outputs":[{"name":"","type":"bool","internalType":"bool"}],"stateMutability":"view"},{"type":"function","name":"createPoolAndAdd","inputs":[{"name":"token","type":"address","internalType":"address"},{"name":"baseToken","type":"address","internalType":"address"},{"name":"baseAmount","type":"uint256","internalType":"uint256"},{"name":"amount","type":"uint256","internalType":"uint256"}],"outputs":[{"name":"pool","type":"address","internalType":"address"}],"stateMutability":"nonpayable"},{"type":"function","name":"owner","inputs":[],"outputs":[{"name":"","type":"address","internalType":"address"}],"stateMutability":"view"},{"type":"function","name":"removeVaults","inputs":[{"name":"vault","type":"address[]","internalType":"address[]"}],"outputs":[],"stateMutability":"nonpayable"},{"type":"function","name":"renounceOwnership","inputs":[],"outputs":[],"stateMutability":"nonpayable"},{"type":"function","name":"setBerabatorAddress","inputs":[{"name":"_berabatorAddress","type":"address","internalType":"address"}],"outputs":[],"stateMutability":"nonpayable"},{"type":"function","name":"transferOwnership","inputs":[{"name":"newOwner","type":"address","internalType":"address"}],"outputs":[],"stateMutability":"nonpayable"},{"type":"event","name":"BerabatorAddressSet","inputs":[{"name":"berabatorAddress","type":"address","indexed":true,"internalType":"address"}],"anonymous":false},{"type":"event","name":"BerabatorWhitelistAdded","inputs":[{"name":"token","type":"address","indexed":true,"internalType":"address"}],"anonymous":false},{"type":"event","name":"BexListed","inputs":[{"name":"pool","type":"address","indexed":true,"internalType":"address"},{"name":"baseToken","type":"address","indexed":true,"internalType":"address"},{"name":"token","type":"address","indexed":true,"internalType":"address"},{"name":"baseAmount","type":"uint256","indexed":false,"internalType":"uint256"},{"name":"amount","type":"uint256","indexed":false,"internalType":"uint256"}],"anonymous":false},{"type":"event","name":"OwnershipTransferred","inputs":[{"name":"previousOwner","type":"address","indexed":true,"internalType":"address"},{"name":"newOwner","type":"address","indexed":true,"internalType":"address"}],"anonymous":false},{"type":"event","name":"VaultAdded","inputs":[{"name":"vault","type":"address","indexed":true,"internalType":"address"}],"anonymous":false},{"type":"event","name":"VaultRemoved","inputs":[{"name":"vault","type":"address","indexed":true,"internalType":"address"}],"anonymous":false},{"type":"error","name":"BexLiquidityManager_AddressZero","inputs":[]},{"type":"error","name":"BexLiquidityManager_BerabatorAddressNotSet","inputs":[]},{"type":"error","name":"BexLiquidityManager_TokenAlreadyWhitelisted","inputs":[]},{"type":"error","name":"BexLiquidityManager_Unauthorized","inputs":[]},{"type":"error","name":"BexLiquidityManager_VaultAlreadyInWhitelist","inputs":[]},{"type":"error","name":"BexLiquidityManager_VaultNotInWhitelist","inputs":[]}],"bytecode":{"object":"0x60c06040523480156200001157600080fd5b50604051620035d5380380620035d58339818101604052810190620000379190620001fd565b620000576200004b620000c760201b60201c565b620000cf60201b60201c565b8173ffffffffffffffffffffffffffffffffffffffff1660808173ffffffffffffffffffffffffffffffffffffffff16815250508073ffffffffffffffffffffffffffffffffffffffff1660a08173ffffffffffffffffffffffffffffffffffffffff1681525050505062000244565b600033905090565b60008060009054906101000a900473ffffffffffffffffffffffffffffffffffffffff169050816000806101000a81548173ffffffffffffffffffffffffffffffffffffffff021916908373ffffffffffffffffffffffffffffffffffffffff1602179055508173ffffffffffffffffffffffffffffffffffffffff168173ffffffffffffffffffffffffffffffffffffffff167f8be0079c531659141344cd1fd0a4f28419497f9722a3daafe3b4186f6b6457e060405160405180910390a35050565b600080fd5b600073ffffffffffffffffffffffffffffffffffffffff82169050919050565b6000620001c58262000198565b9050919050565b620001d781620001b8565b8114620001e357600080fd5b50565b600081519050620001f781620001cc565b92915050565b6000806040838503121562000217576200021662000193565b5b60006200022785828601620001e6565b92505060206200023a85828601620001e6565b9150509250929050565b60805160a05161334f62000286600039600081816105260152818161089c015281816108e7015261174901526000818161078b0152611374015261334f6000f3fe608060405234801561001057600080fd5b50600436106100ea5760003560e01c80639ae28fc31161008c578063dd1b9c4a11610066578063dd1b9c4a14610213578063e2e4143014610231578063efaeea2114610261578063f2fde38b1461027d576100ea565b80639ae28fc3146101a9578063c96d3ceb146101d9578063d8e31608146101f5576100ea565b8063715018a6116100c8578063715018a61461014557806379701c3e1461014f578063844e0d831461016d5780638da5cb5b1461018b576100ea565b806319e80b8d146100ef5780633def86901461010b578063411557d114610127575b600080fd5b610109600480360381019061010491906120d1565b610299565b005b6101256004803603810190610120919061211a565b61042f565b005b61012f610524565b60405161013c91906121a6565b60405180910390f35b61014d610548565b005b61015761055c565b60405161016491906121da565b60405180910390f35b610175610568565b6040516101829190612204565b60405180910390f35b61019361058e565b6040516101a09190612204565b60405180910390f35b6101c360048036038101906101be919061211a565b6105b7565b6040516101d0919061223a565b60405180910390f35b6101f360048036038101906101ee919061211a565b6105d7565b005b6101fd610789565b60405161020a9190612276565b60405180910390f35b61021b6107ad565b60405161022891906121da565b60405180910390f35b61024b600480360381019061024691906122bd565b6107b8565b6040516102589190612204565b60405180910390f35b61027b6004803603810190610276919061237f565b610985565b005b6102976004803603810190610292919061211a565b610b44565b005b6102a1610bc7565b60008151905060005b8181101561042a57600260008483815181106102c9576102c86123cc565b5b602002602001015173ffffffffffffffffffffffffffffffffffffffff1673ffffffffffffffffffffffffffffffffffffffff16815260200190815260200160002060009054906101000a900460ff1615610350576040517fa51e041100000000000000000000000000000000000000000000000000000000815260040160405180910390fd5b600160026000858481518110610369576103686123cc565b5b602002602001015173ffffffffffffffffffffffffffffffffffffffff1673ffffffffffffffffffffffffffffffffffffffff16815260200190815260200160002060006101000a81548160ff0219169083151502179055508281815181106103d5576103d46123cc565b5b602002602001015173ffffffffffffffffffffffffffffffffffffffff167f7b7ef7a864d96a85497a1ed846adb39940dd6ccef678ff6ac8d55505e09b8cc460405160405180910390a28060010190506102aa565b505050565b610437610bc7565b600073ffffffffffffffffffffffffffffffffffffffff168173ffffffffffffffffffffffffffffffffffffffff160361049d576040517f28c2137700000000000000000000000000000000000000000000000000000000815260040160405180910390fd5b80600160006101000a81548173ffffffffffffffffffffffffffffffffffffffff021916908373ffffffffffffffffffffffffffffffffffffffff1602179055508073ffffffffffffffffffffffffffffffffffffffff167f1337d0c7f7a047ce86f173eca4cef6cd31f9c4b15270748032eb1d1cecfa17ae60405160405180910390a250565b7f000000000000000000000000000000000000000000000000000000000000000081565b610550610bc7565b61055a6000610c45565b565b6706f05b59d3b2000081565b600160009054906101000a900473ffffffffffffffffffffffffffffffffffffffff1681565b60008060009054906101000a900473ffffffffffffffffffffffffffffffffffffffff16905090565b60036020528060005260406000206000915054906101000a900460ff1681565b6105df610bc7565b600073ffffffffffffffffffffffffffffffffffffffff16600160009054906101000a900473ffffffffffffffffffffffffffffffffffffffff1673ffffffffffffffffffffffffffffffffffffffff1603610667576040517ff5ce007b00000000000000000000000000000000000000000000000000000000815260040160405180910390fd5b600360008273ffffffffffffffffffffffffffffffffffffffff1673ffffffffffffffffffffffffffffffffffffffff16815260200190815260200160002060009054906101000a900460ff16156106eb576040517f22225b9200000000000000000000000000000000000000000000000000000000815260040160405180910390fd5b6001600360008373ffffffffffffffffffffffffffffffffffffffff1673ffffffffffffffffffffffffffffffffffffffff16815260200190815260200160002060006101000a81548160ff0219169083151502179055508073ffffffffffffffffffffffffffffffffffffffff167f6d01c0885a778a3e6cd37718fa198ee71a7a4c19f2d7c7ba5615011e18ac994a60405160405180910390a250565b7f000000000000000000000000000000000000000000000000000000000000000081565b662386f26fc1000081565b6000600260003373ffffffffffffffffffffffffffffffffffffffff1673ffffffffffffffffffffffffffffffffffffffff16815260200190815260200160002060009054906101000a900460ff1661083d576040517f8fc74e0700000000000000000000000000000000000000000000000000000000815260040160405180910390fd5b61086a3330848873ffffffffffffffffffffffffffffffffffffffff16610d09909392919063ffffffff16565b6108973330858773ffffffffffffffffffffffffffffffffffffffff16610d09909392919063ffffffff16565b6108e27f0000000000000000000000000000000000000000000000000000000000000000838773ffffffffffffffffffffffffffffffffffffffff16610d929092919063ffffffff16565b61092d7f0000000000000000000000000000000000000000000000000000000000000000848673ffffffffffffffffffffffffffffffffffffffff16610d929092919063ffffffff16565b60008060008061093f89898989610ee1565b9350935093509350600080600080600061095b888a8989610f44565b945094509450945094506109728585858585611370565b9950505050505050505050949350505050565b61098d610bc7565b600082829050905060005b81811015610b3e57600260008585848181106109b7576109b66123cc565b5b90506020020160208101906109cc919061211a565b73ffffffffffffffffffffffffffffffffffffffff1673ffffffffffffffffffffffffffffffffffffffff16815260200190815260200160002060009054906101000a900460ff16610a4a576040517f7fca3fb600000000000000000000000000000000000000000000000000000000815260040160405180910390fd5b600060026000868685818110610a6357610a626123cc565b5b9050602002016020810190610a78919061211a565b73ffffffffffffffffffffffffffffffffffffffff1673ffffffffffffffffffffffffffffffffffffffff16815260200190815260200160002060006101000a81548160ff021916908315150217905550838382818110610adc57610adb6123cc565b5b9050602002016020810190610af1919061211a565b73ffffffffffffffffffffffffffffffffffffffff167fe71f3a50e5ad81964f352c411f1d45e35438ecd1acecef59ac81d9fbbf6cbc0a60405160405180910390a2806001019050610998565b50505050565b610b4c610bc7565b600073ffffffffffffffffffffffffffffffffffffffff168173ffffffffffffffffffffffffffffffffffffffff1603610bbb576040517f08c379a0000000000000000000000000000000000000000000000000000000008152600401610bb29061247e565b60405180910390fd5b610bc481610c45565b50565b610bcf611be3565b73ffffffffffffffffffffffffffffffffffffffff16610bed61058e565b73ffffffffffffffffffffffffffffffffffffffff1614610c43576040517f08c379a0000000000000000000000000000000000000000000000000000000008152600401610c3a906124ea565b60405180910390fd5b565b60008060009054906101000a900473ffffffffffffffffffffffffffffffffffffffff169050816000806101000a81548173ffffffffffffffffffffffffffffffffffffffff021916908373ffffffffffffffffffffffffffffffffffffffff1602179055508173ffffffffffffffffffffffffffffffffffffffff168173ffffffffffffffffffffffffffffffffffffffff167f8be0079c531659141344cd1fd0a4f28419497f9722a3daafe3b4186f6b6457e060405160405180910390a35050565b610d8c846323b872dd60e01b858585604051602401610d2a9392919061250a565b604051602081830303815290604052907bffffffffffffffffffffffffffffffffffffffffffffffffffffffff19166020820180517bffffffffffffffffffffffffffffffffffffffffffffffffffffffff8381831617835250505050611beb565b50505050565b6000811480610e1c575060008373ffffffffffffffffffffffffffffffffffffffff1663dd62ed3e30856040518363ffffffff1660e01b8152600401610dd9929190612541565b602060405180830381865afa158015610df6573d6000803e3d6000fd5b505050506040513d601f19601f82011682018060405250810190610e1a919061257f565b145b610e5b576040517f08c379a0000000000000000000000000000000000000000000000000000000008152600401610e529061261e565b60405180910390fd5b610edc8363095ea7b360e01b8484604051602401610e7a92919061263e565b604051602081830303815290604052907bffffffffffffffffffffffffffffffffffffffffffffffffffffffff19166020820180517bffffffffffffffffffffffffffffffffffffffffffffffffffffffff8381831617835250505050611beb565b505050565b6000806000808773ffffffffffffffffffffffffffffffffffffffff168773ffffffffffffffffffffffffffffffffffffffff161015610f2c57869350879250859150849050610f39565b8793508692508491508590505b945094509450949050565b6060806060806060600267ffffffffffffffff811115610f6757610f66611f30565b5b604051908082528060200260200182016040528015610f955781602001602082028036833780820191505090505b5094508785600081518110610fad57610fac6123cc565b5b602002602001019073ffffffffffffffffffffffffffffffffffffffff16908173ffffffffffffffffffffffffffffffffffffffff16815250508885600181518110610ffc57610ffb6123cc565b5b602002602001019073ffffffffffffffffffffffffffffffffffffffff16908173ffffffffffffffffffffffffffffffffffffffff1681525050600267ffffffffffffffff81111561105157611050611f30565b5b60405190808252806020026020018201604052801561107f5781602001602082028036833780820191505090505b5093506706f05b59d3b200008460008151811061109f5761109e6123cc565b5b602002602001018181525050836000815181106110bf576110be6123cc565b5b6020026020010151846001815181106110db576110da6123cc565b5b602002602001018181525050600267ffffffffffffffff81111561110257611101611f30565b5b6040519080825280602002602001820160405280156111305781602001602082028036833780820191505090505b509250600083600081518110611149576111486123cc565b5b602002602001019073ffffffffffffffffffffffffffffffffffffffff16908173ffffffffffffffffffffffffffffffffffffffff168152505082600081518110611197576111966123cc565b5b6020026020010151836001815181106111b3576111b26123cc565b5b602002602001019073ffffffffffffffffffffffffffffffffffffffff16908173ffffffffffffffffffffffffffffffffffffffff1681525050600267ffffffffffffffff81111561120857611207611f30565b5b6040519080825280602002602001820160405280156112365781602001602082028036833780820191505090505b509150868260008151811061124e5761124d6123cc565b5b602002602001018181525050858260018151811061126f5761126e6123cc565b5b602002602001018181525050600267ffffffffffffffff81111561129657611295611f30565b5b6040519080825280602002602001820160405280156112c45781602001602082028036833780820191505090505b50905087816000815181106112dc576112db6123cc565b5b602002602001019073ffffffffffffffffffffffffffffffffffffffff16908173ffffffffffffffffffffffffffffffffffffffff1681525050888160018151811061132b5761132a6123cc565b5b602002602001019073ffffffffffffffffffffffffffffffffffffffff16908173ffffffffffffffffffffffffffffffffffffffff1681525050945094509450945094565b60007f000000000000000000000000000000000000000000000000000000000000000073ffffffffffffffffffffffffffffffffffffffff16632182c8fe876000815181106113c2576113c16123cc565b5b602002602001015173ffffffffffffffffffffffffffffffffffffffff166395d89b416040518163ffffffff1660e01b8152600401600060405180830381865afa158015611414573d6000803e3d6000fd5b505050506040513d6000823e3d601f19601f8201168201806040525081019061143d9190612737565b88600181518110611451576114506123cc565b5b602002602001015173ffffffffffffffffffffffffffffffffffffffff166395d89b416040518163ffffffff1660e01b8152600401600060405180830381865afa1580156114a3573d6000803e3d6000fd5b505050506040513d6000823e3d601f19601f820116820180604052508101906114cc9190612737565b6040516020016114dd92919061285f565b60405160208183030381529060405288600081518110611500576114ff6123cc565b5b602002602001015173ffffffffffffffffffffffffffffffffffffffff166395d89b416040518163ffffffff1660e01b8152600401600060405180830381865afa158015611552573d6000803e3d6000fd5b505050506040513d6000823e3d601f19601f8201168201806040525081019061157b9190612737565b8960018151811061158f5761158e6123cc565b5b602002602001015173ffffffffffffffffffffffffffffffffffffffff166395d89b416040518163ffffffff1660e01b8152600401600060405180830381865afa1580156115e1573d6000803e3d6000fd5b505050506040513d6000823e3d601f19601f8201168201806040525081019061160a9190612737565b60405160200161161b929190612931565b604051602081830303815290604052898989662386f26fc10000308e60008151811061164a576116496123cc565b5b60200260200101518f600181518110611666576116656123cc565b5b602002602001015160405160200161167f9291906129b3565b604051602081830303815290604052805190602001206040518963ffffffff1660e01b81526004016116b8989796959493929190612c7e565b6020604051808303816000875af11580156116d7573d6000803e3d6000fd5b505050506040513d601f19601f820116820180604052508101906116fb9190612d34565b90506000604051806080016040528084815260200185815260200160008660405160200161172a929190612da9565b60405160208183030381529060405281526020016000151581525090507f000000000000000000000000000000000000000000000000000000000000000073ffffffffffffffffffffffffffffffffffffffff1663b95cac288373ffffffffffffffffffffffffffffffffffffffff166338fff2d06040518163ffffffff1660e01b8152600401602060405180830381865afa1580156117ce573d6000803e3d6000fd5b505050506040513d601f19601f820116820180604052508101906117f29190612e05565b3030856040518563ffffffff1660e01b81526004016118149493929190613046565b600060405180830381600087803b15801561182e57600080fd5b505af1158015611842573d6000803e3d6000fd5b50505050600073ffffffffffffffffffffffffffffffffffffffff16600160009054906101000a900473ffffffffffffffffffffffffffffffffffffffff1673ffffffffffffffffffffffffffffffffffffffff1614158015611978575060036000886000815181106118b8576118b76123cc565b5b602002602001015173ffffffffffffffffffffffffffffffffffffffff1673ffffffffffffffffffffffffffffffffffffffff16815260200190815260200160002060009054906101000a900460ff168061197757506003600088600181518110611926576119256123cc565b5b602002602001015173ffffffffffffffffffffffffffffffffffffffff1673ffffffffffffffffffffffffffffffffffffffff16815260200190815260200160002060009054906101000a900460ff165b5b15611a4857611a43600160009054906101000a900473ffffffffffffffffffffffffffffffffffffffff168373ffffffffffffffffffffffffffffffffffffffff166370a08231306040518263ffffffff1660e01b81526004016119dc9190612204565b602060405180830381865afa1580156119f9573d6000803e3d6000fd5b505050506040513d601f19601f82011682018060405250810190611a1d919061257f565b8473ffffffffffffffffffffffffffffffffffffffff16611cb39092919063ffffffff16565b611aef565b611aee61dead8373ffffffffffffffffffffffffffffffffffffffff166370a08231306040518263ffffffff1660e01b8152600401611a879190612204565b602060405180830381865afa158015611aa4573d6000803e3d6000fd5b505050506040513d601f19601f82011682018060405250810190611ac8919061257f565b8473ffffffffffffffffffffffffffffffffffffffff16611cb39092919063ffffffff16565b5b86600181518110611b0357611b026123cc565b5b602002602001015173ffffffffffffffffffffffffffffffffffffffff1687600081518110611b3557611b346123cc565b5b602002602001015173ffffffffffffffffffffffffffffffffffffffff168373ffffffffffffffffffffffffffffffffffffffff167fc564f1413919a2135d974248380f2ed05998041cf2f536d29dea8d1260c1e5cf87600081518110611b9f57611b9e6123cc565b5b602002602001015188600181518110611bbb57611bba6123cc565b5b6020026020010151604051611bd1929190613092565b60405180910390a45095945050505050565b600033905090565b6000611c4d826040518060400160405280602081526020017f5361666545524332303a206c6f772d6c6576656c2063616c6c206661696c65648152508573ffffffffffffffffffffffffffffffffffffffff16611d399092919063ffffffff16565b9050600081511480611c6f575080806020019051810190611c6e91906130e7565b5b611cae576040517f08c379a0000000000000000000000000000000000000000000000000000000008152600401611ca590613186565b60405180910390fd5b505050565b611d348363a9059cbb60e01b8484604051602401611cd292919061263e565b604051602081830303815290604052907bffffffffffffffffffffffffffffffffffffffffffffffffffffffff19166020820180517bffffffffffffffffffffffffffffffffffffffffffffffffffffffff8381831617835250505050611beb565b505050565b6060611d488484600085611d51565b90509392505050565b606082471015611d96576040517f08c379a0000000000000000000000000000000000000000000000000000000008152600401611d8d90613218565b60405180910390fd5b6000808673ffffffffffffffffffffffffffffffffffffffff168587604051611dbf9190613274565b60006040518083038185875af1925050503d8060008114611dfc576040519150601f19603f3d011682016040523d82523d6000602084013e611e01565b606091505b5091509150611e1287838387611e1e565b92505050949350505050565b60608315611e80576000835103611e7857611e3885611e93565b611e77576040517f08c379a0000000000000000000000000000000000000000000000000000000008152600401611e6e906132d7565b60405180910390fd5b5b829050611e8b565b611e8a8383611eb6565b5b949350505050565b6000808273ffffffffffffffffffffffffffffffffffffffff163b119050919050565b600082511115611ec95781518083602001fd5b806040517f08c379a0000000000000000000000000000000000000000000000000000000008152600401611efd91906132f7565b60405180910390fd5b6000604051905090565b600080fd5b600080fd5b600080fd5b6000601f19601f8301169050919050565b7f4e487b7100000000000000000000000000000000000000000000000000000000600052604160045260246000fd5b611f6882611f1f565b810181811067ffffffffffffffff82111715611f8757611f86611f30565b5b80604052505050565b6000611f9a611f06565b9050611fa68282611f5f565b919050565b600067ffffffffffffffff821115611fc657611fc5611f30565b5b602082029050602081019050919050565b600080fd5b600073ffffffffffffffffffffffffffffffffffffffff82169050919050565b600061200782611fdc565b9050919050565b61201781611ffc565b811461202257600080fd5b50565b6000813590506120348161200e565b92915050565b600061204d61204884611fab565b611f90565b905080838252602082019050602084028301858111156120705761206f611fd7565b5b835b8181101561209957806120858882612025565b845260208401935050602081019050612072565b5050509392505050565b600082601f8301126120b8576120b7611f1a565b5b81356120c884826020860161203a565b91505092915050565b6000602082840312156120e7576120e6611f10565b5b600082013567ffffffffffffffff81111561210557612104611f15565b5b612111848285016120a3565b91505092915050565b6000602082840312156121305761212f611f10565b5b600061213e84828501612025565b91505092915050565b6000819050919050565b600061216c61216761216284611fdc565b612147565b611fdc565b9050919050565b600061217e82612151565b9050919050565b600061219082612173565b9050919050565b6121a081612185565b82525050565b60006020820190506121bb6000830184612197565b92915050565b6000819050919050565b6121d4816121c1565b82525050565b60006020820190506121ef60008301846121cb565b92915050565b6121fe81611ffc565b82525050565b600060208201905061221960008301846121f5565b92915050565b60008115159050919050565b6122348161221f565b82525050565b600060208201905061224f600083018461222b565b92915050565b600061226082612173565b9050919050565b61227081612255565b82525050565b600060208201905061228b6000830184612267565b92915050565b61229a816121c1565b81146122a557600080fd5b50565b6000813590506122b781612291565b92915050565b600080600080608085870312156122d7576122d6611f10565b5b60006122e587828801612025565b94505060206122f687828801612025565b9350506040612307878288016122a8565b9250506060612318878288016122a8565b91505092959194509250565b600080fd5b60008083601f84011261233f5761233e611f1a565b5b8235905067ffffffffffffffff81111561235c5761235b612324565b5b60208301915083602082028301111561237857612377611fd7565b5b9250929050565b6000806020838503121561239657612395611f10565b5b600083013567ffffffffffffffff8111156123b4576123b3611f15565b5b6123c085828601612329565b92509250509250929050565b7f4e487b7100000000000000000000000000000000000000000000000000000000600052603260045260246000fd5b600082825260208201905092915050565b7f4f776e61626c653a206e6577206f776e657220697320746865207a65726f206160008201527f6464726573730000000000000000000000000000000000000000000000000000602082015250565b60006124686026836123fb565b91506124738261240c565b604082019050919050565b600060208201905081810360008301526124978161245b565b9050919050565b7f4f776e61626c653a2063616c6c6572206973206e6f7420746865206f776e6572600082015250565b60006124d46020836123fb565b91506124df8261249e565b602082019050919050565b60006020820190508181036000830152612503816124c7565b9050919050565b600060608201905061251f60008301866121f5565b61252c60208301856121f5565b61253960408301846121cb565b949350505050565b600060408201905061255660008301856121f5565b61256360208301846121f5565b9392505050565b60008151905061257981612291565b92915050565b60006020828403121561259557612594611f10565b5b60006125a38482850161256a565b91505092915050565b7f5361666545524332303a20617070726f76652066726f6d206e6f6e2d7a65726f60008201527f20746f206e6f6e2d7a65726f20616c6c6f77616e636500000000000000000000602082015250565b60006126086036836123fb565b9150612613826125ac565b604082019050919050565b60006020820190508181036000830152612637816125fb565b9050919050565b600060408201905061265360008301856121f5565b61266060208301846121cb565b9392505050565b600080fd5b600067ffffffffffffffff82111561268757612686611f30565b5b61269082611f1f565b9050602081019050919050565b60005b838110156126bb5780820151818401526020810190506126a0565b60008484015250505050565b60006126da6126d58461266c565b611f90565b9050828152602081018484840111156126f6576126f5612667565b5b61270184828561269d565b509392505050565b600082601f83011261271e5761271d611f1a565b5b815161272e8482602086016126c7565b91505092915050565b60006020828403121561274d5761274c611f10565b5b600082015167ffffffffffffffff81111561276b5761276a611f15565b5b61277784828501612709565b91505092915050565b600081905092915050565b7f4245582035302000000000000000000000000000000000000000000000000000600082015250565b60006127c1600783612780565b91506127cc8261278b565b600782019050919050565b600081519050919050565b60006127ed826127d7565b6127f78185612780565b935061280781856020860161269d565b80840191505092915050565b7f2035302000000000000000000000000000000000000000000000000000000000600082015250565b6000612849600483612780565b915061285482612813565b600482019050919050565b600061286a826127b4565b915061287682856127e2565b91506128818261283c565b915061288d82846127e2565b91508190509392505050565b7f4245582d35300000000000000000000000000000000000000000000000000000600082015250565b60006128cf600683612780565b91506128da82612899565b600682019050919050565b7f2d35300000000000000000000000000000000000000000000000000000000000600082015250565b600061291b600383612780565b9150612926826128e5565b600382019050919050565b600061293c826128c2565b915061294882856127e2565b91506129538261290e565b915061295f82846127e2565b91508190509392505050565b60008160601b9050919050565b60006129838261296b565b9050919050565b600061299582612978565b9050919050565b6129ad6129a882611ffc565b61298a565b82525050565b60006129bf828561299c565b6014820191506129cf828461299c565b6014820191508190509392505050565b60006129ea826127d7565b6129f481856123fb565b9350612a0481856020860161269d565b612a0d81611f1f565b840191505092915050565b600081519050919050565b600082825260208201905092915050565b6000819050602082019050919050565b6000612a4f82612173565b9050919050565b612a5f81612a44565b82525050565b6000612a718383612a56565b60208301905092915050565b6000602082019050919050565b6000612a9582612a18565b612a9f8185612a23565b9350612aaa83612a34565b8060005b83811015612adb578151612ac28882612a65565b9750612acd83612a7d565b925050600181019050612aae565b5085935050505092915050565b600081519050919050565b600082825260208201905092915050565b6000819050602082019050919050565b612b1d816121c1565b82525050565b6000612b2f8383612b14565b60208301905092915050565b6000602082019050919050565b6000612b5382612ae8565b612b5d8185612af3565b9350612b6883612b04565b8060005b83811015612b99578151612b808882612b23565b9750612b8b83612b3b565b925050600181019050612b6c565b5085935050505092915050565b600081519050919050565b6000819050602082019050919050565b6000612bcc82612173565b9050919050565b612bdc81612bc1565b82525050565b6000612bee8383612bd3565b60208301905092915050565b6000602082019050919050565b6000612c1282612ba6565b612c1c8185612a23565b9350612c2783612bb1565b8060005b83811015612c58578151612c3f8882612be2565b9750612c4a83612bfa565b925050600181019050612c2b565b5085935050505092915050565b6000819050919050565b612c7881612c65565b82525050565b6000610100820190508181036000830152612c99818b6129df565b90508181036020830152612cad818a6129df565b90508181036040830152612cc18189612a8a565b90508181036060830152612cd58188612b48565b90508181036080830152612ce98187612c07565b9050612cf860a08301866121cb565b612d0560c08301856121f5565b612d1260e0830184612c6f565b9998505050505050505050565b600081519050612d2e8161200e565b92915050565b600060208284031215612d4a57612d49611f10565b5b6000612d5884828501612d1f565b91505092915050565b6000819050919050565b600060ff82169050919050565b6000612d93612d8e612d8984612d61565b612147565b612d6b565b9050919050565b612da381612d78565b82525050565b6000604082019050612dbe6000830185612d9a565b8181036020830152612dd08184612b48565b90509392505050565b612de281612c65565b8114612ded57600080fd5b50565b600081519050612dff81612dd9565b92915050565b600060208284031215612e1b57612e1a611f10565b5b6000612e2984828501612df0565b91505092915050565b600081519050919050565b600082825260208201905092915050565b6000819050602082019050919050565b6000612e6982612173565b9050919050565b612e7981612e5e565b82525050565b6000612e8b8383612e70565b60208301905092915050565b6000602082019050919050565b6000612eaf82612e32565b612eb98185612e3d565b9350612ec483612e4e565b8060005b83811015612ef5578151612edc8882612e7f565b9750612ee783612e97565b925050600181019050612ec8565b5085935050505092915050565b600082825260208201905092915050565b6000612f1e82612ae8565b612f288185612f02565b9350612f3383612b04565b8060005b83811015612f64578151612f4b8882612b23565b9750612f5683612b3b565b925050600181019050612f37565b5085935050505092915050565b600081519050919050565b600082825260208201905092915050565b6000612f9882612f71565b612fa28185612f7c565b9350612fb281856020860161269d565b612fbb81611f1f565b840191505092915050565b612fcf8161221f565b82525050565b60006080830160008301518482036000860152612ff28282612ea4565b9150506020830151848203602086015261300c8282612f13565b915050604083015184820360408601526130268282612f8d565b915050606083015161303b6060860182612fc6565b508091505092915050565b600060808201905061305b6000830187612c6f565b61306860208301866121f5565b61307560408301856121f5565b81810360608301526130878184612fd5565b905095945050505050565b60006040820190506130a760008301856121cb565b6130b460208301846121cb565b9392505050565b6130c48161221f565b81146130cf57600080fd5b50565b6000815190506130e1816130bb565b92915050565b6000602082840312156130fd576130fc611f10565b5b600061310b848285016130d2565b91505092915050565b7f5361666545524332303a204552433230206f7065726174696f6e20646964206e60008201527f6f74207375636365656400000000000000000000000000000000000000000000602082015250565b6000613170602a836123fb565b915061317b82613114565b604082019050919050565b6000602082019050818103600083015261319f81613163565b9050919050565b7f416464726573733a20696e73756666696369656e742062616c616e636520666f60008201527f722063616c6c0000000000000000000000000000000000000000000000000000602082015250565b60006132026026836123fb565b915061320d826131a6565b604082019050919050565b60006020820190508181036000830152613231816131f5565b9050919050565b600081905092915050565b600061324e82612f71565b6132588185613238565b935061326881856020860161269d565b80840191505092915050565b60006132808284613243565b915081905092915050565b7f416464726573733a2063616c6c20746f206e6f6e2d636f6e7472616374000000600082015250565b60006132c1601d836123fb565b91506132cc8261328b565b602082019050919050565b600060208201905081810360008301526132f0816132b4565b9050919050565b6000602082019050818103600083015261331181846129df565b90509291505056fea2646970667358221220ffb43ef46cf1a5dae7d007210be407fdcc9ffa19401380e87431602d14a034a364736f6c63430008130033","linkReferences":{}},"methodIdentifiers":{"POOL_FACTORY()":"d8e31608","POOL_FEE()":"dd1b9c4a","VAULT()":"411557d1","WEIGHT_50_50()":"79701c3e","addBerabatorWhitelist(address)":"c96d3ceb","addVaults(address[])":"19e80b8d","berabatorAddress()":"844e0d83","berabatorWhitelist(address)":"9ae28fc3","createPoolAndAdd(address,address,uint256,uint256)":"e2e41430","owner()":"8da5cb5b","removeVaults(address[])":"efaeea21","renounceOwnership()":"715018a6","setBerabatorAddress(address)":"3def8690","transferOwnership(address)":"f2fde38b"},"id":0}