{"abi":[{"type":"function","name":"computeNextVestingScheduleIdForHolder","inputs":[{"name":"holder","type":"address","internalType":"address"}],"outputs":[{"name":"","type":"bytes32","internalType":"bytes32"}],"stateMutability":"view"},{"type":"function","name":"computeReleasableAmount","inputs":[{"name":"token","type":"address","internalType":"address"},{"name":"vestingScheduleId","type":"bytes32","internalType":"bytes32"}],"outputs":[{"name":"","type":"uint256","internalType":"uint256"}],"stateMutability":"view"},{"type":"function","name":"computeVestingScheduleIdForAddressAndIndex","inputs":[{"name":"holder","type":"address","internalType":"address"},{"name":"index","type":"uint256","internalType":"uint256"}],"outputs":[{"name":"","type":"bytes32","internalType":"bytes32"}],"stateMutability":"pure"},{"type":"function","name":"createVestingSchedule","inputs":[{"name":"_beneficiary","type":"address","internalType":"address"},{"name":"_token","type":"address","internalType":"address"},{"name":"_start","type":"uint256","internalType":"uint256"},{"name":"_cliff","type":"uint256","internalType":"uint256"},{"name":"_duration","type":"uint256","internalType":"uint256"},{"name":"_slicePeriodSeconds","type":"uint256","internalType":"uint256"},{"name":"_amount","type":"uint256","internalType":"uint256"}],"outputs":[],"stateMutability":"nonpayable"},{"type":"function","name":"getLastVestingScheduleForHolder","inputs":[{"name":"token","type":"address","internalType":"address"},{"name":"holder","type":"address","internalType":"address"}],"outputs":[{"name":"","type":"tuple","internalType":"struct TokenVesting.VestingSchedule","components":[{"name":"beneficiary","type":"address","internalType":"address"},{"name":"token","type":"address","internalType":"address"},{"name":"cliff","type":"uint256","internalType":"uint256"},{"name":"start","type":"uint256","internalType":"uint256"},{"name":"duration","type":"uint256","internalType":"uint256"},{"name":"slicePeriodSeconds","type":"uint256","internalType":"uint256"},{"name":"amountTotal","type":"uint256","internalType":"uint256"},{"name":"released","type":"uint256","internalType":"uint256"}]}],"stateMutability":"view"},{"type":"function","name":"getVestingIdAtIndex","inputs":[{"name":"index","type":"uint256","internalType":"uint256"}],"outputs":[{"name":"","type":"bytes32","internalType":"bytes32"}],"stateMutability":"view"},{"type":"function","name":"getVestingSchedule","inputs":[{"name":"token","type":"address","internalType":"address"},{"name":"vestingScheduleId","type":"bytes32","internalType":"bytes32"}],"outputs":[{"name":"","type":"tuple","internalType":"struct TokenVesting.VestingSchedule","components":[{"name":"beneficiary","type":"address","internalType":"address"},{"name":"token","type":"address","internalType":"address"},{"name":"cliff","type":"uint256","internalType":"uint256"},{"name":"start","type":"uint256","internalType":"uint256"},{"name":"duration","type":"uint256","internalType":"uint256"},{"name":"slicePeriodSeconds","type":"uint256","internalType":"uint256"},{"name":"amountTotal","type":"uint256","internalType":"uint256"},{"name":"released","type":"uint256","internalType":"uint256"}]}],"stateMutability":"view"},{"type":"function","name":"getVestingScheduleByAddressAndIndex","inputs":[{"name":"token","type":"address","internalType":"address"},{"name":"holder","type":"address","internalType":"address"},{"name":"index","type":"uint256","internalType":"uint256"}],"outputs":[{"name":"","type":"tuple","internalType":"struct TokenVesting.VestingSchedule","components":[{"name":"beneficiary","type":"address","internalType":"address"},{"name":"token","type":"address","internalType":"address"},{"name":"cliff","type":"uint256","internalType":"uint256"},{"name":"start","type":"uint256","internalType":"uint256"},{"name":"duration","type":"uint256","internalType":"uint256"},{"name":"slicePeriodSeconds","type":"uint256","internalType":"uint256"},{"name":"amountTotal","type":"uint256","internalType":"uint256"},{"name":"released","type":"uint256","internalType":"uint256"}]}],"stateMutability":"view"},{"type":"function","name":"getVestingSchedulesCount","inputs":[],"outputs":[{"name":"","type":"uint256","internalType":"uint256"}],"stateMutability":"view"},{"type":"function","name":"getVestingSchedulesCountByBeneficiary","inputs":[{"name":"_beneficiary","type":"address","internalType":"address"}],"outputs":[{"name":"","type":"uint256","internalType":"uint256"}],"stateMutability":"view"},{"type":"function","name":"getVestingSchedulesTotalAmount","inputs":[],"outputs":[{"name":"","type":"uint256","internalType":"uint256"}],"stateMutability":"view"},{"type":"function","name":"getVestingSchedulesTotalAmountByToken","inputs":[{"name":"token","type":"address","internalType":"address"}],"outputs":[{"name":"","type":"uint256","internalType":"uint256"}],"stateMutability":"view"},{"type":"function","name":"release","inputs":[{"name":"token","type":"address","internalType":"address"},{"name":"vestingScheduleId","type":"bytes32","internalType":"bytes32"}],"outputs":[],"stateMutability":"nonpayable"},{"type":"event","name":"TokensReleased","inputs":[{"name":"vestingScheduleId","type":"bytes32","indexed":true,"internalType":"bytes32"},{"name":"beneficiary","type":"address","indexed":true,"internalType":"address"},{"name":"amount","type":"uint256","indexed":false,"internalType":"uint256"}],"anonymous":false},{"type":"event","name":"VestingScheduleCreated","inputs":[{"name":"vestingScheduleId","type":"bytes32","indexed":true,"internalType":"bytes32"},{"name":"beneficiary","type":"address","indexed":true,"internalType":"address"},{"name":"token","type":"address","indexed":true,"internalType":"address"},{"name":"cliff","type":"uint256","indexed":false,"internalType":"uint256"},{"name":"start","type":"uint256","indexed":false,"internalType":"uint256"},{"name":"duration","type":"uint256","indexed":false,"internalType":"uint256"},{"name":"slicePeriodSeconds","type":"uint256","indexed":false,"internalType":"uint256"},{"name":"amountTotal","type":"uint256","indexed":false,"internalType":"uint256"}],"anonymous":false}],"bytecode":{"object":"0x608060405234801561001057600080fd5b506120dc806100206000396000f3fe608060405234801561001057600080fd5b50600436106100cf5760003560e01c80638af104da1161008c578063d603de9e11610066578063d603de9e1461024c578063d7c2eec71461027c578063f7c469f014610298578063f9079b37146102c8576100cf565b80638af104da146101d0578063aa849dc414610200578063adf4357d14610230576100cf565b80630ed749cc146100d457806313083617146101045780631a8fdf4b1461012257806348deb471146101525780634ae31181146101705780635a7bb69a146101a0575b600080fd5b6100ee60048036038101906100e99190611558565b6102f8565b6040516100fb9190611662565b60405180910390f35b61010c6104a0565b604051610119919061168d565b60405180910390f35b61013c600480360381019061013791906116de565b6104ad565b6040516101499190611662565b60405180910390f35b61015a610601565b604051610167919061168d565b60405180910390f35b61018a6004803603810190610185919061174a565b61060a565b6040516101979190611662565b60405180910390f35b6101ba60048036038101906101b5919061179d565b61062e565b6040516101c7919061168d565b60405180910390f35b6101ea60048036038101906101e591906117ca565b610677565b6040516101f79190611819565b60405180910390f35b61021a6004803603810190610215919061179d565b6106aa565b604051610227919061168d565b60405180910390f35b61024a60048036038101906102459190611834565b6106f3565b005b610266600480360381019061026191906116de565b610c64565b604051610273919061168d565b60405180910390f35b610296600480360381019061029191906116de565b610e24565b005b6102b260048036038101906102ad919061179d565b61114f565b6040516102bf9190611819565b60405180910390f35b6102e260048036038101906102dd91906118d6565b6111a1565b6040516102ef9190611819565b60405180910390f35b610300611484565b600260008473ffffffffffffffffffffffffffffffffffffffff1673ffffffffffffffffffffffffffffffffffffffff1681526020019081526020016000206000610396846001600460008873ffffffffffffffffffffffffffffffffffffffff1673ffffffffffffffffffffffffffffffffffffffff168152602001908152602001600020546103919190611932565b610677565b8152602001908152602001600020604051806101000160405290816000820160009054906101000a900473ffffffffffffffffffffffffffffffffffffffff1673ffffffffffffffffffffffffffffffffffffffff1673ffffffffffffffffffffffffffffffffffffffff1681526020016001820160009054906101000a900473ffffffffffffffffffffffffffffffffffffffff1673ffffffffffffffffffffffffffffffffffffffff1673ffffffffffffffffffffffffffffffffffffffff1681526020016002820154815260200160038201548152602001600482015481526020016005820154815260200160068201548152602001600782015481525050905092915050565b6000600180549050905090565b6104b5611484565b600260008473ffffffffffffffffffffffffffffffffffffffff1673ffffffffffffffffffffffffffffffffffffffff1681526020019081526020016000206000838152602001908152602001600020604051806101000160405290816000820160009054906101000a900473ffffffffffffffffffffffffffffffffffffffff1673ffffffffffffffffffffffffffffffffffffffff1673ffffffffffffffffffffffffffffffffffffffff1681526020016001820160009054906101000a900473ffffffffffffffffffffffffffffffffffffffff1673ffffffffffffffffffffffffffffffffffffffff1673ffffffffffffffffffffffffffffffffffffffff1681526020016002820154815260200160038201548152602001600482015481526020016005820154815260200160068201548152602001600782015481525050905092915050565b60008054905090565b610612611484565b610625846106208585610677565b6104ad565b90509392505050565b6000600460008373ffffffffffffffffffffffffffffffffffffffff1673ffffffffffffffffffffffffffffffffffffffff168152602001908152602001600020549050919050565b6000828260405160200161068c9291906119cf565b60405160208183030381529060405280519060200120905092915050565b6000600360008373ffffffffffffffffffffffffffffffffffffffff1673ffffffffffffffffffffffffffffffffffffffff168152602001908152602001600020549050919050565b60008311610736576040517f08c379a000000000000000000000000000000000000000000000000000000000815260040161072d90611a7e565b60405180910390fd5b60008111610779576040517f08c379a000000000000000000000000000000000000000000000000000000000815260040161077090611aea565b60405180910390fd5b60018210156107bd576040517f08c379a00000000000000000000000000000000000000000000000000000000081526004016107b490611b7c565b60405180910390fd5b83831015610800576040517f08c379a00000000000000000000000000000000000000000000000000000000081526004016107f790611c0e565b60405180910390fd5b600073ffffffffffffffffffffffffffffffffffffffff168773ffffffffffffffffffffffffffffffffffffffff160361086f576040517f08c379a000000000000000000000000000000000000000000000000000000000815260040161086690611ca0565b60405180910390fd5b600073ffffffffffffffffffffffffffffffffffffffff168673ffffffffffffffffffffffffffffffffffffffff16036108de576040517f08c379a00000000000000000000000000000000000000000000000000000000081526004016108d590611d32565b60405180910390fd5b60006108e98861114f565b9050600085876108f99190611d52565b90506040518061010001604052808a73ffffffffffffffffffffffffffffffffffffffff1681526020018973ffffffffffffffffffffffffffffffffffffffff1681526020018281526020018881526020018681526020018581526020018481526020016000815250600260008a73ffffffffffffffffffffffffffffffffffffffff1673ffffffffffffffffffffffffffffffffffffffff168152602001908152602001600020600084815260200190815260200160002060008201518160000160006101000a81548173ffffffffffffffffffffffffffffffffffffffff021916908373ffffffffffffffffffffffffffffffffffffffff16021790555060208201518160010160006101000a81548173ffffffffffffffffffffffffffffffffffffffff021916908373ffffffffffffffffffffffffffffffffffffffff16021790555060408201518160020155606082015181600301556080820151816004015560a0820151816005015560c0820151816006015560e0820151816007015590505082600054610a8d9190611d52565b60008190555082600360008a73ffffffffffffffffffffffffffffffffffffffff1673ffffffffffffffffffffffffffffffffffffffff16815260200190815260200160002054610ade9190611d52565b600360008a73ffffffffffffffffffffffffffffffffffffffff1673ffffffffffffffffffffffffffffffffffffffff1681526020019081526020016000208190555060018290806001815401808255809150506001900390600052602060002001600090919091909150556000600460008b73ffffffffffffffffffffffffffffffffffffffff1673ffffffffffffffffffffffffffffffffffffffff168152602001908152602001600020549050600181610b9b9190611d52565b600460008c73ffffffffffffffffffffffffffffffffffffffff1673ffffffffffffffffffffffffffffffffffffffff16815260200190815260200160002081905550610bea89333087611212565b8873ffffffffffffffffffffffffffffffffffffffff168a73ffffffffffffffffffffffffffffffffffffffff16847f3d5e514556748ee77ce69002bd3e7b81a768a2c0e9cdd46f95ed6bfc56143747858c8b8b8b604051610c50959493929190611d86565b60405180910390a450505050505050505050565b600082826000600260008473ffffffffffffffffffffffffffffffffffffffff1673ffffffffffffffffffffffffffffffffffffffff16815260200190815260200160002060008381526020019081526020016000206004015411610cc857600080fd5b6000600260008773ffffffffffffffffffffffffffffffffffffffff1673ffffffffffffffffffffffffffffffffffffffff16815260200190815260200160002060008681526020019081526020016000209050610e1981604051806101000160405290816000820160009054906101000a900473ffffffffffffffffffffffffffffffffffffffff1673ffffffffffffffffffffffffffffffffffffffff1673ffffffffffffffffffffffffffffffffffffffff1681526020016001820160009054906101000a900473ffffffffffffffffffffffffffffffffffffffff1673ffffffffffffffffffffffffffffffffffffffff1673ffffffffffffffffffffffffffffffffffffffff16815260200160028201548152602001600382015481526020016004820154815260200160058201548152602001600682015481526020016007820154815250506112ea565b935050505092915050565b81816000600260008473ffffffffffffffffffffffffffffffffffffffff1673ffffffffffffffffffffffffffffffffffffffff16815260200190815260200160002060008381526020019081526020016000206004015411610e8657600080fd5b6000600260008673ffffffffffffffffffffffffffffffffffffffff1673ffffffffffffffffffffffffffffffffffffffff1681526020019081526020016000206000858152602001908152602001600020905060008160000160009054906101000a900473ffffffffffffffffffffffffffffffffffffffff1673ffffffffffffffffffffffffffffffffffffffff163373ffffffffffffffffffffffffffffffffffffffff1614905080610f71576040517f08c379a0000000000000000000000000000000000000000000000000000000008152600401610f6890611e4b565b60405180910390fd5b600061107083604051806101000160405290816000820160009054906101000a900473ffffffffffffffffffffffffffffffffffffffff1673ffffffffffffffffffffffffffffffffffffffff1673ffffffffffffffffffffffffffffffffffffffff1681526020016001820160009054906101000a900473ffffffffffffffffffffffffffffffffffffffff1673ffffffffffffffffffffffffffffffffffffffff1673ffffffffffffffffffffffffffffffffffffffff16815260200160028201548152602001600382015481526020016004820154815260200160058201548152602001600682015481526020016007820154815250506112ea565b90508083600701546110829190611d52565b836007018190555060008360000160009054906101000a900473ffffffffffffffffffffffffffffffffffffffff169050816000546110c19190611932565b6000819055506110d28882846113c1565b8360000160009054906101000a900473ffffffffffffffffffffffffffffffffffffffff1673ffffffffffffffffffffffffffffffffffffffff16877f62eb4bd96d9a7a66875a9f46f9f9d8bf6cfed3fe0578671b752301427d2a4f668460405161113d919061168d565b60405180910390a35050505050505050565b600061119a82600460008573ffffffffffffffffffffffffffffffffffffffff1673ffffffffffffffffffffffffffffffffffffffff16815260200190815260200160002054610677565b9050919050565b60006111ab6104a0565b82106111ec576040517f08c379a00000000000000000000000000000000000000000000000000000000081526004016111e390611edd565b60405180910390fd5b60018281548110611200576111ff611efd565b5b90600052602060002001549050919050565b60006040517f23b872dd00000000000000000000000000000000000000000000000000000000815273ffffffffffffffffffffffffffffffffffffffff8516600482015273ffffffffffffffffffffffffffffffffffffffff841660248201528260448201526020600060648360008a5af1915081601f3d11600160005114161516156112a2573d863b15171591505b50806112e3576040517f08c379a00000000000000000000000000000000000000000000000000000000081526004016112da90611f78565b60405180910390fd5b5050505050565b6000806112f561147c565b9050826040015181101561130d5760009150506113bc565b826080015183604001516113219190611d52565b8110611343578260e001518360c0015161133b9190611932565b9150506113bc565b60008360400151826113559190611932565b905060008460a0015190506000818361136e9190611fc7565b90506000828261137e9190611ff8565b905060008760800151828960c001516113979190611ff8565b6113a19190611fc7565b90508760e00151816113b39190611932565b96505050505050505b919050565b60006040517fa9059cbb00000000000000000000000000000000000000000000000000000000815273ffffffffffffffffffffffffffffffffffffffff84166004820152826024820152602060006044836000895af1915081601f3d1160016000511416151615611435573d853b15171591505b5080611476576040517f08c379a000000000000000000000000000000000000000000000000000000000815260040161146d90612086565b60405180910390fd5b50505050565b600042905090565b604051806101000160405280600073ffffffffffffffffffffffffffffffffffffffff168152602001600073ffffffffffffffffffffffffffffffffffffffff1681526020016000815260200160008152602001600081526020016000815260200160008152602001600081525090565b600080fd5b600073ffffffffffffffffffffffffffffffffffffffff82169050919050565b6000611525826114fa565b9050919050565b6115358161151a565b811461154057600080fd5b50565b6000813590506115528161152c565b92915050565b6000806040838503121561156f5761156e6114f5565b5b600061157d85828601611543565b925050602061158e85828601611543565b9150509250929050565b6115a18161151a565b82525050565b6000819050919050565b6115ba816115a7565b82525050565b610100820160008201516115d76000850182611598565b5060208201516115ea6020850182611598565b5060408201516115fd60408501826115b1565b50606082015161161060608501826115b1565b50608082015161162360808501826115b1565b5060a082015161163660a08501826115b1565b5060c082015161164960c08501826115b1565b5060e082015161165c60e08501826115b1565b50505050565b60006101008201905061167860008301846115c0565b92915050565b611687816115a7565b82525050565b60006020820190506116a2600083018461167e565b92915050565b6000819050919050565b6116bb816116a8565b81146116c657600080fd5b50565b6000813590506116d8816116b2565b92915050565b600080604083850312156116f5576116f46114f5565b5b600061170385828601611543565b9250506020611714858286016116c9565b9150509250929050565b611727816115a7565b811461173257600080fd5b50565b6000813590506117448161171e565b92915050565b600080600060608486031215611763576117626114f5565b5b600061177186828701611543565b935050602061178286828701611543565b925050604061179386828701611735565b9150509250925092565b6000602082840312156117b3576117b26114f5565b5b60006117c184828501611543565b91505092915050565b600080604083850312156117e1576117e06114f5565b5b60006117ef85828601611543565b925050602061180085828601611735565b9150509250929050565b611813816116a8565b82525050565b600060208201905061182e600083018461180a565b92915050565b600080600080600080600060e0888a031215611853576118526114f5565b5b60006118618a828b01611543565b97505060206118728a828b01611543565b96505060406118838a828b01611735565b95505060606118948a828b01611735565b94505060806118a58a828b01611735565b93505060a06118b68a828b01611735565b92505060c06118c78a828b01611735565b91505092959891949750929550565b6000602082840312156118ec576118eb6114f5565b5b60006118fa84828501611735565b91505092915050565b7f4e487b7100000000000000000000000000000000000000000000000000000000600052601160045260246000fd5b600061193d826115a7565b9150611948836115a7565b92508282039050818111156119605761195f611903565b5b92915050565b60008160601b9050919050565b600061197e82611966565b9050919050565b600061199082611973565b9050919050565b6119a86119a38261151a565b611985565b82525050565b6000819050919050565b6119c96119c4826115a7565b6119ae565b82525050565b60006119db8285611997565b6014820191506119eb82846119b8565b6020820191508190509392505050565b600082825260208201905092915050565b7f546f6b656e56657374696e673a206475726174696f6e206d757374206265203e60008201527f2030000000000000000000000000000000000000000000000000000000000000602082015250565b6000611a686022836119fb565b9150611a7382611a0c565b604082019050919050565b60006020820190508181036000830152611a9781611a5b565b9050919050565b7f546f6b656e56657374696e673a20616d6f756e74206d757374206265203e2030600082015250565b6000611ad46020836119fb565b9150611adf82611a9e565b602082019050919050565b60006020820190508181036000830152611b0381611ac7565b9050919050565b7f546f6b656e56657374696e673a20736c696365506572696f645365636f6e647360008201527f206d757374206265203e3d203100000000000000000000000000000000000000602082015250565b6000611b66602d836119fb565b9150611b7182611b0a565b604082019050919050565b60006020820190508181036000830152611b9581611b59565b9050919050565b7f546f6b656e56657374696e673a206475726174696f6e206d757374206265203e60008201527f3d20636c69666600000000000000000000000000000000000000000000000000602082015250565b6000611bf86027836119fb565b9150611c0382611b9c565b604082019050919050565b60006020820190508181036000830152611c2781611beb565b9050919050565b7f546f6b656e56657374696e673a2062656e65666963696172792063616e6e6f7460008201527f20626520746865207a65726f2061646472657373000000000000000000000000602082015250565b6000611c8a6034836119fb565b9150611c9582611c2e565b604082019050919050565b60006020820190508181036000830152611cb981611c7d565b9050919050565b7f546f6b656e56657374696e673a20746f6b656e2063616e6e6f7420626520746860008201527f65207a65726f2061646472657373000000000000000000000000000000000000602082015250565b6000611d1c602e836119fb565b9150611d2782611cc0565b604082019050919050565b60006020820190508181036000830152611d4b81611d0f565b9050919050565b6000611d5d826115a7565b9150611d68836115a7565b9250828201905080821115611d8057611d7f611903565b5b92915050565b600060a082019050611d9b600083018861167e565b611da8602083018761167e565b611db5604083018661167e565b611dc2606083018561167e565b611dcf608083018461167e565b9695505050505050565b7f546f6b656e56657374696e673a206f6e6c792062656e6566696369617279206360008201527f616e2072656c656173652076657374656420746f6b656e730000000000000000602082015250565b6000611e356038836119fb565b9150611e4082611dd9565b604082019050919050565b60006020820190508181036000830152611e6481611e28565b9050919050565b7f546f6b656e56657374696e673a20696e646578206f7574206f6620626f756e6460008201527f7300000000000000000000000000000000000000000000000000000000000000602082015250565b6000611ec76021836119fb565b9150611ed282611e6b565b604082019050919050565b60006020820190508181036000830152611ef681611eba565b9050919050565b7f4e487b7100000000000000000000000000000000000000000000000000000000600052603260045260246000fd5b7f5452414e534645525f46524f4d5f4641494c4544000000000000000000000000600082015250565b6000611f626014836119fb565b9150611f6d82611f2c565b602082019050919050565b60006020820190508181036000830152611f9181611f55565b9050919050565b7f4e487b7100000000000000000000000000000000000000000000000000000000600052601260045260246000fd5b6000611fd2826115a7565b9150611fdd836115a7565b925082611fed57611fec611f98565b5b828204905092915050565b6000612003826115a7565b915061200e836115a7565b925082820261201c816115a7565b9150828204841483151761203357612032611903565b5b5092915050565b7f5452414e534645525f4641494c45440000000000000000000000000000000000600082015250565b6000612070600f836119fb565b915061207b8261203a565b602082019050919050565b6000602082019050818103600083015261209f81612063565b905091905056fea26469706673582212204f6a5d710a2dd73ee99092dbbc92842d15480229556810b6b0614979b0ee1ccd64736f6c63430008130033","linkReferences":{}},"methodIdentifiers":{"computeNextVestingScheduleIdForHolder(address)":"f7c469f0","computeReleasableAmount(address,bytes32)":"d603de9e","computeVestingScheduleIdForAddressAndIndex(address,uint256)":"8af104da","createVestingSchedule(address,address,uint256,uint256,uint256,uint256,uint256)":"adf4357d","getLastVestingScheduleForHolder(address,address)":"0ed749cc","getVestingIdAtIndex(uint256)":"f9079b37","getVestingSchedule(address,bytes32)":"1a8fdf4b","getVestingScheduleByAddressAndIndex(address,address,uint256)":"4ae31181","getVestingSchedulesCount()":"13083617","getVestingSchedulesCountByBeneficiary(address)":"5a7bb69a","getVestingSchedulesTotalAmount()":"48deb471","getVestingSchedulesTotalAmountByToken(address)":"aa849dc4","release(address,bytes32)":"d7c2eec7"},"id":9}