{"abi":[{"type":"constructor","inputs":[{"name":"_feeManager","type":"address","internalType":"address"},{"name":"_factory","type":"address","internalType":"address"},{"name":"_referralManager","type":"address","internalType":"address"},{"name":"_liquidityManager","type":"address","internalType":"address"},{"name":"_wbera","type":"address","internalType":"address"}],"stateMutability":"nonpayable"},{"type":"receive","stateMutability":"payable"},{"type":"function","name":"FACTORY","inputs":[],"outputs":[{"name":"","type":"address","internalType":"address"}],"stateMutability":"view"},{"type":"function","name":"FEE_MANAGER","inputs":[],"outputs":[{"name":"","type":"address","internalType":"contract IFeeManager"}],"stateMutability":"view"},{"type":"function","name":"LIQUIDITY_MANAGER","inputs":[],"outputs":[{"name":"","type":"address","internalType":"contract IBexLiquidityManager"}],"stateMutability":"view"},{"type":"function","name":"REFERRAL_MANAGER","inputs":[],"outputs":[{"name":"","type":"address","internalType":"contract IReferralManager"}],"stateMutability":"view"},{"type":"function","name":"WBERA","inputs":[],"outputs":[{"name":"","type":"address","internalType":"contract IWBera"}],"stateMutability":"view"},{"type":"function","name":"buy","inputs":[{"name":"token","type":"address","internalType":"address"},{"name":"baseAmount","type":"uint256","internalType":"uint256"},{"name":"minTokensOut","type":"uint256","internalType":"uint256"},{"name":"affiliate","type":"address","internalType":"address"},{"name":"recipient","type":"address","internalType":"address"}],"outputs":[],"stateMutability":"nonpayable"},{"type":"function","name":"buyNative","inputs":[{"name":"token","type":"address","internalType":"address"},{"name":"minTokensOut","type":"uint256","internalType":"uint256"},{"name":"affiliate","type":"address","internalType":"address"},{"name":"recipient","type":"address","internalType":"address"}],"outputs":[],"stateMutability":"payable"},{"type":"function","name":"calculateSellPrice_","inputs":[{"name":"quoteAmountIn","type":"uint256","internalType":"uint256"},{"name":"quoteBalance","type":"uint256","internalType":"uint256"},{"name":"baseBalance","type":"uint256","internalType":"uint256"},{"name":"k","type":"uint256","internalType":"uint256"}],"outputs":[{"name":"amountOut","type":"uint256","internalType":"uint256"}],"stateMutability":"pure"},{"type":"function","name":"owner","inputs":[],"outputs":[{"name":"","type":"address","internalType":"address"}],"stateMutability":"view"},{"type":"function","name":"pause","inputs":[],"outputs":[],"stateMutability":"nonpayable"},{"type":"function","name":"paused","inputs":[],"outputs":[{"name":"","type":"bool","internalType":"bool"}],"stateMutability":"view"},{"type":"function","name":"quote","inputs":[{"name":"token","type":"address","internalType":"address"},{"name":"amount","type":"uint256","internalType":"uint256"},{"name":"isBuyOrder","type":"bool","internalType":"bool"}],"outputs":[{"name":"amountOut","type":"uint256","internalType":"uint256"}],"stateMutability":"view"},{"type":"function","name":"registerToken","inputs":[{"name":"token","type":"address","internalType":"address"},{"name":"baseToken","type":"address","internalType":"address"},{"name":"initialTokenBalance","type":"uint256","internalType":"uint256"},{"name":"initialReserves","type":"uint256","internalType":"uint256"},{"name":"finalReserves","type":"uint256","internalType":"uint256"}],"outputs":[],"stateMutability":"nonpayable"},{"type":"function","name":"renounceOwnership","inputs":[],"outputs":[],"stateMutability":"nonpayable"},{"type":"function","name":"sell","inputs":[{"name":"token","type":"address","internalType":"address"},{"name":"tokenAmount","type":"uint256","internalType":"uint256"},{"name":"minAmountOut","type":"uint256","internalType":"uint256"},{"name":"affiliate","type":"address","internalType":"address"},{"name":"recipient","type":"address","internalType":"address"},{"name":"unwrap","type":"bool","internalType":"bool"}],"outputs":[],"stateMutability":"nonpayable"},{"type":"function","name":"tokenInfo","inputs":[{"name":"","type":"address","internalType":"address"}],"outputs":[{"name":"baseToken","type":"address","internalType":"address"},{"name":"bexListed","type":"bool","internalType":"bool"},{"name":"tokenBalance","type":"uint256","internalType":"uint256"},{"name":"baseBalance","type":"uint256","internalType":"uint256"},{"name":"initialBase","type":"uint256","internalType":"uint256"},{"name":"baseThreshold","type":"uint256","internalType":"uint256"},{"name":"quoteThreshold","type":"uint256","internalType":"uint256"},{"name":"k","type":"uint256","internalType":"uint256"}],"stateMutability":"view"},{"type":"function","name":"transferOwnership","inputs":[{"name":"newOwner","type":"address","internalType":"address"}],"outputs":[],"stateMutability":"nonpayable"},{"type":"function","name":"unpause","inputs":[],"outputs":[],"stateMutability":"nonpayable"},{"type":"event","name":"OwnershipTransferred","inputs":[{"name":"previousOwner","type":"address","indexed":true,"internalType":"address"},{"name":"newOwner","type":"address","indexed":true,"internalType":"address"}],"anonymous":false},{"type":"event","name":"Paused","inputs":[{"name":"account","type":"address","indexed":false,"internalType":"address"}],"anonymous":false},{"type":"event","name":"TokenRegistered","inputs":[{"name":"token","type":"address","indexed":true,"internalType":"address"},{"name":"baseToken","type":"address","indexed":true,"internalType":"address"},{"name":"tokenBalance","type":"uint256","indexed":false,"internalType":"uint256"},{"name":"initialReserves","type":"uint256","indexed":false,"internalType":"uint256"},{"name":"finalReserves","type":"uint256","indexed":false,"internalType":"uint256"}],"anonymous":false},{"type":"event","name":"Trade","inputs":[{"name":"user","type":"address","indexed":true,"internalType":"address"},{"name":"token","type":"address","indexed":true,"internalType":"address"},{"name":"baseToken","type":"address","indexed":true,"internalType":"address"},{"name":"tokenAmount","type":"uint256","indexed":false,"internalType":"uint256"},{"name":"baseAmount","type":"uint256","indexed":false,"internalType":"uint256"},{"name":"tokenBalance","type":"uint256","indexed":false,"internalType":"uint256"},{"name":"baseBalance","type":"uint256","indexed":false,"internalType":"uint256"},{"name":"isBuyOrder","type":"bool","indexed":false,"internalType":"bool"}],"anonymous":false},{"type":"event","name":"Unpaused","inputs":[{"name":"account","type":"address","indexed":false,"internalType":"address"}],"anonymous":false},{"type":"error","name":"BuzzVault_AddressZeroRecipient","inputs":[]},{"type":"error","name":"BuzzVault_AddressZeroToken","inputs":[]},{"type":"error","name":"BuzzVault_BexListed","inputs":[]},{"type":"error","name":"BuzzVault_FeeTransferFailed","inputs":[]},{"type":"error","name":"BuzzVault_InvalidReserves","inputs":[]},{"type":"error","name":"BuzzVault_InvalidUserBalance","inputs":[]},{"type":"error","name":"BuzzVault_NativeTradeUnsupported","inputs":[]},{"type":"error","name":"BuzzVault_QuoteAmountZero","inputs":[]},{"type":"error","name":"BuzzVault_SlippageExceeded","inputs":[]},{"type":"error","name":"BuzzVault_TokenExists","inputs":[]},{"type":"error","name":"BuzzVault_Unauthorized","inputs":[]},{"type":"error","name":"BuzzVault_UnknownToken","inputs":[]},{"type":"error","name":"BuzzVault_WBeraConversionFailed","inputs":[]}],"bytecode":{"object":"0x6101206040523480156200001257600080fd5b50604051620044a6380380620044a68339818101604052810190620000389190620002cc565b8484848484848484848462000062620000566200019660201b60201c565b6200019e60201b60201c565b60008060146101000a81548160ff0219169083151502179055508373ffffffffffffffffffffffffffffffffffffffff166101008173ffffffffffffffffffffffffffffffffffffffff16815250508473ffffffffffffffffffffffffffffffffffffffff1660808173ffffffffffffffffffffffffffffffffffffffff16815250508273ffffffffffffffffffffffffffffffffffffffff1660a08173ffffffffffffffffffffffffffffffffffffffff16815250508173ffffffffffffffffffffffffffffffffffffffff1660c08173ffffffffffffffffffffffffffffffffffffffff16815250508073ffffffffffffffffffffffffffffffffffffffff1660e08173ffffffffffffffffffffffffffffffffffffffff168152505050505050505050505050505050505062000354565b600033905090565b60008060009054906101000a900473ffffffffffffffffffffffffffffffffffffffff169050816000806101000a81548173ffffffffffffffffffffffffffffffffffffffff021916908373ffffffffffffffffffffffffffffffffffffffff1602179055508173ffffffffffffffffffffffffffffffffffffffff168173ffffffffffffffffffffffffffffffffffffffff167f8be0079c531659141344cd1fd0a4f28419497f9722a3daafe3b4186f6b6457e060405160405180910390a35050565b600080fd5b600073ffffffffffffffffffffffffffffffffffffffff82169050919050565b6000620002948262000267565b9050919050565b620002a68162000287565b8114620002b257600080fd5b50565b600081519050620002c6816200029b565b92915050565b600080600080600060a08688031215620002eb57620002ea62000262565b5b6000620002fb88828901620002b5565b95505060206200030e88828901620002b5565b94505060406200032188828901620002b5565b93505060606200033488828901620002b5565b92505060806200034788828901620002b5565b9150509295509295909350565b60805160a05160c05160e05161010051614050620004566000396000818161040b015261074b01526000818161125701528181611536015281816115ed015281816116890152818161170b01528181611e60015281816124730152818161249501526124db01526000818161076f01528181612b0d01528181612b580152612ba00152600081816107bb01528181611bcc015281816122cf01528181612db601528181612e790152612ec10152600081816110ab015281816111a40152818161183901528181611d740152818161222a01528181612380015281816123c80152818161264a0152818161298601528181612a250152612a6d01526140506000f3fe60806040526004361061010d5760003560e01c80638456cb5911610095578063c696be2411610064578063c696be2414610318578063dd512a7514610355578063ea26266c14610371578063f2fde38b1461039c578063f5dab711146103c557610114565b80638456cb591461026e5780638da5cb5b1461028557806392f87d7b146102b0578063a0417bad146102ed57610114565b80635c975abb116100dc5780635c975abb146101af5780636e6f7acc146101da578063715018a6146102055780638082f5291461021c57806381becd161461024557610114565b806310dab247146101195780632dd3100014610142578063328ad4671461016d5780633f4ba83a1461019857610114565b3661011457005b600080fd5b34801561012557600080fd5b50610140600480360381019061013b919061324d565b610409565b005b34801561014e57600080fd5b50610157610749565b60405161016491906132d7565b60405180910390f35b34801561017957600080fd5b5061018261076d565b60405161018f9190613351565b60405180910390f35b3480156101a457600080fd5b506101ad610791565b005b3480156101bb57600080fd5b506101c46107a3565b6040516101d19190613387565b60405180910390f35b3480156101e657600080fd5b506101ef6107b9565b6040516101fc91906133c3565b60405180910390f35b34801561021157600080fd5b5061021a6107dd565b005b34801561022857600080fd5b50610243600480360381019061023e919061340a565b6107f1565b005b34801561025157600080fd5b5061026c60048036038101906102679190613497565b610b99565b005b34801561027a57600080fd5b50610283610ee0565b005b34801561029157600080fd5b5061029a610ef2565b6040516102a791906132d7565b60405180910390f35b3480156102bc57600080fd5b506102d760048036038101906102d29190613512565b610f1b565b6040516102e49190613574565b60405180910390f35b3480156102f957600080fd5b50610302611255565b60405161030f91906135b0565b60405180910390f35b34801561032457600080fd5b5061033f600480360381019061033a91906135cb565b611279565b60405161034c9190613574565b60405180910390f35b61036f600480360381019061036a9190613632565b611291565b005b34801561037d57600080fd5b50610386611837565b60405161039391906136ba565b60405180910390f35b3480156103a857600080fd5b506103c360048036038101906103be91906136d5565b61185b565b005b3480156103d157600080fd5b506103ec60048036038101906103e791906136d5565b6118de565b604051610400989796959493929190613702565b60405180910390f35b7f000000000000000000000000000000000000000000000000000000000000000073ffffffffffffffffffffffffffffffffffffffff163373ffffffffffffffffffffffffffffffffffffffff161461048e576040517f712a5d2f00000000000000000000000000000000000000000000000000000000815260040160405180910390fd5b6000600160008773ffffffffffffffffffffffffffffffffffffffff1673ffffffffffffffffffffffffffffffffffffffff16815260200190815260200160002060010154118061052157506000600160008773ffffffffffffffffffffffffffffffffffffffff1673ffffffffffffffffffffffffffffffffffffffff16815260200190815260200160002060020154115b15610558576040517fcda6f41d00000000000000000000000000000000000000000000000000000000815260040160405180910390fd5b6000838361056691906137af565b90506040518061010001604052808673ffffffffffffffffffffffffffffffffffffffff16815260200160001515815260200185815260200184815260200184815260200183815260200183836105bd9190613820565b815260200182815250600160008873ffffffffffffffffffffffffffffffffffffffff1673ffffffffffffffffffffffffffffffffffffffff16815260200190815260200160002060008201518160000160006101000a81548173ffffffffffffffffffffffffffffffffffffffff021916908373ffffffffffffffffffffffffffffffffffffffff16021790555060208201518160000160146101000a81548160ff02191690831515021790555060408201518160010155606082015181600201556080820151816003015560a0820151816004015560c0820151816005015560e082015181600601559050506106d83330868973ffffffffffffffffffffffffffffffffffffffff16611953909392919063ffffffff16565b8473ffffffffffffffffffffffffffffffffffffffff168673ffffffffffffffffffffffffffffffffffffffff167fef7c6569756fc4b1c7163a3bc37317f9bc19650bd8395b3e44c08e646e403c4e86868660405161073993929190613851565b60405180910390a3505050505050565b7f000000000000000000000000000000000000000000000000000000000000000081565b7f000000000000000000000000000000000000000000000000000000000000000081565b6107996119dc565b6107a1611a5a565b565b60008060149054906101000a900460ff16905090565b7f000000000000000000000000000000000000000000000000000000000000000081565b6107e56119dc565b6107ef6000611abc565b565b6107f9611b80565b60008503610833576040517fd4b4181a00000000000000000000000000000000000000000000000000000000815260040160405180910390fd5b600073ffffffffffffffffffffffffffffffffffffffff168273ffffffffffffffffffffffffffffffffffffffff1603610899576040517f0e10f72c00000000000000000000000000000000000000000000000000000000815260040160405180910390fd5b600073ffffffffffffffffffffffffffffffffffffffff168673ffffffffffffffffffffffffffffffffffffffff16036108ff576040517f9e95c2c900000000000000000000000000000000000000000000000000000000815260040160405180910390fd5b6000600160008873ffffffffffffffffffffffffffffffffffffffff1673ffffffffffffffffffffffffffffffffffffffff16815260200190815260200160002090508060000160149054906101000a900460ff161561098b576040517fe30187c600000000000000000000000000000000000000000000000000000000815260040160405180910390fd5b600081600101541480156109a3575060008160020154145b156109da576040517f8855e68800000000000000000000000000000000000000000000000000000000815260040160405180910390fd5b858773ffffffffffffffffffffffffffffffffffffffff166370a08231336040518263ffffffff1660e01b8152600401610a1491906132d7565b602060405180830381865afa158015610a31573d6000803e3d6000fd5b505050506040513d601f19601f82011682018060405250810190610a55919061389d565b1015610a8d576040517fea4612f500000000000000000000000000000000000000000000000000000000815260040160405180910390fd5b600073ffffffffffffffffffffffffffffffffffffffff168473ffffffffffffffffffffffffffffffffffffffff1614610acc57610acb8433611bca565b5b6000610adc888888878688611c5b565b90508160000160009054906101000a900473ffffffffffffffffffffffffffffffffffffffff1673ffffffffffffffffffffffffffffffffffffffff168873ffffffffffffffffffffffffffffffffffffffff168573ffffffffffffffffffffffffffffffffffffffff167f3e07386be1093650503a0c73800e456e2691bac9734db3b880b25906f575be768a85876001015488600201546000604051610b879594939291906138ca565b60405180910390a45050505050505050565b610ba1611b80565b60008403610bdb576040517fd4b4181a00000000000000000000000000000000000000000000000000000000815260040160405180910390fd5b600073ffffffffffffffffffffffffffffffffffffffff168173ffffffffffffffffffffffffffffffffffffffff1603610c41576040517f0e10f72c00000000000000000000000000000000000000000000000000000000815260040160405180910390fd5b600073ffffffffffffffffffffffffffffffffffffffff168573ffffffffffffffffffffffffffffffffffffffff1603610ca7576040517f9e95c2c900000000000000000000000000000000000000000000000000000000815260040160405180910390fd5b6000600160008773ffffffffffffffffffffffffffffffffffffffff1673ffffffffffffffffffffffffffffffffffffffff16815260200190815260200160002090508060000160149054906101000a900460ff1615610d33576040517fe30187c600000000000000000000000000000000000000000000000000000000815260040160405180910390fd5b60008160010154148015610d4b575060008160020154145b15610d82576040517f8855e68800000000000000000000000000000000000000000000000000000000815260040160405180910390fd5b60008673ffffffffffffffffffffffffffffffffffffffff166370a08231306040518263ffffffff1660e01b8152600401610dbd91906132d7565b602060405180830381865afa158015610dda573d6000803e3d6000fd5b505050506040513d601f19601f82011682018060405250810190610dfe919061389d565b905084811015610e3a576040517fc1b052f100000000000000000000000000000000000000000000000000000000815260040160405180910390fd5b610ec9333088600160008c73ffffffffffffffffffffffffffffffffffffffff1673ffffffffffffffffffffffffffffffffffffffff16815260200190815260200160002060000160009054906101000a900473ffffffffffffffffffffffffffffffffffffffff1673ffffffffffffffffffffffffffffffffffffffff16611953909392919063ffffffff16565b610ed7878787878787611efd565b50505050505050565b610ee86119dc565b610ef061201c565b565b60008060009054906101000a900473ffffffffffffffffffffffffffffffffffffffff16905090565b6000808303610f56576040517fd4b4181a00000000000000000000000000000000000000000000000000000000815260040160405180910390fd5b600073ffffffffffffffffffffffffffffffffffffffff168473ffffffffffffffffffffffffffffffffffffffff1603610fbc576040517f9e95c2c900000000000000000000000000000000000000000000000000000000815260040160405180910390fd5b6000600160008673ffffffffffffffffffffffffffffffffffffffff1673ffffffffffffffffffffffffffffffffffffffff16815260200190815260200160002090508060000160149054906101000a900460ff1615611048576040517fe30187c600000000000000000000000000000000000000000000000000000000815260040160405180910390fd5b60008160010154905060008260020154905060008214801561106a5750600081145b156110a1576040517f8855e68800000000000000000000000000000000000000000000000000000000815260040160405180910390fd5b84156111705760007f000000000000000000000000000000000000000000000000000000000000000073ffffffffffffffffffffffffffffffffffffffff166350059ebe886040518263ffffffff1660e01b81526004016111029190613574565b602060405180830381865afa15801561111f573d6000803e3d6000fd5b505050506040513d601f19601f82011682018060405250810190611143919061389d565b8761114e919061391d565b90506111658183858760050154886006015461207f565b50809550505061124b565b61118086838386600601546120de565b93506000836003015482611194919061391d565b9050808511156111a2578094505b7f000000000000000000000000000000000000000000000000000000000000000073ffffffffffffffffffffffffffffffffffffffff166350059ebe866040518263ffffffff1660e01b81526004016111fb9190613574565b602060405180830381865afa158015611218573d6000803e3d6000fd5b505050506040513d601f19601f8201168201806040525081019061123c919061389d565b85611247919061391d565b9450505b5050509392505050565b7f000000000000000000000000000000000000000000000000000000000000000081565b6000611287858585856120de565b9050949350505050565b611299611b80565b600034036112d3576040517fd4b4181a00000000000000000000000000000000000000000000000000000000815260040160405180910390fd5b600073ffffffffffffffffffffffffffffffffffffffff168173ffffffffffffffffffffffffffffffffffffffff1603611339576040517f0e10f72c00000000000000000000000000000000000000000000000000000000815260040160405180910390fd5b600073ffffffffffffffffffffffffffffffffffffffff168473ffffffffffffffffffffffffffffffffffffffff160361139f576040517f9e95c2c900000000000000000000000000000000000000000000000000000000815260040160405180910390fd5b6000600160008673ffffffffffffffffffffffffffffffffffffffff1673ffffffffffffffffffffffffffffffffffffffff16815260200190815260200160002090508060000160149054906101000a900460ff161561142b576040517fe30187c600000000000000000000000000000000000000000000000000000000815260040160405180910390fd5b60008160010154148015611443575060008160020154145b1561147a576040517f8855e68800000000000000000000000000000000000000000000000000000000815260040160405180910390fd5b60008573ffffffffffffffffffffffffffffffffffffffff166370a08231306040518263ffffffff1660e01b81526004016114b591906132d7565b602060405180830381865afa1580156114d2573d6000803e3d6000fd5b505050506040513d601f19601f820116820180604052508101906114f6919061389d565b905084811015611532576040517fc1b052f100000000000000000000000000000000000000000000000000000000815260040160405180910390fd5b60007f000000000000000000000000000000000000000000000000000000000000000073ffffffffffffffffffffffffffffffffffffffff16600160008973ffffffffffffffffffffffffffffffffffffffff1673ffffffffffffffffffffffffffffffffffffffff16815260200190815260200160002060000160009054906101000a900473ffffffffffffffffffffffffffffffffffffffff1673ffffffffffffffffffffffffffffffffffffffff16036117ee5760007f000000000000000000000000000000000000000000000000000000000000000073ffffffffffffffffffffffffffffffffffffffff166370a08231306040518263ffffffff1660e01b815260040161164491906132d7565b602060405180830381865afa158015611661573d6000803e3d6000fd5b505050506040513d601f19601f82011682018060405250810190611685919061389d565b90507f000000000000000000000000000000000000000000000000000000000000000073ffffffffffffffffffffffffffffffffffffffff1663d0e30db0346040518263ffffffff1660e01b81526004016000604051808303818588803b1580156116ef57600080fd5b505af1158015611703573d6000803e3d6000fd5b5050505050807f000000000000000000000000000000000000000000000000000000000000000073ffffffffffffffffffffffffffffffffffffffff166370a08231306040518263ffffffff1660e01b815260040161176291906132d7565b602060405180830381865afa15801561177f573d6000803e3d6000fd5b505050506040513d601f19601f820116820180604052508101906117a3919061389d565b6117ad919061391d565b91503482146117e8576040517feef536f400000000000000000000000000000000000000000000000000000000815260040160405180910390fd5b50611820565b6040517ff7d8316700000000000000000000000000000000000000000000000000000000815260040160405180910390fd5b61182e878288888888611efd565b50505050505050565b7f000000000000000000000000000000000000000000000000000000000000000081565b6118636119dc565b600073ffffffffffffffffffffffffffffffffffffffff168173ffffffffffffffffffffffffffffffffffffffff16036118d2576040517f08c379a00000000000000000000000000000000000000000000000000000000081526004016118c9906139d4565b60405180910390fd5b6118db81611abc565b50565b60016020528060005260406000206000915090508060000160009054906101000a900473ffffffffffffffffffffffffffffffffffffffff16908060000160149054906101000a900460ff16908060010154908060020154908060030154908060040154908060050154908060060154905088565b6119d6846323b872dd60e01b858585604051602401611974939291906139f4565b604051602081830303815290604052907bffffffffffffffffffffffffffffffffffffffffffffffffffffffff19166020820180517bffffffffffffffffffffffffffffffffffffffffffffffffffffffff838183161783525050505061210c565b50505050565b6119e46121d4565b73ffffffffffffffffffffffffffffffffffffffff16611a02610ef2565b73ffffffffffffffffffffffffffffffffffffffff1614611a58576040517f08c379a0000000000000000000000000000000000000000000000000000000008152600401611a4f90613a77565b60405180910390fd5b565b611a626121dc565b60008060146101000a81548160ff0219169083151502179055507f5db9ee0a495bf2e6ff9c91a7834c1ba4fdd244a5e8aa4e537bd38aeae4b073aa611aa56121d4565b604051611ab291906132d7565b60405180910390a1565b60008060009054906101000a900473ffffffffffffffffffffffffffffffffffffffff169050816000806101000a81548173ffffffffffffffffffffffffffffffffffffffff021916908373ffffffffffffffffffffffffffffffffffffffff1602179055508173ffffffffffffffffffffffffffffffffffffffff168173ffffffffffffffffffffffffffffffffffffffff167f8be0079c531659141344cd1fd0a4f28419497f9722a3daafe3b4186f6b6457e060405160405180910390a35050565b611b886107a3565b15611bc8576040517f08c379a0000000000000000000000000000000000000000000000000000000008152600401611bbf90613ae3565b60405180910390fd5b565b7f000000000000000000000000000000000000000000000000000000000000000073ffffffffffffffffffffffffffffffffffffffff16637543e3f083836040518363ffffffff1660e01b8152600401611c25929190613b03565b600060405180830381600087803b158015611c3f57600080fd5b505af1158015611c53573d6000803e3d6000fd5b505050505050565b6000808360000160009054906101000a900473ffffffffffffffffffffffffffffffffffffffff1690506000846002015490506000611ca48987600101548489600601546120de565b90506000866003015483611cb8919061391d565b905060008203611cf4576040517fd4b4181a00000000000000000000000000000000000000000000000000000000815260040160405180910390fd5b80821115611d00578091505b88821015611d3a576040517fd07c3ce600000000000000000000000000000000000000000000000000000000815260040160405180910390fd5b81876002016000828254611d4e919061391d565b9250508190555089876001016000828254611d699190613b2c565b9250508190555060007f000000000000000000000000000000000000000000000000000000000000000073ffffffffffffffffffffffffffffffffffffffff166350059ebe846040518263ffffffff1660e01b8152600401611dcb9190613574565b602060405180830381865afa158015611de8573d6000803e3d6000fd5b505050506040513d601f19601f82011682018060405250810190611e0c919061389d565b90508083611e1a919061391d565b9550611e27853385612225565b5050611e5633308d8f73ffffffffffffffffffffffffffffffffffffffff16611953909392919063ffffffff16565b868015611eae57507f000000000000000000000000000000000000000000000000000000000000000073ffffffffffffffffffffffffffffffffffffffff168573ffffffffffffffffffffffffffffffffffffffff16145b15611ec257611ebd8987612469565b611eee565b611eed89878773ffffffffffffffffffffffffffffffffffffffff166125bd9092919063ffffffff16565b5b50505050509695505050505050565b600073ffffffffffffffffffffffffffffffffffffffff168373ffffffffffffffffffffffffffffffffffffffff1614611f3c57611f3b8333611bca565b5b600080611f4c8888888787612643565b915091508260000160009054906101000a900473ffffffffffffffffffffffffffffffffffffffff1673ffffffffffffffffffffffffffffffffffffffff168873ffffffffffffffffffffffffffffffffffffffff168573ffffffffffffffffffffffffffffffffffffffff167f3e07386be1093650503a0c73800e456e2691bac9734db3b880b25906f575be76858b886001015489600201546001604051611ff99594939291906138ca565b60405180910390a480156120125761201188846128df565b5b5050505050505050565b612024611b80565b6001600060146101000a81548160ff0219169083151502179055507f62e78cea01bee320cd4e420270b5ea74000d11b0c9f74754ebdbfc544b05a2586120686121d4565b60405161207591906132d7565b60405180910390a1565b600080600087876120909190613b2c565b8461209b9190613820565b866120a6919061391d565b905084866120b4919061391d565b8110159150816120c457806120d1565b84866120d0919061391d565b5b9250509550959350505050565b600084846120ec9190613b2c565b826120f79190613820565b83612102919061391d565b9050949350505050565b600061216e826040518060400160405280602081526020017f5361666545524332303a206c6f772d6c6576656c2063616c6c206661696c65648152508573ffffffffffffffffffffffffffffffffffffffff16612c4a9092919063ffffffff16565b905060008151148061219057508080602001905181019061218f9190613b75565b5b6121cf576040517f08c379a00000000000000000000000000000000000000000000000000000000081526004016121c690613c14565b60405180910390fd5b505050565b600033905090565b6121e46107a3565b612223576040517f08c379a000000000000000000000000000000000000000000000000000000000815260040161221a90613c80565b60405180910390fd5b565b6000807f000000000000000000000000000000000000000000000000000000000000000073ffffffffffffffffffffffffffffffffffffffff166350059ebe846040518263ffffffff1660e01b81526004016122819190613574565b602060405180830381865afa15801561229e573d6000803e3d6000fd5b505050506040513d601f19601f820116820180604052508101906122c2919061389d565b91506000821115612461577f000000000000000000000000000000000000000000000000000000000000000073ffffffffffffffffffffffffffffffffffffffff16639af6e50585846040518363ffffffff1660e01b8152600401612328929190613ca0565b602060405180830381865afa158015612345573d6000803e3d6000fd5b505050506040513d601f19601f82011682018060405250810190612369919061389d565b905060008183612379919061391d565b90506123c67f0000000000000000000000000000000000000000000000000000000000000000828873ffffffffffffffffffffffffffffffffffffffff16612c629092919063ffffffff16565b7f000000000000000000000000000000000000000000000000000000000000000073ffffffffffffffffffffffffffffffffffffffff16635a4a2d6b87836040518363ffffffff1660e01b8152600401612421929190613ca0565b600060405180830381600087803b15801561243b57600080fd5b505af115801561244f573d6000803e3d6000fd5b5050505061245e858785612db1565b50505b935093915050565b60004790506124d97f0000000000000000000000000000000000000000000000000000000000000000837f000000000000000000000000000000000000000000000000000000000000000073ffffffffffffffffffffffffffffffffffffffff16612c629092919063ffffffff16565b7f000000000000000000000000000000000000000000000000000000000000000073ffffffffffffffffffffffffffffffffffffffff16632e1a7d4d836040518263ffffffff1660e01b81526004016125329190613574565b600060405180830381600087803b15801561254c57600080fd5b505af1158015612560573d6000803e3d6000fd5b5050505060008147612572919061391d565b90508281146125ad576040517feef536f400000000000000000000000000000000000000000000000000000000815260040160405180910390fd5b6125b78484612f57565b50505050565b61263e8363a9059cbb60e01b84846040516024016125dc929190613ca0565b604051602081830303815290604052907bffffffffffffffffffffffffffffffffffffffffffffffffffffffff19166020820180517bffffffffffffffffffffffffffffffffffffffffffffffffffffffff838183161783525050505061210c565b505050565b60008060007f000000000000000000000000000000000000000000000000000000000000000073ffffffffffffffffffffffffffffffffffffffff166350059ebe886040518263ffffffff1660e01b81526004016126a19190613574565b602060405180830381865afa1580156126be573d6000803e3d6000fd5b505050506040513d601f19601f820116820180604052508101906126e2919061389d565b9050600081886126f2919061391d565b905060008560020154905060008061271984848a600101548b600501548c6006015461207f565b9150915060008203612757576040517fd4b4181a00000000000000000000000000000000000000000000000000000000815260040160405180910390fd5b89821015612791576040517fd07c3ce600000000000000000000000000000000000000000000000000000000815260040160405180910390fd5b600081156127da57600085856127a79190613b2c565b905060008a600401549050808211156127d75780826127c6919061391d565b925082876127d4919061391d565b96505b50505b848960020160008282546127ee9190613b2c565b9250508190555082896001016000828254612809919061391d565b9250508190555061283f8960000160009054906101000a900473ffffffffffffffffffffffffffffffffffffffff16338e612225565b505061286c8a848f73ffffffffffffffffffffffffffffffffffffffff166125bd9092919063ffffffff16565b60008111156128c5576128c48a828b60000160009054906101000a900473ffffffffffffffffffffffffffffffffffffffff1673ffffffffffffffffffffffffffffffffffffffff166125bd9092919063ffffffff16565b5b828280985081995050505050505050509550959350505050565b6000816001015490506000826003015483600201546128fe919061391d565b905060008360000160009054906101000a900473ffffffffffffffffffffffffffffffffffffffff16905060018460000160146101000a81548160ff02191690831515021790555060008460020181905550600084600101819055506000846003018190555060008460040181905550600084600501819055506000846006018190555060007f000000000000000000000000000000000000000000000000000000000000000073ffffffffffffffffffffffffffffffffffffffff16630e95ea37846040518263ffffffff1660e01b81526004016129dd9190613574565b602060405180830381865afa1580156129fa573d6000803e3d6000fd5b505050506040513d601f19601f82011682018060405250810190612a1e919061389d565b9050612a6b7f0000000000000000000000000000000000000000000000000000000000000000828473ffffffffffffffffffffffffffffffffffffffff16612c629092919063ffffffff16565b7f000000000000000000000000000000000000000000000000000000000000000073ffffffffffffffffffffffffffffffffffffffff16638987166d83856040518363ffffffff1660e01b8152600401612ac6929190613ca0565b600060405180830381600087803b158015612ae057600080fd5b505af1158015612af4573d6000803e3d6000fd5b5050505060008184612b06919061391d565b9050612b537f0000000000000000000000000000000000000000000000000000000000000000868973ffffffffffffffffffffffffffffffffffffffff16612c629092919063ffffffff16565b612b9e7f0000000000000000000000000000000000000000000000000000000000000000828573ffffffffffffffffffffffffffffffffffffffff16612c629092919063ffffffff16565b7f000000000000000000000000000000000000000000000000000000000000000073ffffffffffffffffffffffffffffffffffffffff1663e2e41430888584896040518563ffffffff1660e01b8152600401612bfd9493929190613cc9565b6020604051808303816000875af1158015612c1c573d6000803e3d6000fd5b505050506040513d601f19601f82011682018060405250810190612c409190613d23565b5050505050505050565b6060612c598484600085612fff565b90509392505050565b6000811480612cec575060008373ffffffffffffffffffffffffffffffffffffffff1663dd62ed3e30856040518363ffffffff1660e01b8152600401612ca9929190613b03565b602060405180830381865afa158015612cc6573d6000803e3d6000fd5b505050506040513d601f19601f82011682018060405250810190612cea919061389d565b145b612d2b576040517f08c379a0000000000000000000000000000000000000000000000000000000008152600401612d2290613dc2565b60405180910390fd5b612dac8363095ea7b360e01b8484604051602401612d4a929190613ca0565b604051602081830303815290604052907bffffffffffffffffffffffffffffffffffffffffffffffffffffffff19166020820180517bffffffffffffffffffffffffffffffffffffffffffffffffffffffff838183161783525050505061210c565b505050565b6000807f000000000000000000000000000000000000000000000000000000000000000073ffffffffffffffffffffffffffffffffffffffff16633738c568866040518263ffffffff1660e01b8152600401612e0d91906132d7565b602060405180830381865afa158015612e2a573d6000803e3d6000fd5b505050506040513d601f19601f82011682018060405250810190612e4e919061389d565b90506000811115612f4f576127108184612e6891906137af565b612e729190613820565b9150612ebf7f0000000000000000000000000000000000000000000000000000000000000000838673ffffffffffffffffffffffffffffffffffffffff16612c629092919063ffffffff16565b7f000000000000000000000000000000000000000000000000000000000000000073ffffffffffffffffffffffffffffffffffffffff1663cfc06a8b8686856040518463ffffffff1660e01b8152600401612f1c939291906139f4565b600060405180830381600087803b158015612f3657600080fd5b505af1158015612f4a573d6000803e3d6000fd5b505050505b509392505050565b60008273ffffffffffffffffffffffffffffffffffffffff1682604051612f7d90613e13565b60006040518083038185875af1925050503d8060008114612fba576040519150601f19603f3d011682016040523d82523d6000602084013e612fbf565b606091505b5050905080612ffa576040517fa9ea563000000000000000000000000000000000000000000000000000000000815260040160405180910390fd5b505050565b606082471015613044576040517f08c379a000000000000000000000000000000000000000000000000000000000815260040161303b90613e9a565b60405180910390fd5b6000808673ffffffffffffffffffffffffffffffffffffffff16858760405161306d9190613f20565b60006040518083038185875af1925050503d80600081146130aa576040519150601f19603f3d011682016040523d82523d6000602084013e6130af565b606091505b50915091506130c0878383876130cc565b92505050949350505050565b6060831561312e576000835103613126576130e685613141565b613125576040517f08c379a000000000000000000000000000000000000000000000000000000000815260040161311c90613f83565b60405180910390fd5b5b829050613139565b6131388383613164565b5b949350505050565b6000808273ffffffffffffffffffffffffffffffffffffffff163b119050919050565b6000825111156131775781518083602001fd5b806040517f08c379a00000000000000000000000000000000000000000000000000000000081526004016131ab9190613ff8565b60405180910390fd5b600080fd5b600073ffffffffffffffffffffffffffffffffffffffff82169050919050565b60006131e4826131b9565b9050919050565b6131f4816131d9565b81146131ff57600080fd5b50565b600081359050613211816131eb565b92915050565b6000819050919050565b61322a81613217565b811461323557600080fd5b50565b60008135905061324781613221565b92915050565b600080600080600060a08688031215613269576132686131b4565b5b600061327788828901613202565b955050602061328888828901613202565b945050604061329988828901613238565b93505060606132aa88828901613238565b92505060806132bb88828901613238565b9150509295509295909350565b6132d1816131d9565b82525050565b60006020820190506132ec60008301846132c8565b92915050565b6000819050919050565b600061331761331261330d846131b9565b6132f2565b6131b9565b9050919050565b6000613329826132fc565b9050919050565b600061333b8261331e565b9050919050565b61334b81613330565b82525050565b60006020820190506133666000830184613342565b92915050565b60008115159050919050565b6133818161336c565b82525050565b600060208201905061339c6000830184613378565b92915050565b60006133ad8261331e565b9050919050565b6133bd816133a2565b82525050565b60006020820190506133d860008301846133b4565b92915050565b6133e78161336c565b81146133f257600080fd5b50565b600081359050613404816133de565b92915050565b60008060008060008060c08789031215613427576134266131b4565b5b600061343589828a01613202565b965050602061344689828a01613238565b955050604061345789828a01613238565b945050606061346889828a01613202565b935050608061347989828a01613202565b92505060a061348a89828a016133f5565b9150509295509295509295565b600080600080600060a086880312156134b3576134b26131b4565b5b60006134c188828901613202565b95505060206134d288828901613238565b94505060406134e388828901613238565b93505060606134f488828901613202565b925050608061350588828901613202565b9150509295509295909350565b60008060006060848603121561352b5761352a6131b4565b5b600061353986828701613202565b935050602061354a86828701613238565b925050604061355b868287016133f5565b9150509250925092565b61356e81613217565b82525050565b60006020820190506135896000830184613565565b92915050565b600061359a8261331e565b9050919050565b6135aa8161358f565b82525050565b60006020820190506135c560008301846135a1565b92915050565b600080600080608085870312156135e5576135e46131b4565b5b60006135f387828801613238565b945050602061360487828801613238565b935050604061361587828801613238565b925050606061362687828801613238565b91505092959194509250565b6000806000806080858703121561364c5761364b6131b4565b5b600061365a87828801613202565b945050602061366b87828801613238565b935050604061367c87828801613202565b925050606061368d87828801613202565b91505092959194509250565b60006136a48261331e565b9050919050565b6136b481613699565b82525050565b60006020820190506136cf60008301846136ab565b92915050565b6000602082840312156136eb576136ea6131b4565b5b60006136f984828501613202565b91505092915050565b600061010082019050613718600083018b6132c8565b613725602083018a613378565b6137326040830189613565565b61373f6060830188613565565b61374c6080830187613565565b61375960a0830186613565565b61376660c0830185613565565b61377360e0830184613565565b9998505050505050505050565b7f4e487b7100000000000000000000000000000000000000000000000000000000600052601160045260246000fd5b60006137ba82613217565b91506137c583613217565b92508282026137d381613217565b915082820484148315176137ea576137e9613780565b5b5092915050565b7f4e487b7100000000000000000000000000000000000000000000000000000000600052601260045260246000fd5b600061382b82613217565b915061383683613217565b925082613846576138456137f1565b5b828204905092915050565b60006060820190506138666000830186613565565b6138736020830185613565565b6138806040830184613565565b949350505050565b60008151905061389781613221565b92915050565b6000602082840312156138b3576138b26131b4565b5b60006138c184828501613888565b91505092915050565b600060a0820190506138df6000830188613565565b6138ec6020830187613565565b6138f96040830186613565565b6139066060830185613565565b6139136080830184613378565b9695505050505050565b600061392882613217565b915061393383613217565b925082820390508181111561394b5761394a613780565b5b92915050565b600082825260208201905092915050565b7f4f776e61626c653a206e6577206f776e657220697320746865207a65726f206160008201527f6464726573730000000000000000000000000000000000000000000000000000602082015250565b60006139be602683613951565b91506139c982613962565b604082019050919050565b600060208201905081810360008301526139ed816139b1565b9050919050565b6000606082019050613a0960008301866132c8565b613a1660208301856132c8565b613a236040830184613565565b949350505050565b7f4f776e61626c653a2063616c6c6572206973206e6f7420746865206f776e6572600082015250565b6000613a61602083613951565b9150613a6c82613a2b565b602082019050919050565b60006020820190508181036000830152613a9081613a54565b9050919050565b7f5061757361626c653a2070617573656400000000000000000000000000000000600082015250565b6000613acd601083613951565b9150613ad882613a97565b602082019050919050565b60006020820190508181036000830152613afc81613ac0565b9050919050565b6000604082019050613b1860008301856132c8565b613b2560208301846132c8565b9392505050565b6000613b3782613217565b9150613b4283613217565b9250828201905080821115613b5a57613b59613780565b5b92915050565b600081519050613b6f816133de565b92915050565b600060208284031215613b8b57613b8a6131b4565b5b6000613b9984828501613b60565b91505092915050565b7f5361666545524332303a204552433230206f7065726174696f6e20646964206e60008201527f6f74207375636365656400000000000000000000000000000000000000000000602082015250565b6000613bfe602a83613951565b9150613c0982613ba2565b604082019050919050565b60006020820190508181036000830152613c2d81613bf1565b9050919050565b7f5061757361626c653a206e6f7420706175736564000000000000000000000000600082015250565b6000613c6a601483613951565b9150613c7582613c34565b602082019050919050565b60006020820190508181036000830152613c9981613c5d565b9050919050565b6000604082019050613cb560008301856132c8565b613cc26020830184613565565b9392505050565b6000608082019050613cde60008301876132c8565b613ceb60208301866132c8565b613cf86040830185613565565b613d056060830184613565565b95945050505050565b600081519050613d1d816131eb565b92915050565b600060208284031215613d3957613d386131b4565b5b6000613d4784828501613d0e565b91505092915050565b7f5361666545524332303a20617070726f76652066726f6d206e6f6e2d7a65726f60008201527f20746f206e6f6e2d7a65726f20616c6c6f77616e636500000000000000000000602082015250565b6000613dac603683613951565b9150613db782613d50565b604082019050919050565b60006020820190508181036000830152613ddb81613d9f565b9050919050565b600081905092915050565b50565b6000613dfd600083613de2565b9150613e0882613ded565b600082019050919050565b6000613e1e82613df0565b9150819050919050565b7f416464726573733a20696e73756666696369656e742062616c616e636520666f60008201527f722063616c6c0000000000000000000000000000000000000000000000000000602082015250565b6000613e84602683613951565b9150613e8f82613e28565b604082019050919050565b60006020820190508181036000830152613eb381613e77565b9050919050565b600081519050919050565b60005b83811015613ee3578082015181840152602081019050613ec8565b60008484015250505050565b6000613efa82613eba565b613f048185613de2565b9350613f14818560208601613ec5565b80840191505092915050565b6000613f2c8284613eef565b915081905092915050565b7f416464726573733a2063616c6c20746f206e6f6e2d636f6e7472616374000000600082015250565b6000613f6d601d83613951565b9150613f7882613f37565b602082019050919050565b60006020820190508181036000830152613f9c81613f60565b9050919050565b600081519050919050565b6000601f19601f8301169050919050565b6000613fca82613fa3565b613fd48185613951565b9350613fe4818560208601613ec5565b613fed81613fae565b840191505092915050565b600060208201905081810360008301526140128184613fbf565b90509291505056fea26469706673582212206b809cd1a734566f30746391bc26b994ab32f370b6a927994314d5c34953a4b464736f6c63430008130033","linkReferences":{}},"methodIdentifiers":{"FACTORY()":"2dd31000","FEE_MANAGER()":"ea26266c","LIQUIDITY_MANAGER()":"328ad467","REFERRAL_MANAGER()":"6e6f7acc","WBERA()":"a0417bad","buy(address,uint256,uint256,address,address)":"81becd16","buyNative(address,uint256,address,address)":"dd512a75","calculateSellPrice_(uint256,uint256,uint256,uint256)":"c696be24","owner()":"8da5cb5b","pause()":"8456cb59","paused()":"5c975abb","quote(address,uint256,bool)":"92f87d7b","registerToken(address,address,uint256,uint256,uint256)":"10dab247","renounceOwnership()":"715018a6","sell(address,uint256,uint256,address,address,bool)":"8082f529","tokenInfo(address)":"f5dab711","transferOwnership(address)":"f2fde38b","unpause()":"3f4ba83a"},"id":20}